{
	"contracts/inv.sol": {
		"InvDataVerifier": {
			"abi": [
				{
					"anonymous": false,
					"inputs": [
						{
							"indexed": true,
							"internalType": "string",
							"name": "id",
							"type": "string"
						}
					],
					"name": "DataStored",
					"type": "event"
				},
				{
					"inputs": [
						{
							"internalType": "string",
							"name": "id",
							"type": "string"
						},
						{
							"internalType": "bytes32",
							"name": "hash",
							"type": "bytes32"
						}
					],
					"name": "match_inv_data",
					"outputs": [
						{
							"internalType": "bool",
							"name": "",
							"type": "bool"
						}
					],
					"stateMutability": "view",
					"type": "function"
				},
				{
					"inputs": [
						{
							"internalType": "string",
							"name": "id",
							"type": "string"
						},
						{
							"internalType": "bytes32",
							"name": "hash",
							"type": "bytes32"
						}
					],
					"name": "storeData",
					"outputs": [],
					"stateMutability": "nonpayable",
					"type": "function"
				}
			],
			"devdoc": {
				"kind": "dev",
				"methods": {},
				"version": 1
			},
			"evm": {
				"assembly": "    /* \"contracts/inv.sol\":60:631  contract InvDataVerifier {... */\n  mstore(0x40, 0x80)\n  callvalue\n  dup1\n  iszero\n  tag_1\n  jumpi\n  0x00\n  dup1\n  revert\ntag_1:\n  pop\n  dataSize(sub_0)\n  dup1\n  dataOffset(sub_0)\n  0x00\n  codecopy\n  0x00\n  return\nstop\n\nsub_0: assembly {\n        /* \"contracts/inv.sol\":60:631  contract InvDataVerifier {... */\n      mstore(0x40, 0x80)\n      callvalue\n      dup1\n      iszero\n      tag_1\n      jumpi\n      0x00\n      dup1\n      revert\n    tag_1:\n      pop\n      jumpi(tag_2, lt(calldatasize, 0x04))\n      shr(0xe0, calldataload(0x00))\n      dup1\n      0xc66d7211\n      eq\n      tag_3\n      jumpi\n      dup1\n      0xd0064efb\n      eq\n      tag_4\n      jumpi\n    tag_2:\n      0x00\n      dup1\n      revert\n        /* \"contracts/inv.sol\":395:628  function match_inv_data(string calldata id, bytes32 hash) external view returns (bool) {... */\n    tag_3:\n      tag_5\n      0x04\n      dup1\n      calldatasize\n      sub\n      dup2\n      add\n      swap1\n      tag_6\n      swap2\n      swap1\n      tag_7\n      jump\t// in\n    tag_6:\n      tag_8\n      jump\t// in\n    tag_5:\n      mload(0x40)\n      tag_9\n      swap2\n      swap1\n      tag_10\n      jump\t// in\n    tag_9:\n      mload(0x40)\n      dup1\n      swap2\n      sub\n      swap1\n      return\n        /* \"contracts/inv.sol\":195:387  function storeData(string calldata id, bytes32 hash) external {... */\n    tag_4:\n      tag_11\n      0x04\n      dup1\n      calldatasize\n      sub\n      dup2\n      add\n      swap1\n      tag_12\n      swap2\n      swap1\n      tag_7\n      jump\t// in\n    tag_12:\n      tag_13\n      jump\t// in\n    tag_11:\n      stop\n        /* \"contracts/inv.sol\":395:628  function match_inv_data(string calldata id, bytes32 hash) external view returns (bool) {... */\n    tag_8:\n        /* \"contracts/inv.sol\":476:480  bool */\n      0x00\n        /* \"contracts/inv.sol\":493:511  bytes32 storedHash */\n      dup1\n        /* \"contracts/inv.sol\":514:524  dataHashes */\n      0x00\n        /* \"contracts/inv.sol\":525:527  id */\n      dup6\n      dup6\n        /* \"contracts/inv.sol\":514:528  dataHashes[id] */\n      mload(0x40)\n      tag_15\n      swap3\n      swap2\n      swap1\n      tag_16\n      jump\t// in\n    tag_15:\n      swap1\n      dup2\n      mstore\n      0x20\n      add\n      mload(0x40)\n      dup1\n      swap2\n      sub\n      swap1\n      keccak256\n      sload\n        /* \"contracts/inv.sol\":493:528  bytes32 storedHash = dataHashes[id] */\n      swap1\n      pop\n        /* \"contracts/inv.sol\":561:562  0 */\n      0x00\n        /* \"contracts/inv.sol\":547:562  storedHash != 0 */\n      dup1\n      shl\n        /* \"contracts/inv.sol\":547:557  storedHash */\n      dup2\n        /* \"contracts/inv.sol\":547:562  storedHash != 0 */\n      sub\n        /* \"contracts/inv.sol\":539:584  require(storedHash != 0, \"ID does not exist\") */\n      tag_17\n      jumpi\n      mload(0x40)\n      0x08c379a000000000000000000000000000000000000000000000000000000000\n      dup2\n      mstore\n      0x04\n      add\n      tag_18\n      swap1\n      tag_19\n      jump\t// in\n    tag_18:\n      mload(0x40)\n      dup1\n      swap2\n      sub\n      swap1\n      revert\n    tag_17:\n        /* \"contracts/inv.sol\":616:620  hash */\n      dup3\n        /* \"contracts/inv.sol\":602:612  storedHash */\n      dup2\n        /* \"contracts/inv.sol\":602:620  storedHash == hash */\n      eq\n        /* \"contracts/inv.sol\":595:620  return storedHash == hash */\n      swap2\n      pop\n      pop\n        /* \"contracts/inv.sol\":395:628  function match_inv_data(string calldata id, bytes32 hash) external view returns (bool) {... */\n      swap4\n      swap3\n      pop\n      pop\n      pop\n      jump\t// out\n        /* \"contracts/inv.sol\":195:387  function storeData(string calldata id, bytes32 hash) external {... */\n    tag_13:\n        /* \"contracts/inv.sol\":294:295  0 */\n      0x00\n        /* \"contracts/inv.sol\":276:295  dataHashes[id] == 0 */\n      dup1\n      shl\n        /* \"contracts/inv.sol\":276:286  dataHashes */\n      0x00\n        /* \"contracts/inv.sol\":287:289  id */\n      dup5\n      dup5\n        /* \"contracts/inv.sol\":276:290  dataHashes[id] */\n      mload(0x40)\n      tag_21\n      swap3\n      swap2\n      swap1\n      tag_16\n      jump\t// in\n    tag_21:\n      swap1\n      dup2\n      mstore\n      0x20\n      add\n      mload(0x40)\n      dup1\n      swap2\n      sub\n      swap1\n      keccak256\n      sload\n        /* \"contracts/inv.sol\":276:295  dataHashes[id] == 0 */\n      eq\n        /* \"contracts/inv.sol\":268:317  require(dataHashes[id] == 0, \"ID already exists\") */\n      tag_22\n      jumpi\n      mload(0x40)\n      0x08c379a000000000000000000000000000000000000000000000000000000000\n      dup2\n      mstore\n      0x04\n      add\n      tag_23\n      swap1\n      tag_24\n      jump\t// in\n    tag_23:\n      mload(0x40)\n      dup1\n      swap2\n      sub\n      swap1\n      revert\n    tag_22:\n        /* \"contracts/inv.sol\":345:349  hash */\n      dup1\n        /* \"contracts/inv.sol\":328:338  dataHashes */\n      0x00\n        /* \"contracts/inv.sol\":339:341  id */\n      dup5\n      dup5\n        /* \"contracts/inv.sol\":328:342  dataHashes[id] */\n      mload(0x40)\n      tag_25\n      swap3\n      swap2\n      swap1\n      tag_16\n      jump\t// in\n    tag_25:\n      swap1\n      dup2\n      mstore\n      0x20\n      add\n      mload(0x40)\n      dup1\n      swap2\n      sub\n      swap1\n      keccak256\n        /* \"contracts/inv.sol\":328:349  dataHashes[id] = hash */\n      dup2\n      swap1\n      sstore\n      pop\n        /* \"contracts/inv.sol\":376:378  id */\n      dup3\n      dup3\n        /* \"contracts/inv.sol\":365:379  DataStored(id) */\n      mload(0x40)\n      tag_26\n      swap3\n      swap2\n      swap1\n      tag_16\n      jump\t// in\n    tag_26:\n      mload(0x40)\n      dup1\n      swap2\n      sub\n      swap1\n      keccak256\n      0xfe3101cc3119e1fe29a9c3464a3ff7e98501e65122abab6937026311367dc516\n      mload(0x40)\n      mload(0x40)\n      dup1\n      swap2\n      sub\n      swap1\n      log2\n        /* \"contracts/inv.sol\":195:387  function storeData(string calldata id, bytes32 hash) external {... */\n      pop\n      pop\n      pop\n      jump\t// out\n        /* \"#utility.yul\":88:205   */\n    tag_28:\n        /* \"#utility.yul\":197:198   */\n      0x00\n        /* \"#utility.yul\":194:195   */\n      dup1\n        /* \"#utility.yul\":187:199   */\n      revert\n        /* \"#utility.yul\":211:328   */\n    tag_29:\n        /* \"#utility.yul\":320:321   */\n      0x00\n        /* \"#utility.yul\":317:318   */\n      dup1\n        /* \"#utility.yul\":310:322   */\n      revert\n        /* \"#utility.yul\":334:451   */\n    tag_30:\n        /* \"#utility.yul\":443:444   */\n      0x00\n        /* \"#utility.yul\":440:441   */\n      dup1\n        /* \"#utility.yul\":433:445   */\n      revert\n        /* \"#utility.yul\":457:574   */\n    tag_31:\n        /* \"#utility.yul\":566:567   */\n      0x00\n        /* \"#utility.yul\":563:564   */\n      dup1\n        /* \"#utility.yul\":556:568   */\n      revert\n        /* \"#utility.yul\":580:697   */\n    tag_32:\n        /* \"#utility.yul\":689:690   */\n      0x00\n        /* \"#utility.yul\":686:687   */\n      dup1\n        /* \"#utility.yul\":679:691   */\n      revert\n        /* \"#utility.yul\":717:1270   */\n    tag_33:\n        /* \"#utility.yul\":775:783   */\n      0x00\n        /* \"#utility.yul\":785:791   */\n      dup1\n        /* \"#utility.yul\":835:838   */\n      dup4\n        /* \"#utility.yul\":828:832   */\n      0x1f\n        /* \"#utility.yul\":820:826   */\n      dup5\n        /* \"#utility.yul\":816:833   */\n      add\n        /* \"#utility.yul\":812:839   */\n      slt\n        /* \"#utility.yul\":802:924   */\n      tag_55\n      jumpi\n        /* \"#utility.yul\":843:922   */\n      tag_56\n      tag_30\n      jump\t// in\n    tag_56:\n        /* \"#utility.yul\":802:924   */\n    tag_55:\n        /* \"#utility.yul\":956:962   */\n      dup3\n        /* \"#utility.yul\":943:963   */\n      calldataload\n        /* \"#utility.yul\":933:963   */\n      swap1\n      pop\n        /* \"#utility.yul\":986:1004   */\n      0xffffffffffffffff\n        /* \"#utility.yul\":978:984   */\n      dup2\n        /* \"#utility.yul\":975:1005   */\n      gt\n        /* \"#utility.yul\":972:1089   */\n      iszero\n      tag_57\n      jumpi\n        /* \"#utility.yul\":1008:1087   */\n      tag_58\n      tag_31\n      jump\t// in\n    tag_58:\n        /* \"#utility.yul\":972:1089   */\n    tag_57:\n        /* \"#utility.yul\":1122:1126   */\n      0x20\n        /* \"#utility.yul\":1114:1120   */\n      dup4\n        /* \"#utility.yul\":1110:1127   */\n      add\n        /* \"#utility.yul\":1098:1127   */\n      swap2\n      pop\n        /* \"#utility.yul\":1176:1179   */\n      dup4\n        /* \"#utility.yul\":1168:1172   */\n      0x01\n        /* \"#utility.yul\":1160:1166   */\n      dup3\n        /* \"#utility.yul\":1156:1173   */\n      mul\n        /* \"#utility.yul\":1146:1154   */\n      dup4\n        /* \"#utility.yul\":1142:1174   */\n      add\n        /* \"#utility.yul\":1139:1180   */\n      gt\n        /* \"#utility.yul\":1136:1264   */\n      iszero\n      tag_59\n      jumpi\n        /* \"#utility.yul\":1183:1262   */\n      tag_60\n      tag_32\n      jump\t// in\n    tag_60:\n        /* \"#utility.yul\":1136:1264   */\n    tag_59:\n        /* \"#utility.yul\":717:1270   */\n      swap3\n      pop\n      swap3\n      swap1\n      pop\n      jump\t// out\n        /* \"#utility.yul\":1276:1353   */\n    tag_34:\n        /* \"#utility.yul\":1313:1320   */\n      0x00\n        /* \"#utility.yul\":1342:1347   */\n      dup2\n        /* \"#utility.yul\":1331:1347   */\n      swap1\n      pop\n        /* \"#utility.yul\":1276:1353   */\n      swap2\n      swap1\n      pop\n      jump\t// out\n        /* \"#utility.yul\":1359:1481   */\n    tag_35:\n        /* \"#utility.yul\":1432:1456   */\n      tag_63\n        /* \"#utility.yul\":1450:1455   */\n      dup2\n        /* \"#utility.yul\":1432:1456   */\n      tag_34\n      jump\t// in\n    tag_63:\n        /* \"#utility.yul\":1425:1430   */\n      dup2\n        /* \"#utility.yul\":1422:1457   */\n      eq\n        /* \"#utility.yul\":1412:1475   */\n      tag_64\n      jumpi\n        /* \"#utility.yul\":1471:1472   */\n      0x00\n        /* \"#utility.yul\":1468:1469   */\n      dup1\n        /* \"#utility.yul\":1461:1473   */\n      revert\n        /* \"#utility.yul\":1412:1475   */\n    tag_64:\n        /* \"#utility.yul\":1359:1481   */\n      pop\n      jump\t// out\n        /* \"#utility.yul\":1487:1626   */\n    tag_36:\n        /* \"#utility.yul\":1533:1538   */\n      0x00\n        /* \"#utility.yul\":1571:1577   */\n      dup2\n        /* \"#utility.yul\":1558:1578   */\n      calldataload\n        /* \"#utility.yul\":1549:1578   */\n      swap1\n      pop\n        /* \"#utility.yul\":1587:1620   */\n      tag_66\n        /* \"#utility.yul\":1614:1619   */\n      dup2\n        /* \"#utility.yul\":1587:1620   */\n      tag_35\n      jump\t// in\n    tag_66:\n        /* \"#utility.yul\":1487:1626   */\n      swap3\n      swap2\n      pop\n      pop\n      jump\t// out\n        /* \"#utility.yul\":1632:2306   */\n    tag_7:\n        /* \"#utility.yul\":1712:1718   */\n      0x00\n        /* \"#utility.yul\":1720:1726   */\n      dup1\n        /* \"#utility.yul\":1728:1734   */\n      0x00\n        /* \"#utility.yul\":1777:1779   */\n      0x40\n        /* \"#utility.yul\":1765:1774   */\n      dup5\n        /* \"#utility.yul\":1756:1763   */\n      dup7\n        /* \"#utility.yul\":1752:1775   */\n      sub\n        /* \"#utility.yul\":1748:1780   */\n      slt\n        /* \"#utility.yul\":1745:1864   */\n      iszero\n      tag_68\n      jumpi\n        /* \"#utility.yul\":1783:1862   */\n      tag_69\n      tag_28\n      jump\t// in\n    tag_69:\n        /* \"#utility.yul\":1745:1864   */\n    tag_68:\n        /* \"#utility.yul\":1931:1932   */\n      0x00\n        /* \"#utility.yul\":1920:1929   */\n      dup5\n        /* \"#utility.yul\":1916:1933   */\n      add\n        /* \"#utility.yul\":1903:1934   */\n      calldataload\n        /* \"#utility.yul\":1961:1979   */\n      0xffffffffffffffff\n        /* \"#utility.yul\":1953:1959   */\n      dup2\n        /* \"#utility.yul\":1950:1980   */\n      gt\n        /* \"#utility.yul\":1947:2064   */\n      iszero\n      tag_70\n      jumpi\n        /* \"#utility.yul\":1983:2062   */\n      tag_71\n      tag_29\n      jump\t// in\n    tag_71:\n        /* \"#utility.yul\":1947:2064   */\n    tag_70:\n        /* \"#utility.yul\":2096:2161   */\n      tag_72\n        /* \"#utility.yul\":2153:2160   */\n      dup7\n        /* \"#utility.yul\":2144:2150   */\n      dup3\n        /* \"#utility.yul\":2133:2142   */\n      dup8\n        /* \"#utility.yul\":2129:2151   */\n      add\n        /* \"#utility.yul\":2096:2161   */\n      tag_33\n      jump\t// in\n    tag_72:\n        /* \"#utility.yul\":2078:2161   */\n      swap4\n      pop\n      swap4\n      pop\n        /* \"#utility.yul\":1874:2171   */\n      pop\n        /* \"#utility.yul\":2210:2212   */\n      0x20\n        /* \"#utility.yul\":2236:2289   */\n      tag_73\n        /* \"#utility.yul\":2281:2288   */\n      dup7\n        /* \"#utility.yul\":2272:2278   */\n      dup3\n        /* \"#utility.yul\":2261:2270   */\n      dup8\n        /* \"#utility.yul\":2257:2279   */\n      add\n        /* \"#utility.yul\":2236:2289   */\n      tag_36\n      jump\t// in\n    tag_73:\n        /* \"#utility.yul\":2226:2289   */\n      swap2\n      pop\n        /* \"#utility.yul\":2181:2299   */\n      pop\n        /* \"#utility.yul\":1632:2306   */\n      swap3\n      pop\n      swap3\n      pop\n      swap3\n      jump\t// out\n        /* \"#utility.yul\":2312:2402   */\n    tag_37:\n        /* \"#utility.yul\":2346:2353   */\n      0x00\n        /* \"#utility.yul\":2389:2394   */\n      dup2\n        /* \"#utility.yul\":2382:2395   */\n      iszero\n        /* \"#utility.yul\":2375:2396   */\n      iszero\n        /* \"#utility.yul\":2364:2396   */\n      swap1\n      pop\n        /* \"#utility.yul\":2312:2402   */\n      swap2\n      swap1\n      pop\n      jump\t// out\n        /* \"#utility.yul\":2408:2517   */\n    tag_38:\n        /* \"#utility.yul\":2489:2510   */\n      tag_76\n        /* \"#utility.yul\":2504:2509   */\n      dup2\n        /* \"#utility.yul\":2489:2510   */\n      tag_37\n      jump\t// in\n    tag_76:\n        /* \"#utility.yul\":2484:2487   */\n      dup3\n        /* \"#utility.yul\":2477:2511   */\n      mstore\n        /* \"#utility.yul\":2408:2517   */\n      pop\n      pop\n      jump\t// out\n        /* \"#utility.yul\":2523:2733   */\n    tag_10:\n        /* \"#utility.yul\":2610:2614   */\n      0x00\n        /* \"#utility.yul\":2648:2650   */\n      0x20\n        /* \"#utility.yul\":2637:2646   */\n      dup3\n        /* \"#utility.yul\":2633:2651   */\n      add\n        /* \"#utility.yul\":2625:2651   */\n      swap1\n      pop\n        /* \"#utility.yul\":2661:2726   */\n      tag_78\n        /* \"#utility.yul\":2723:2724   */\n      0x00\n        /* \"#utility.yul\":2712:2721   */\n      dup4\n        /* \"#utility.yul\":2708:2725   */\n      add\n        /* \"#utility.yul\":2699:2705   */\n      dup5\n        /* \"#utility.yul\":2661:2726   */\n      tag_38\n      jump\t// in\n    tag_78:\n        /* \"#utility.yul\":2523:2733   */\n      swap3\n      swap2\n      pop\n      pop\n      jump\t// out\n        /* \"#utility.yul\":2739:2887   */\n    tag_39:\n        /* \"#utility.yul\":2841:2852   */\n      0x00\n        /* \"#utility.yul\":2878:2881   */\n      dup2\n        /* \"#utility.yul\":2863:2881   */\n      swap1\n      pop\n        /* \"#utility.yul\":2739:2887   */\n      swap3\n      swap2\n      pop\n      pop\n      jump\t// out\n        /* \"#utility.yul\":2893:3039   */\n    tag_40:\n        /* \"#utility.yul\":2990:2996   */\n      dup3\n        /* \"#utility.yul\":2985:2988   */\n      dup2\n        /* \"#utility.yul\":2980:2983   */\n      dup4\n        /* \"#utility.yul\":2967:2997   */\n      calldatacopy\n        /* \"#utility.yul\":3031:3032   */\n      0x00\n        /* \"#utility.yul\":3022:3028   */\n      dup4\n        /* \"#utility.yul\":3017:3020   */\n      dup4\n        /* \"#utility.yul\":3013:3029   */\n      add\n        /* \"#utility.yul\":3006:3033   */\n      mstore\n        /* \"#utility.yul\":2893:3039   */\n      pop\n      pop\n      pop\n      jump\t// out\n        /* \"#utility.yul\":3069:3399   */\n    tag_41:\n        /* \"#utility.yul\":3185:3188   */\n      0x00\n        /* \"#utility.yul\":3206:3295   */\n      tag_82\n        /* \"#utility.yul\":3288:3294   */\n      dup4\n        /* \"#utility.yul\":3283:3286   */\n      dup6\n        /* \"#utility.yul\":3206:3295   */\n      tag_39\n      jump\t// in\n    tag_82:\n        /* \"#utility.yul\":3199:3295   */\n      swap4\n      pop\n        /* \"#utility.yul\":3305:3361   */\n      tag_83\n        /* \"#utility.yul\":3354:3360   */\n      dup4\n        /* \"#utility.yul\":3349:3352   */\n      dup6\n        /* \"#utility.yul\":3342:3347   */\n      dup5\n        /* \"#utility.yul\":3305:3361   */\n      tag_40\n      jump\t// in\n    tag_83:\n        /* \"#utility.yul\":3386:3392   */\n      dup3\n        /* \"#utility.yul\":3381:3384   */\n      dup5\n        /* \"#utility.yul\":3377:3393   */\n      add\n        /* \"#utility.yul\":3370:3393   */\n      swap1\n      pop\n        /* \"#utility.yul\":3069:3399   */\n      swap4\n      swap3\n      pop\n      pop\n      pop\n      jump\t// out\n        /* \"#utility.yul\":3405:3700   */\n    tag_16:\n        /* \"#utility.yul\":3547:3550   */\n      0x00\n        /* \"#utility.yul\":3569:3674   */\n      tag_85\n        /* \"#utility.yul\":3670:3673   */\n      dup3\n        /* \"#utility.yul\":3661:3667   */\n      dup5\n        /* \"#utility.yul\":3653:3659   */\n      dup7\n        /* \"#utility.yul\":3569:3674   */\n      tag_41\n      jump\t// in\n    tag_85:\n        /* \"#utility.yul\":3562:3674   */\n      swap2\n      pop\n        /* \"#utility.yul\":3691:3694   */\n      dup2\n        /* \"#utility.yul\":3684:3694   */\n      swap1\n      pop\n        /* \"#utility.yul\":3405:3700   */\n      swap4\n      swap3\n      pop\n      pop\n      pop\n      jump\t// out\n        /* \"#utility.yul\":3706:3875   */\n    tag_42:\n        /* \"#utility.yul\":3790:3801   */\n      0x00\n        /* \"#utility.yul\":3824:3830   */\n      dup3\n        /* \"#utility.yul\":3819:3822   */\n      dup3\n        /* \"#utility.yul\":3812:3831   */\n      mstore\n        /* \"#utility.yul\":3864:3868   */\n      0x20\n        /* \"#utility.yul\":3859:3862   */\n      dup3\n        /* \"#utility.yul\":3855:3869   */\n      add\n        /* \"#utility.yul\":3840:3869   */\n      swap1\n      pop\n        /* \"#utility.yul\":3706:3875   */\n      swap3\n      swap2\n      pop\n      pop\n      jump\t// out\n        /* \"#utility.yul\":3881:4048   */\n    tag_43:\n        /* \"#utility.yul\":4021:4040   */\n      0x494420646f6573206e6f74206578697374000000000000000000000000000000\n        /* \"#utility.yul\":4017:4018   */\n      0x00\n        /* \"#utility.yul\":4009:4015   */\n      dup3\n        /* \"#utility.yul\":4005:4019   */\n      add\n        /* \"#utility.yul\":3998:4041   */\n      mstore\n        /* \"#utility.yul\":3881:4048   */\n      pop\n      jump\t// out\n        /* \"#utility.yul\":4054:4420   */\n    tag_44:\n        /* \"#utility.yul\":4196:4199   */\n      0x00\n        /* \"#utility.yul\":4217:4284   */\n      tag_89\n        /* \"#utility.yul\":4281:4283   */\n      0x11\n        /* \"#utility.yul\":4276:4279   */\n      dup4\n        /* \"#utility.yul\":4217:4284   */\n      tag_42\n      jump\t// in\n    tag_89:\n        /* \"#utility.yul\":4210:4284   */\n      swap2\n      pop\n        /* \"#utility.yul\":4293:4386   */\n      tag_90\n        /* \"#utility.yul\":4382:4385   */\n      dup3\n        /* \"#utility.yul\":4293:4386   */\n      tag_43\n      jump\t// in\n    tag_90:\n        /* \"#utility.yul\":4411:4413   */\n      0x20\n        /* \"#utility.yul\":4406:4409   */\n      dup3\n        /* \"#utility.yul\":4402:4414   */\n      add\n        /* \"#utility.yul\":4395:4414   */\n      swap1\n      pop\n        /* \"#utility.yul\":4054:4420   */\n      swap2\n      swap1\n      pop\n      jump\t// out\n        /* \"#utility.yul\":4426:4845   */\n    tag_19:\n        /* \"#utility.yul\":4592:4596   */\n      0x00\n        /* \"#utility.yul\":4630:4632   */\n      0x20\n        /* \"#utility.yul\":4619:4628   */\n      dup3\n        /* \"#utility.yul\":4615:4633   */\n      add\n        /* \"#utility.yul\":4607:4633   */\n      swap1\n      pop\n        /* \"#utility.yul\":4679:4688   */\n      dup2\n        /* \"#utility.yul\":4673:4677   */\n      dup2\n        /* \"#utility.yul\":4669:4689   */\n      sub\n        /* \"#utility.yul\":4665:4666   */\n      0x00\n        /* \"#utility.yul\":4654:4663   */\n      dup4\n        /* \"#utility.yul\":4650:4667   */\n      add\n        /* \"#utility.yul\":4643:4690   */\n      mstore\n        /* \"#utility.yul\":4707:4838   */\n      tag_92\n        /* \"#utility.yul\":4833:4837   */\n      dup2\n        /* \"#utility.yul\":4707:4838   */\n      tag_44\n      jump\t// in\n    tag_92:\n        /* \"#utility.yul\":4699:4838   */\n      swap1\n      pop\n        /* \"#utility.yul\":4426:4845   */\n      swap2\n      swap1\n      pop\n      jump\t// out\n        /* \"#utility.yul\":4851:5018   */\n    tag_45:\n        /* \"#utility.yul\":4991:5010   */\n      0x494420616c726561647920657869737473000000000000000000000000000000\n        /* \"#utility.yul\":4987:4988   */\n      0x00\n        /* \"#utility.yul\":4979:4985   */\n      dup3\n        /* \"#utility.yul\":4975:4989   */\n      add\n        /* \"#utility.yul\":4968:5011   */\n      mstore\n        /* \"#utility.yul\":4851:5018   */\n      pop\n      jump\t// out\n        /* \"#utility.yul\":5024:5390   */\n    tag_46:\n        /* \"#utility.yul\":5166:5169   */\n      0x00\n        /* \"#utility.yul\":5187:5254   */\n      tag_95\n        /* \"#utility.yul\":5251:5253   */\n      0x11\n        /* \"#utility.yul\":5246:5249   */\n      dup4\n        /* \"#utility.yul\":5187:5254   */\n      tag_42\n      jump\t// in\n    tag_95:\n        /* \"#utility.yul\":5180:5254   */\n      swap2\n      pop\n        /* \"#utility.yul\":5263:5356   */\n      tag_96\n        /* \"#utility.yul\":5352:5355   */\n      dup3\n        /* \"#utility.yul\":5263:5356   */\n      tag_45\n      jump\t// in\n    tag_96:\n        /* \"#utility.yul\":5381:5383   */\n      0x20\n        /* \"#utility.yul\":5376:5379   */\n      dup3\n        /* \"#utility.yul\":5372:5384   */\n      add\n        /* \"#utility.yul\":5365:5384   */\n      swap1\n      pop\n        /* \"#utility.yul\":5024:5390   */\n      swap2\n      swap1\n      pop\n      jump\t// out\n        /* \"#utility.yul\":5396:5815   */\n    tag_24:\n        /* \"#utility.yul\":5562:5566   */\n      0x00\n        /* \"#utility.yul\":5600:5602   */\n      0x20\n        /* \"#utility.yul\":5589:5598   */\n      dup3\n        /* \"#utility.yul\":5585:5603   */\n      add\n        /* \"#utility.yul\":5577:5603   */\n      swap1\n      pop\n        /* \"#utility.yul\":5649:5658   */\n      dup2\n        /* \"#utility.yul\":5643:5647   */\n      dup2\n        /* \"#utility.yul\":5639:5659   */\n      sub\n        /* \"#utility.yul\":5635:5636   */\n      0x00\n        /* \"#utility.yul\":5624:5633   */\n      dup4\n        /* \"#utility.yul\":5620:5637   */\n      add\n        /* \"#utility.yul\":5613:5660   */\n      mstore\n        /* \"#utility.yul\":5677:5808   */\n      tag_98\n        /* \"#utility.yul\":5803:5807   */\n      dup2\n        /* \"#utility.yul\":5677:5808   */\n      tag_46\n      jump\t// in\n    tag_98:\n        /* \"#utility.yul\":5669:5808   */\n      swap1\n      pop\n        /* \"#utility.yul\":5396:5815   */\n      swap2\n      swap1\n      pop\n      jump\t// out\n\n    auxdata: 0xa2646970667358221220137de573fe9c375026a5cf7966063ec7260a41bf84d9c564c5b5fc04d642ff8664736f6c63430008140033\n}\n",
				"bytecode": {
					"linkReferences": {},
					"object": "608060405234801561000f575f80fd5b5061045f8061001d5f395ff3fe608060405234801561000f575f80fd5b5060043610610034575f3560e01c8063c66d721114610038578063d0064efb14610068575b5f80fd5b610052600480360381019061004d9190610265565b610084565b60405161005f91906102dc565b60405180910390f35b610082600480360381019061007d9190610265565b6100f9565b005b5f805f8585604051610097929190610331565b90815260200160405180910390205490505f801b81036100ec576040517f08c379a00000000000000000000000000000000000000000000000000000000081526004016100e3906103a3565b60405180910390fd5b8281149150509392505050565b5f801b5f848460405161010d929190610331565b9081526020016040518091039020541461015c576040517f08c379a00000000000000000000000000000000000000000000000000000000081526004016101539061040b565b60405180910390fd5b805f848460405161016e929190610331565b9081526020016040518091039020819055508282604051610190929190610331565b60405180910390207ffe3101cc3119e1fe29a9c3464a3ff7e98501e65122abab6937026311367dc51660405160405180910390a2505050565b5f80fd5b5f80fd5b5f80fd5b5f80fd5b5f80fd5b5f8083601f8401126101f2576101f16101d1565b5b8235905067ffffffffffffffff81111561020f5761020e6101d5565b5b60208301915083600182028301111561022b5761022a6101d9565b5b9250929050565b5f819050919050565b61024481610232565b811461024e575f80fd5b50565b5f8135905061025f8161023b565b92915050565b5f805f6040848603121561027c5761027b6101c9565b5b5f84013567ffffffffffffffff811115610299576102986101cd565b5b6102a5868287016101dd565b935093505060206102b886828701610251565b9150509250925092565b5f8115159050919050565b6102d6816102c2565b82525050565b5f6020820190506102ef5f8301846102cd565b92915050565b5f81905092915050565b828183375f83830152505050565b5f61031883856102f5565b93506103258385846102ff565b82840190509392505050565b5f61033d82848661030d565b91508190509392505050565b5f82825260208201905092915050565b7f494420646f6573206e6f742065786973740000000000000000000000000000005f82015250565b5f61038d601183610349565b915061039882610359565b602082019050919050565b5f6020820190508181035f8301526103ba81610381565b9050919050565b7f494420616c7265616479206578697374730000000000000000000000000000005f82015250565b5f6103f5601183610349565b9150610400826103c1565b602082019050919050565b5f6020820190508181035f830152610422816103e9565b905091905056fea2646970667358221220137de573fe9c375026a5cf7966063ec7260a41bf84d9c564c5b5fc04d642ff8664736f6c63430008140033",
					"opcodes": "PUSH1 0x80 PUSH1 0x40 MSTORE CALLVALUE DUP1 ISZERO PUSH2 0xF JUMPI PUSH0 DUP1 REVERT JUMPDEST POP PUSH2 0x45F DUP1 PUSH2 0x1D PUSH0 CODECOPY PUSH0 RETURN INVALID PUSH1 0x80 PUSH1 0x40 MSTORE CALLVALUE DUP1 ISZERO PUSH2 0xF JUMPI PUSH0 DUP1 REVERT JUMPDEST POP PUSH1 0x4 CALLDATASIZE LT PUSH2 0x34 JUMPI PUSH0 CALLDATALOAD PUSH1 0xE0 SHR DUP1 PUSH4 0xC66D7211 EQ PUSH2 0x38 JUMPI DUP1 PUSH4 0xD0064EFB EQ PUSH2 0x68 JUMPI JUMPDEST PUSH0 DUP1 REVERT JUMPDEST PUSH2 0x52 PUSH1 0x4 DUP1 CALLDATASIZE SUB DUP2 ADD SWAP1 PUSH2 0x4D SWAP2 SWAP1 PUSH2 0x265 JUMP JUMPDEST PUSH2 0x84 JUMP JUMPDEST PUSH1 0x40 MLOAD PUSH2 0x5F SWAP2 SWAP1 PUSH2 0x2DC JUMP JUMPDEST PUSH1 0x40 MLOAD DUP1 SWAP2 SUB SWAP1 RETURN JUMPDEST PUSH2 0x82 PUSH1 0x4 DUP1 CALLDATASIZE SUB DUP2 ADD SWAP1 PUSH2 0x7D SWAP2 SWAP1 PUSH2 0x265 JUMP JUMPDEST PUSH2 0xF9 JUMP JUMPDEST STOP JUMPDEST PUSH0 DUP1 PUSH0 DUP6 DUP6 PUSH1 0x40 MLOAD PUSH2 0x97 SWAP3 SWAP2 SWAP1 PUSH2 0x331 JUMP JUMPDEST SWAP1 DUP2 MSTORE PUSH1 0x20 ADD PUSH1 0x40 MLOAD DUP1 SWAP2 SUB SWAP1 KECCAK256 SLOAD SWAP1 POP PUSH0 DUP1 SHL DUP2 SUB PUSH2 0xEC JUMPI PUSH1 0x40 MLOAD PUSH32 0x8C379A000000000000000000000000000000000000000000000000000000000 DUP2 MSTORE PUSH1 0x4 ADD PUSH2 0xE3 SWAP1 PUSH2 0x3A3 JUMP JUMPDEST PUSH1 0x40 MLOAD DUP1 SWAP2 SUB SWAP1 REVERT JUMPDEST DUP3 DUP2 EQ SWAP2 POP POP SWAP4 SWAP3 POP POP POP JUMP JUMPDEST PUSH0 DUP1 SHL PUSH0 DUP5 DUP5 PUSH1 0x40 MLOAD PUSH2 0x10D SWAP3 SWAP2 SWAP1 PUSH2 0x331 JUMP JUMPDEST SWAP1 DUP2 MSTORE PUSH1 0x20 ADD PUSH1 0x40 MLOAD DUP1 SWAP2 SUB SWAP1 KECCAK256 SLOAD EQ PUSH2 0x15C JUMPI PUSH1 0x40 MLOAD PUSH32 0x8C379A000000000000000000000000000000000000000000000000000000000 DUP2 MSTORE PUSH1 0x4 ADD PUSH2 0x153 SWAP1 PUSH2 0x40B JUMP JUMPDEST PUSH1 0x40 MLOAD DUP1 SWAP2 SUB SWAP1 REVERT JUMPDEST DUP1 PUSH0 DUP5 DUP5 PUSH1 0x40 MLOAD PUSH2 0x16E SWAP3 SWAP2 SWAP1 PUSH2 0x331 JUMP JUMPDEST SWAP1 DUP2 MSTORE PUSH1 0x20 ADD PUSH1 0x40 MLOAD DUP1 SWAP2 SUB SWAP1 KECCAK256 DUP2 SWAP1 SSTORE POP DUP3 DUP3 PUSH1 0x40 MLOAD PUSH2 0x190 SWAP3 SWAP2 SWAP1 PUSH2 0x331 JUMP JUMPDEST PUSH1 0x40 MLOAD DUP1 SWAP2 SUB SWAP1 KECCAK256 PUSH32 0xFE3101CC3119E1FE29A9C3464A3FF7E98501E65122ABAB6937026311367DC516 PUSH1 0x40 MLOAD PUSH1 0x40 MLOAD DUP1 SWAP2 SUB SWAP1 LOG2 POP POP POP JUMP JUMPDEST PUSH0 DUP1 REVERT JUMPDEST PUSH0 DUP1 REVERT JUMPDEST PUSH0 DUP1 REVERT JUMPDEST PUSH0 DUP1 REVERT JUMPDEST PUSH0 DUP1 REVERT JUMPDEST PUSH0 DUP1 DUP4 PUSH1 0x1F DUP5 ADD SLT PUSH2 0x1F2 JUMPI PUSH2 0x1F1 PUSH2 0x1D1 JUMP JUMPDEST JUMPDEST DUP3 CALLDATALOAD SWAP1 POP PUSH8 0xFFFFFFFFFFFFFFFF DUP2 GT ISZERO PUSH2 0x20F JUMPI PUSH2 0x20E PUSH2 0x1D5 JUMP JUMPDEST JUMPDEST PUSH1 0x20 DUP4 ADD SWAP2 POP DUP4 PUSH1 0x1 DUP3 MUL DUP4 ADD GT ISZERO PUSH2 0x22B JUMPI PUSH2 0x22A PUSH2 0x1D9 JUMP JUMPDEST JUMPDEST SWAP3 POP SWAP3 SWAP1 POP JUMP JUMPDEST PUSH0 DUP2 SWAP1 POP SWAP2 SWAP1 POP JUMP JUMPDEST PUSH2 0x244 DUP2 PUSH2 0x232 JUMP JUMPDEST DUP2 EQ PUSH2 0x24E JUMPI PUSH0 DUP1 REVERT JUMPDEST POP JUMP JUMPDEST PUSH0 DUP2 CALLDATALOAD SWAP1 POP PUSH2 0x25F DUP2 PUSH2 0x23B JUMP JUMPDEST SWAP3 SWAP2 POP POP JUMP JUMPDEST PUSH0 DUP1 PUSH0 PUSH1 0x40 DUP5 DUP7 SUB SLT ISZERO PUSH2 0x27C JUMPI PUSH2 0x27B PUSH2 0x1C9 JUMP JUMPDEST JUMPDEST PUSH0 DUP5 ADD CALLDATALOAD PUSH8 0xFFFFFFFFFFFFFFFF DUP2 GT ISZERO PUSH2 0x299 JUMPI PUSH2 0x298 PUSH2 0x1CD JUMP JUMPDEST JUMPDEST PUSH2 0x2A5 DUP7 DUP3 DUP8 ADD PUSH2 0x1DD JUMP JUMPDEST SWAP4 POP SWAP4 POP POP PUSH1 0x20 PUSH2 0x2B8 DUP7 DUP3 DUP8 ADD PUSH2 0x251 JUMP JUMPDEST SWAP2 POP POP SWAP3 POP SWAP3 POP SWAP3 JUMP JUMPDEST PUSH0 DUP2 ISZERO ISZERO SWAP1 POP SWAP2 SWAP1 POP JUMP JUMPDEST PUSH2 0x2D6 DUP2 PUSH2 0x2C2 JUMP JUMPDEST DUP3 MSTORE POP POP JUMP JUMPDEST PUSH0 PUSH1 0x20 DUP3 ADD SWAP1 POP PUSH2 0x2EF PUSH0 DUP4 ADD DUP5 PUSH2 0x2CD JUMP JUMPDEST SWAP3 SWAP2 POP POP JUMP JUMPDEST PUSH0 DUP2 SWAP1 POP SWAP3 SWAP2 POP POP JUMP JUMPDEST DUP3 DUP2 DUP4 CALLDATACOPY PUSH0 DUP4 DUP4 ADD MSTORE POP POP POP JUMP JUMPDEST PUSH0 PUSH2 0x318 DUP4 DUP6 PUSH2 0x2F5 JUMP JUMPDEST SWAP4 POP PUSH2 0x325 DUP4 DUP6 DUP5 PUSH2 0x2FF JUMP JUMPDEST DUP3 DUP5 ADD SWAP1 POP SWAP4 SWAP3 POP POP POP JUMP JUMPDEST PUSH0 PUSH2 0x33D DUP3 DUP5 DUP7 PUSH2 0x30D JUMP JUMPDEST SWAP2 POP DUP2 SWAP1 POP SWAP4 SWAP3 POP POP POP JUMP JUMPDEST PUSH0 DUP3 DUP3 MSTORE PUSH1 0x20 DUP3 ADD SWAP1 POP SWAP3 SWAP2 POP POP JUMP JUMPDEST PUSH32 0x494420646F6573206E6F74206578697374000000000000000000000000000000 PUSH0 DUP3 ADD MSTORE POP JUMP JUMPDEST PUSH0 PUSH2 0x38D PUSH1 0x11 DUP4 PUSH2 0x349 JUMP JUMPDEST SWAP2 POP PUSH2 0x398 DUP3 PUSH2 0x359 JUMP JUMPDEST PUSH1 0x20 DUP3 ADD SWAP1 POP SWAP2 SWAP1 POP JUMP JUMPDEST PUSH0 PUSH1 0x20 DUP3 ADD SWAP1 POP DUP2 DUP2 SUB PUSH0 DUP4 ADD MSTORE PUSH2 0x3BA DUP2 PUSH2 0x381 JUMP JUMPDEST SWAP1 POP SWAP2 SWAP1 POP JUMP JUMPDEST PUSH32 0x494420616C726561647920657869737473000000000000000000000000000000 PUSH0 DUP3 ADD MSTORE POP JUMP JUMPDEST PUSH0 PUSH2 0x3F5 PUSH1 0x11 DUP4 PUSH2 0x349 JUMP JUMPDEST SWAP2 POP PUSH2 0x400 DUP3 PUSH2 0x3C1 JUMP JUMPDEST PUSH1 0x20 DUP3 ADD SWAP1 POP SWAP2 SWAP1 POP JUMP JUMPDEST PUSH0 PUSH1 0x20 DUP3 ADD SWAP1 POP DUP2 DUP2 SUB PUSH0 DUP4 ADD MSTORE PUSH2 0x422 DUP2 PUSH2 0x3E9 JUMP JUMPDEST SWAP1 POP SWAP2 SWAP1 POP JUMP INVALID LOG2 PUSH5 0x6970667358 0x22 SLT KECCAK256 SGT PUSH30 0xE573FE9C375026A5CF7966063EC7260A41BF84D9C564C5B5FC04D642FF86 PUSH5 0x736F6C6343 STOP ADDMOD EQ STOP CALLER "
				},
				"gasEstimates": {
					"creation": {
						"codeDepositCost": "223800",
						"executionCost": "261",
						"totalCost": "224061"
					},
					"external": {
						"match_inv_data(string,bytes32)": "infinite",
						"storeData(string,bytes32)": "infinite"
					}
				},
				"methodIdentifiers": {
					"match_inv_data(string,bytes32)": "c66d7211",
					"storeData(string,bytes32)": "d0064efb"
				}
			},
			"storageLayout": {
				"storage": [
					{
						"astId": 5,
						"contract": "contracts/inv.sol:InvDataVerifier",
						"label": "dataHashes",
						"offset": 0,
						"slot": "0",
						"type": "t_mapping(t_string_memory_ptr,t_bytes32)"
					}
				],
				"types": {
					"t_bytes32": {
						"encoding": "inplace",
						"label": "bytes32",
						"numberOfBytes": "32"
					},
					"t_mapping(t_string_memory_ptr,t_bytes32)": {
						"encoding": "mapping",
						"key": "t_string_memory_ptr",
						"label": "mapping(string => bytes32)",
						"numberOfBytes": "32",
						"value": "t_bytes32"
					},
					"t_string_memory_ptr": {
						"encoding": "bytes",
						"label": "string",
						"numberOfBytes": "32"
					}
				}
			},
			"userdoc": {
				"kind": "user",
				"methods": {},
				"version": 1
			}
		}
	}
}