{
	"contracts/7_math.sol": {
		"maths": {
			"abi": [
				{
					"inputs": [
						{
							"internalType": "uint256",
							"name": "x",
							"type": "uint256"
						},
						{
							"internalType": "uint256",
							"name": "y",
							"type": "uint256"
						},
						{
							"internalType": "uint256",
							"name": "k",
							"type": "uint256"
						}
					],
					"name": "_addmod",
					"outputs": [
						{
							"internalType": "uint256",
							"name": "",
							"type": "uint256"
						},
						{
							"internalType": "uint256",
							"name": "",
							"type": "uint256"
						}
					],
					"stateMutability": "pure",
					"type": "function"
				},
				{
					"inputs": [
						{
							"internalType": "uint256",
							"name": "x",
							"type": "uint256"
						},
						{
							"internalType": "uint256",
							"name": "y",
							"type": "uint256"
						},
						{
							"internalType": "uint256",
							"name": "k",
							"type": "uint256"
						}
					],
					"name": "_mulmod",
					"outputs": [
						{
							"internalType": "uint256",
							"name": "",
							"type": "uint256"
						},
						{
							"internalType": "uint256",
							"name": "",
							"type": "uint256"
						}
					],
					"stateMutability": "pure",
					"type": "function"
				},
				{
					"inputs": [
						{
							"internalType": "uint256",
							"name": "a",
							"type": "uint256"
						},
						{
							"internalType": "uint256",
							"name": "b",
							"type": "uint256"
						}
					],
					"name": "divi",
					"outputs": [
						{
							"internalType": "uint256",
							"name": "",
							"type": "uint256"
						}
					],
					"stateMutability": "pure",
					"type": "function"
				},
				{
					"inputs": [
						{
							"internalType": "uint256",
							"name": "a",
							"type": "uint256"
						},
						{
							"internalType": "uint256",
							"name": "b",
							"type": "uint256"
						}
					],
					"name": "exp",
					"outputs": [
						{
							"internalType": "uint256",
							"name": "",
							"type": "uint256"
						}
					],
					"stateMutability": "pure",
					"type": "function"
				},
				{
					"inputs": [
						{
							"internalType": "uint256",
							"name": "a",
							"type": "uint256"
						},
						{
							"internalType": "uint256",
							"name": "b",
							"type": "uint256"
						}
					],
					"name": "mod",
					"outputs": [
						{
							"internalType": "uint256",
							"name": "",
							"type": "uint256"
						}
					],
					"stateMutability": "pure",
					"type": "function"
				},
				{
					"inputs": [
						{
							"internalType": "uint256",
							"name": "a",
							"type": "uint256"
						},
						{
							"internalType": "uint256",
							"name": "b",
							"type": "uint256"
						}
					],
					"name": "resta",
					"outputs": [
						{
							"internalType": "uint256",
							"name": "",
							"type": "uint256"
						}
					],
					"stateMutability": "pure",
					"type": "function"
				},
				{
					"inputs": [
						{
							"internalType": "uint256",
							"name": "a",
							"type": "uint256"
						},
						{
							"internalType": "uint256",
							"name": "b",
							"type": "uint256"
						}
					],
					"name": "suma",
					"outputs": [
						{
							"internalType": "uint256",
							"name": "",
							"type": "uint256"
						}
					],
					"stateMutability": "pure",
					"type": "function"
				}
			],
			"devdoc": {
				"kind": "dev",
				"methods": {},
				"version": 1
			},
			"evm": {
				"assembly": "    /* \"contracts/7_math.sol\":60:861  contract maths {\r... */\n  mstore(0x40, 0x80)\n  callvalue\n  dup1\n  iszero\n  tag_1\n  jumpi\n  0x00\n  dup1\n  revert\ntag_1:\n  pop\n  dataSize(sub_0)\n  dup1\n  dataOffset(sub_0)\n  0x00\n  codecopy\n  0x00\n  return\nstop\n\nsub_0: assembly {\n        /* \"contracts/7_math.sol\":60:861  contract maths {\r... */\n      mstore(0x40, 0x80)\n      callvalue\n      dup1\n      iszero\n      tag_1\n      jumpi\n      0x00\n      dup1\n      revert\n    tag_1:\n      pop\n      jumpi(tag_2, lt(calldatasize, 0x04))\n      shr(0xe0, calldataload(0x00))\n      dup1\n      0xb1b45b1b\n      gt\n      tag_10\n      jumpi\n      dup1\n      0xb1b45b1b\n      eq\n      tag_6\n      jumpi\n      dup1\n      0xdd125e37\n      eq\n      tag_7\n      jumpi\n      dup1\n      0xf43f523a\n      eq\n      tag_8\n      jumpi\n      dup1\n      0xf5f565f8\n      eq\n      tag_9\n      jumpi\n      jump(tag_2)\n    tag_10:\n      dup1\n      0x52f294bc\n      eq\n      tag_3\n      jumpi\n      dup1\n      0x5f1f7855\n      eq\n      tag_4\n      jumpi\n      dup1\n      0x871f9af4\n      eq\n      tag_5\n      jumpi\n    tag_2:\n      0x00\n      dup1\n      revert\n        /* \"contracts/7_math.sol\":180:269  function resta(uint a, uint b) public pure returns (uint) {\r... */\n    tag_3:\n      tag_11\n      0x04\n      dup1\n      calldatasize\n      sub\n      dup2\n      add\n      swap1\n      tag_12\n      swap2\n      swap1\n      tag_13\n      jump\t// in\n    tag_12:\n      tag_14\n      jump\t// in\n    tag_11:\n      mload(0x40)\n      tag_15\n      swap2\n      swap1\n      tag_16\n      jump\t// in\n    tag_15:\n      mload(0x40)\n      dup1\n      swap2\n      sub\n      swap1\n      return\n        /* \"contracts/7_math.sol\":277:365  function divi(uint a, uint b) public pure returns (uint) {\r... */\n    tag_4:\n      tag_17\n      0x04\n      dup1\n      calldatasize\n      sub\n      dup2\n      add\n      swap1\n      tag_18\n      swap2\n      swap1\n      tag_13\n      jump\t// in\n    tag_18:\n      tag_19\n      jump\t// in\n    tag_17:\n      mload(0x40)\n      tag_20\n      swap2\n      swap1\n      tag_16\n      jump\t// in\n    tag_20:\n      mload(0x40)\n      dup1\n      swap2\n      sub\n      swap1\n      return\n        /* \"contracts/7_math.sol\":732:856  function _mulmod(uint x, uint y, uint k) public pure returns (uint, uint) {\r... */\n    tag_5:\n      tag_21\n      0x04\n      dup1\n      calldatasize\n      sub\n      dup2\n      add\n      swap1\n      tag_22\n      swap2\n      swap1\n      tag_23\n      jump\t// in\n    tag_22:\n      tag_24\n      jump\t// in\n    tag_21:\n      mload(0x40)\n      tag_25\n      swap3\n      swap2\n      swap1\n      tag_26\n      jump\t// in\n    tag_25:\n      mload(0x40)\n      dup1\n      swap2\n      sub\n      swap1\n      return\n        /* \"contracts/7_math.sol\":84:172  function suma(uint a, uint b) public pure returns (uint) {\r... */\n    tag_6:\n      tag_27\n      0x04\n      dup1\n      calldatasize\n      sub\n      dup2\n      add\n      swap1\n      tag_28\n      swap2\n      swap1\n      tag_13\n      jump\t// in\n    tag_28:\n      tag_29\n      jump\t// in\n    tag_27:\n      mload(0x40)\n      tag_30\n      swap2\n      swap1\n      tag_16\n      jump\t// in\n    tag_30:\n      mload(0x40)\n      dup1\n      swap2\n      sub\n      swap1\n      return\n        /* \"contracts/7_math.sol\":581:705  function _addmod(uint x, uint y, uint k) public pure returns (uint, uint) {\r... */\n    tag_7:\n      tag_31\n      0x04\n      dup1\n      calldatasize\n      sub\n      dup2\n      add\n      swap1\n      tag_32\n      swap2\n      swap1\n      tag_23\n      jump\t// in\n    tag_32:\n      tag_33\n      jump\t// in\n    tag_31:\n      mload(0x40)\n      tag_34\n      swap3\n      swap2\n      swap1\n      tag_26\n      jump\t// in\n    tag_34:\n      mload(0x40)\n      dup1\n      swap2\n      sub\n      swap1\n      return\n        /* \"contracts/7_math.sol\":469:556  function mod(uint a, uint b) public pure returns (uint) {\r... */\n    tag_8:\n      tag_35\n      0x04\n      dup1\n      calldatasize\n      sub\n      dup2\n      add\n      swap1\n      tag_36\n      swap2\n      swap1\n      tag_13\n      jump\t// in\n    tag_36:\n      tag_37\n      jump\t// in\n    tag_35:\n      mload(0x40)\n      tag_38\n      swap2\n      swap1\n      tag_16\n      jump\t// in\n    tag_38:\n      mload(0x40)\n      dup1\n      swap2\n      sub\n      swap1\n      return\n        /* \"contracts/7_math.sol\":373:461  function exp(uint a, uint b) public pure returns (uint) {\r... */\n    tag_9:\n      tag_39\n      0x04\n      dup1\n      calldatasize\n      sub\n      dup2\n      add\n      swap1\n      tag_40\n      swap2\n      swap1\n      tag_13\n      jump\t// in\n    tag_40:\n      tag_41\n      jump\t// in\n    tag_39:\n      mload(0x40)\n      tag_42\n      swap2\n      swap1\n      tag_16\n      jump\t// in\n    tag_42:\n      mload(0x40)\n      dup1\n      swap2\n      sub\n      swap1\n      return\n        /* \"contracts/7_math.sol\":180:269  function resta(uint a, uint b) public pure returns (uint) {\r... */\n    tag_14:\n        /* \"contracts/7_math.sol\":232:236  uint */\n      0x00\n        /* \"contracts/7_math.sol\":260:261  b */\n      dup2\n        /* \"contracts/7_math.sol\":256:257  a */\n      dup4\n        /* \"contracts/7_math.sol\":256:261  a - b */\n      tag_44\n      swap2\n      swap1\n      tag_45\n      jump\t// in\n    tag_44:\n        /* \"contracts/7_math.sol\":249:261  return a - b */\n      swap1\n      pop\n        /* \"contracts/7_math.sol\":180:269  function resta(uint a, uint b) public pure returns (uint) {\r... */\n      swap3\n      swap2\n      pop\n      pop\n      jump\t// out\n        /* \"contracts/7_math.sol\":277:365  function divi(uint a, uint b) public pure returns (uint) {\r... */\n    tag_19:\n        /* \"contracts/7_math.sol\":328:332  uint */\n      0x00\n        /* \"contracts/7_math.sol\":356:357  b */\n      dup2\n        /* \"contracts/7_math.sol\":352:353  a */\n      dup4\n        /* \"contracts/7_math.sol\":352:357  a / b */\n      tag_47\n      swap2\n      swap1\n      tag_48\n      jump\t// in\n    tag_47:\n        /* \"contracts/7_math.sol\":345:357  return a / b */\n      swap1\n      pop\n        /* \"contracts/7_math.sol\":277:365  function divi(uint a, uint b) public pure returns (uint) {\r... */\n      swap3\n      swap2\n      pop\n      pop\n      jump\t// out\n        /* \"contracts/7_math.sol\":732:856  function _mulmod(uint x, uint y, uint k) public pure returns (uint, uint) {\r... */\n    tag_24:\n        /* \"contracts/7_math.sol\":794:798  uint */\n      0x00\n        /* \"contracts/7_math.sol\":800:804  uint */\n      dup1\n        /* \"contracts/7_math.sol\":836:837  k */\n      dup3\n        /* \"contracts/7_math.sol\":825:838  mulmod(x,y,k) */\n      dup1\n      tag_50\n      jumpi\n      mstore(0x00, 0x4e487b7100000000000000000000000000000000000000000000000000000000)\n      mstore(0x04, 0x12)\n      revert(0x00, 0x24)\n    tag_50:\n        /* \"contracts/7_math.sol\":834:835  y */\n      dup5\n        /* \"contracts/7_math.sol\":832:833  x */\n      dup7\n        /* \"contracts/7_math.sol\":825:838  mulmod(x,y,k) */\n      mulmod\n        /* \"contracts/7_math.sol\":846:847  k */\n      dup4\n        /* \"contracts/7_math.sol\":843:844  y */\n      dup6\n        /* \"contracts/7_math.sol\":841:842  x */\n      dup8\n        /* \"contracts/7_math.sol\":841:844  x*y */\n      tag_51\n      swap2\n      swap1\n      tag_52\n      jump\t// in\n    tag_51:\n        /* \"contracts/7_math.sol\":840:847  (x*y)%k */\n      tag_53\n      swap2\n      swap1\n      tag_54\n      jump\t// in\n    tag_53:\n        /* \"contracts/7_math.sol\":817:848  return (mulmod(x,y,k), (x*y)%k) */\n      swap2\n      pop\n      swap2\n      pop\n        /* \"contracts/7_math.sol\":732:856  function _mulmod(uint x, uint y, uint k) public pure returns (uint, uint) {\r... */\n      swap4\n      pop\n      swap4\n      swap2\n      pop\n      pop\n      jump\t// out\n        /* \"contracts/7_math.sol\":84:172  function suma(uint a, uint b) public pure returns (uint) {\r... */\n    tag_29:\n        /* \"contracts/7_math.sol\":135:139  uint */\n      0x00\n        /* \"contracts/7_math.sol\":163:164  b */\n      dup2\n        /* \"contracts/7_math.sol\":159:160  a */\n      dup4\n        /* \"contracts/7_math.sol\":159:164  a + b */\n      tag_56\n      swap2\n      swap1\n      tag_57\n      jump\t// in\n    tag_56:\n        /* \"contracts/7_math.sol\":152:164  return a + b */\n      swap1\n      pop\n        /* \"contracts/7_math.sol\":84:172  function suma(uint a, uint b) public pure returns (uint) {\r... */\n      swap3\n      swap2\n      pop\n      pop\n      jump\t// out\n        /* \"contracts/7_math.sol\":581:705  function _addmod(uint x, uint y, uint k) public pure returns (uint, uint) {\r... */\n    tag_33:\n        /* \"contracts/7_math.sol\":643:647  uint */\n      0x00\n        /* \"contracts/7_math.sol\":649:653  uint */\n      dup1\n        /* \"contracts/7_math.sol\":685:686  k */\n      dup3\n        /* \"contracts/7_math.sol\":674:687  addmod(x,y,k) */\n      dup1\n      tag_59\n      jumpi\n      mstore(0x00, 0x4e487b7100000000000000000000000000000000000000000000000000000000)\n      mstore(0x04, 0x12)\n      revert(0x00, 0x24)\n    tag_59:\n        /* \"contracts/7_math.sol\":683:684  y */\n      dup5\n        /* \"contracts/7_math.sol\":681:682  x */\n      dup7\n        /* \"contracts/7_math.sol\":674:687  addmod(x,y,k) */\n      addmod\n        /* \"contracts/7_math.sol\":695:696  k */\n      dup4\n        /* \"contracts/7_math.sol\":692:693  y */\n      dup6\n        /* \"contracts/7_math.sol\":690:691  x */\n      dup8\n        /* \"contracts/7_math.sol\":690:693  x+y */\n      tag_60\n      swap2\n      swap1\n      tag_57\n      jump\t// in\n    tag_60:\n        /* \"contracts/7_math.sol\":689:696  (x+y)%k */\n      tag_61\n      swap2\n      swap1\n      tag_54\n      jump\t// in\n    tag_61:\n        /* \"contracts/7_math.sol\":666:697  return (addmod(x,y,k), (x+y)%k) */\n      swap2\n      pop\n      swap2\n      pop\n        /* \"contracts/7_math.sol\":581:705  function _addmod(uint x, uint y, uint k) public pure returns (uint, uint) {\r... */\n      swap4\n      pop\n      swap4\n      swap2\n      pop\n      pop\n      jump\t// out\n        /* \"contracts/7_math.sol\":469:556  function mod(uint a, uint b) public pure returns (uint) {\r... */\n    tag_37:\n        /* \"contracts/7_math.sol\":519:523  uint */\n      0x00\n        /* \"contracts/7_math.sol\":547:548  b */\n      dup2\n        /* \"contracts/7_math.sol\":543:544  a */\n      dup4\n        /* \"contracts/7_math.sol\":543:548  a % b */\n      tag_63\n      swap2\n      swap1\n      tag_54\n      jump\t// in\n    tag_63:\n        /* \"contracts/7_math.sol\":536:548  return a % b */\n      swap1\n      pop\n        /* \"contracts/7_math.sol\":469:556  function mod(uint a, uint b) public pure returns (uint) {\r... */\n      swap3\n      swap2\n      pop\n      pop\n      jump\t// out\n        /* \"contracts/7_math.sol\":373:461  function exp(uint a, uint b) public pure returns (uint) {\r... */\n    tag_41:\n        /* \"contracts/7_math.sol\":423:427  uint */\n      0x00\n        /* \"contracts/7_math.sol\":452:453  b */\n      dup2\n        /* \"contracts/7_math.sol\":447:448  a */\n      dup4\n        /* \"contracts/7_math.sol\":447:453  a ** b */\n      tag_65\n      swap2\n      swap1\n      tag_66\n      jump\t// in\n    tag_65:\n        /* \"contracts/7_math.sol\":440:453  return a ** b */\n      swap1\n      pop\n        /* \"contracts/7_math.sol\":373:461  function exp(uint a, uint b) public pure returns (uint) {\r... */\n      swap3\n      swap2\n      pop\n      pop\n      jump\t// out\n        /* \"#utility.yul\":7:146   */\n    tag_68:\n        /* \"#utility.yul\":53:58   */\n      0x00\n        /* \"#utility.yul\":91:97   */\n      dup2\n        /* \"#utility.yul\":78:98   */\n      calldataload\n        /* \"#utility.yul\":69:98   */\n      swap1\n      pop\n        /* \"#utility.yul\":107:140   */\n      tag_70\n        /* \"#utility.yul\":134:139   */\n      dup2\n        /* \"#utility.yul\":107:140   */\n      tag_71\n      jump\t// in\n    tag_70:\n        /* \"#utility.yul\":59:146   */\n      swap3\n      swap2\n      pop\n      pop\n      jump\t// out\n        /* \"#utility.yul\":152:559   */\n    tag_13:\n        /* \"#utility.yul\":220:226   */\n      0x00\n        /* \"#utility.yul\":228:234   */\n      dup1\n        /* \"#utility.yul\":277:279   */\n      0x40\n        /* \"#utility.yul\":265:274   */\n      dup4\n        /* \"#utility.yul\":256:263   */\n      dup6\n        /* \"#utility.yul\":252:275   */\n      sub\n        /* \"#utility.yul\":248:280   */\n      slt\n        /* \"#utility.yul\":245:247   */\n      iszero\n      tag_73\n      jumpi\n        /* \"#utility.yul\":293:294   */\n      0x00\n        /* \"#utility.yul\":290:291   */\n      dup1\n        /* \"#utility.yul\":283:295   */\n      revert\n        /* \"#utility.yul\":245:247   */\n    tag_73:\n        /* \"#utility.yul\":336:337   */\n      0x00\n        /* \"#utility.yul\":361:414   */\n      tag_74\n        /* \"#utility.yul\":406:413   */\n      dup6\n        /* \"#utility.yul\":397:403   */\n      dup3\n        /* \"#utility.yul\":386:395   */\n      dup7\n        /* \"#utility.yul\":382:404   */\n      add\n        /* \"#utility.yul\":361:414   */\n      tag_68\n      jump\t// in\n    tag_74:\n        /* \"#utility.yul\":351:414   */\n      swap3\n      pop\n        /* \"#utility.yul\":307:424   */\n      pop\n        /* \"#utility.yul\":463:465   */\n      0x20\n        /* \"#utility.yul\":489:542   */\n      tag_75\n        /* \"#utility.yul\":534:541   */\n      dup6\n        /* \"#utility.yul\":525:531   */\n      dup3\n        /* \"#utility.yul\":514:523   */\n      dup7\n        /* \"#utility.yul\":510:532   */\n      add\n        /* \"#utility.yul\":489:542   */\n      tag_68\n      jump\t// in\n    tag_75:\n        /* \"#utility.yul\":479:542   */\n      swap2\n      pop\n        /* \"#utility.yul\":434:552   */\n      pop\n        /* \"#utility.yul\":235:559   */\n      swap3\n      pop\n      swap3\n      swap1\n      pop\n      jump\t// out\n        /* \"#utility.yul\":565:1117   */\n    tag_23:\n        /* \"#utility.yul\":642:648   */\n      0x00\n        /* \"#utility.yul\":650:656   */\n      dup1\n        /* \"#utility.yul\":658:664   */\n      0x00\n        /* \"#utility.yul\":707:709   */\n      0x60\n        /* \"#utility.yul\":695:704   */\n      dup5\n        /* \"#utility.yul\":686:693   */\n      dup7\n        /* \"#utility.yul\":682:705   */\n      sub\n        /* \"#utility.yul\":678:710   */\n      slt\n        /* \"#utility.yul\":675:677   */\n      iszero\n      tag_77\n      jumpi\n        /* \"#utility.yul\":723:724   */\n      0x00\n        /* \"#utility.yul\":720:721   */\n      dup1\n        /* \"#utility.yul\":713:725   */\n      revert\n        /* \"#utility.yul\":675:677   */\n    tag_77:\n        /* \"#utility.yul\":766:767   */\n      0x00\n        /* \"#utility.yul\":791:844   */\n      tag_78\n        /* \"#utility.yul\":836:843   */\n      dup7\n        /* \"#utility.yul\":827:833   */\n      dup3\n        /* \"#utility.yul\":816:825   */\n      dup8\n        /* \"#utility.yul\":812:834   */\n      add\n        /* \"#utility.yul\":791:844   */\n      tag_68\n      jump\t// in\n    tag_78:\n        /* \"#utility.yul\":781:844   */\n      swap4\n      pop\n        /* \"#utility.yul\":737:854   */\n      pop\n        /* \"#utility.yul\":893:895   */\n      0x20\n        /* \"#utility.yul\":919:972   */\n      tag_79\n        /* \"#utility.yul\":964:971   */\n      dup7\n        /* \"#utility.yul\":955:961   */\n      dup3\n        /* \"#utility.yul\":944:953   */\n      dup8\n        /* \"#utility.yul\":940:962   */\n      add\n        /* \"#utility.yul\":919:972   */\n      tag_68\n      jump\t// in\n    tag_79:\n        /* \"#utility.yul\":909:972   */\n      swap3\n      pop\n        /* \"#utility.yul\":864:982   */\n      pop\n        /* \"#utility.yul\":1021:1023   */\n      0x40\n        /* \"#utility.yul\":1047:1100   */\n      tag_80\n        /* \"#utility.yul\":1092:1099   */\n      dup7\n        /* \"#utility.yul\":1083:1089   */\n      dup3\n        /* \"#utility.yul\":1072:1081   */\n      dup8\n        /* \"#utility.yul\":1068:1090   */\n      add\n        /* \"#utility.yul\":1047:1100   */\n      tag_68\n      jump\t// in\n    tag_80:\n        /* \"#utility.yul\":1037:1100   */\n      swap2\n      pop\n        /* \"#utility.yul\":992:1110   */\n      pop\n        /* \"#utility.yul\":665:1117   */\n      swap3\n      pop\n      swap3\n      pop\n      swap3\n      jump\t// out\n        /* \"#utility.yul\":1123:1241   */\n    tag_81:\n        /* \"#utility.yul\":1210:1234   */\n      tag_83\n        /* \"#utility.yul\":1228:1233   */\n      dup2\n        /* \"#utility.yul\":1210:1234   */\n      tag_84\n      jump\t// in\n    tag_83:\n        /* \"#utility.yul\":1205:1208   */\n      dup3\n        /* \"#utility.yul\":1198:1235   */\n      mstore\n        /* \"#utility.yul\":1188:1241   */\n      pop\n      pop\n      jump\t// out\n        /* \"#utility.yul\":1247:1469   */\n    tag_16:\n        /* \"#utility.yul\":1340:1344   */\n      0x00\n        /* \"#utility.yul\":1378:1380   */\n      0x20\n        /* \"#utility.yul\":1367:1376   */\n      dup3\n        /* \"#utility.yul\":1363:1381   */\n      add\n        /* \"#utility.yul\":1355:1381   */\n      swap1\n      pop\n        /* \"#utility.yul\":1391:1462   */\n      tag_86\n        /* \"#utility.yul\":1459:1460   */\n      0x00\n        /* \"#utility.yul\":1448:1457   */\n      dup4\n        /* \"#utility.yul\":1444:1461   */\n      add\n        /* \"#utility.yul\":1435:1441   */\n      dup5\n        /* \"#utility.yul\":1391:1462   */\n      tag_81\n      jump\t// in\n    tag_86:\n        /* \"#utility.yul\":1345:1469   */\n      swap3\n      swap2\n      pop\n      pop\n      jump\t// out\n        /* \"#utility.yul\":1475:1807   */\n    tag_26:\n        /* \"#utility.yul\":1596:1600   */\n      0x00\n        /* \"#utility.yul\":1634:1636   */\n      0x40\n        /* \"#utility.yul\":1623:1632   */\n      dup3\n        /* \"#utility.yul\":1619:1637   */\n      add\n        /* \"#utility.yul\":1611:1637   */\n      swap1\n      pop\n        /* \"#utility.yul\":1647:1718   */\n      tag_88\n        /* \"#utility.yul\":1715:1716   */\n      0x00\n        /* \"#utility.yul\":1704:1713   */\n      dup4\n        /* \"#utility.yul\":1700:1717   */\n      add\n        /* \"#utility.yul\":1691:1697   */\n      dup6\n        /* \"#utility.yul\":1647:1718   */\n      tag_81\n      jump\t// in\n    tag_88:\n        /* \"#utility.yul\":1728:1800   */\n      tag_89\n        /* \"#utility.yul\":1796:1798   */\n      0x20\n        /* \"#utility.yul\":1785:1794   */\n      dup4\n        /* \"#utility.yul\":1781:1799   */\n      add\n        /* \"#utility.yul\":1772:1778   */\n      dup5\n        /* \"#utility.yul\":1728:1800   */\n      tag_81\n      jump\t// in\n    tag_89:\n        /* \"#utility.yul\":1601:1807   */\n      swap4\n      swap3\n      pop\n      pop\n      pop\n      jump\t// out\n        /* \"#utility.yul\":1813:2118   */\n    tag_57:\n        /* \"#utility.yul\":1853:1856   */\n      0x00\n        /* \"#utility.yul\":1872:1892   */\n      tag_91\n        /* \"#utility.yul\":1890:1891   */\n      dup3\n        /* \"#utility.yul\":1872:1892   */\n      tag_84\n      jump\t// in\n    tag_91:\n        /* \"#utility.yul\":1867:1892   */\n      swap2\n      pop\n        /* \"#utility.yul\":1906:1926   */\n      tag_92\n        /* \"#utility.yul\":1924:1925   */\n      dup4\n        /* \"#utility.yul\":1906:1926   */\n      tag_84\n      jump\t// in\n    tag_92:\n        /* \"#utility.yul\":1901:1926   */\n      swap3\n      pop\n        /* \"#utility.yul\":2060:2061   */\n      dup3\n        /* \"#utility.yul\":1992:2058   */\n      0xffffffffffffffffffffffffffffffffffffffffffffffffffffffffffffffff\n        /* \"#utility.yul\":1988:2062   */\n      sub\n        /* \"#utility.yul\":1985:1986   */\n      dup3\n        /* \"#utility.yul\":1982:2063   */\n      gt\n        /* \"#utility.yul\":1979:1981   */\n      iszero\n      tag_93\n      jumpi\n        /* \"#utility.yul\":2066:2084   */\n      tag_94\n      tag_95\n      jump\t// in\n    tag_94:\n        /* \"#utility.yul\":1979:1981   */\n    tag_93:\n        /* \"#utility.yul\":2110:2111   */\n      dup3\n        /* \"#utility.yul\":2107:2108   */\n      dup3\n        /* \"#utility.yul\":2103:2112   */\n      add\n        /* \"#utility.yul\":2096:2112   */\n      swap1\n      pop\n        /* \"#utility.yul\":1857:2118   */\n      swap3\n      swap2\n      pop\n      pop\n      jump\t// out\n        /* \"#utility.yul\":2124:2309   */\n    tag_48:\n        /* \"#utility.yul\":2164:2165   */\n      0x00\n        /* \"#utility.yul\":2181:2201   */\n      tag_97\n        /* \"#utility.yul\":2199:2200   */\n      dup3\n        /* \"#utility.yul\":2181:2201   */\n      tag_84\n      jump\t// in\n    tag_97:\n        /* \"#utility.yul\":2176:2201   */\n      swap2\n      pop\n        /* \"#utility.yul\":2215:2235   */\n      tag_98\n        /* \"#utility.yul\":2233:2234   */\n      dup4\n        /* \"#utility.yul\":2215:2235   */\n      tag_84\n      jump\t// in\n    tag_98:\n        /* \"#utility.yul\":2210:2235   */\n      swap3\n      pop\n        /* \"#utility.yul\":2254:2255   */\n      dup3\n        /* \"#utility.yul\":2244:2246   */\n      tag_99\n      jumpi\n        /* \"#utility.yul\":2259:2277   */\n      tag_100\n      tag_101\n      jump\t// in\n    tag_100:\n        /* \"#utility.yul\":2244:2246   */\n    tag_99:\n        /* \"#utility.yul\":2301:2302   */\n      dup3\n        /* \"#utility.yul\":2298:2299   */\n      dup3\n        /* \"#utility.yul\":2294:2303   */\n      div\n        /* \"#utility.yul\":2289:2303   */\n      swap1\n      pop\n        /* \"#utility.yul\":2166:2309   */\n      swap3\n      swap2\n      pop\n      pop\n      jump\t// out\n        /* \"#utility.yul\":2315:3163   */\n    tag_102:\n        /* \"#utility.yul\":2376:2381   */\n      0x00\n        /* \"#utility.yul\":2383:2387   */\n      dup1\n        /* \"#utility.yul\":2407:2413   */\n      dup3\n        /* \"#utility.yul\":2398:2413   */\n      swap2\n      pop\n        /* \"#utility.yul\":2431:2436   */\n      dup4\n        /* \"#utility.yul\":2422:2436   */\n      swap1\n      pop\n        /* \"#utility.yul\":2445:3157   */\n    tag_104:\n        /* \"#utility.yul\":2466:2467   */\n      0x01\n        /* \"#utility.yul\":2456:2464   */\n      dup6\n        /* \"#utility.yul\":2453:2468   */\n      gt\n        /* \"#utility.yul\":2445:3157   */\n      iszero\n      tag_106\n      jumpi\n        /* \"#utility.yul\":2561:2565   */\n      dup1\n        /* \"#utility.yul\":2556:2559   */\n      dup7\n        /* \"#utility.yul\":2552:2566   */\n      div\n        /* \"#utility.yul\":2546:2550   */\n      dup2\n        /* \"#utility.yul\":2543:2567   */\n      gt\n        /* \"#utility.yul\":2540:2542   */\n      iszero\n      tag_107\n      jumpi\n        /* \"#utility.yul\":2570:2588   */\n      tag_108\n      tag_95\n      jump\t// in\n    tag_108:\n        /* \"#utility.yul\":2540:2542   */\n    tag_107:\n        /* \"#utility.yul\":2620:2621   */\n      0x01\n        /* \"#utility.yul\":2610:2618   */\n      dup6\n        /* \"#utility.yul\":2606:2622   */\n      and\n        /* \"#utility.yul\":2603:2605   */\n      iszero\n      tag_109\n      jumpi\n        /* \"#utility.yul\":3035:3039   */\n      dup1\n        /* \"#utility.yul\":3028:3033   */\n      dup3\n        /* \"#utility.yul\":3024:3040   */\n      mul\n        /* \"#utility.yul\":3015:3040   */\n      swap2\n      pop\n        /* \"#utility.yul\":2603:2605   */\n    tag_109:\n        /* \"#utility.yul\":3085:3089   */\n      dup1\n        /* \"#utility.yul\":3079:3083   */\n      dup2\n        /* \"#utility.yul\":3075:3090   */\n      mul\n        /* \"#utility.yul\":3067:3090   */\n      swap1\n      pop\n        /* \"#utility.yul\":3115:3147   */\n      tag_110\n        /* \"#utility.yul\":3138:3146   */\n      dup6\n        /* \"#utility.yul\":3115:3147   */\n      tag_111\n      jump\t// in\n    tag_110:\n        /* \"#utility.yul\":3103:3147   */\n      swap5\n      pop\n        /* \"#utility.yul\":2445:3157   */\n      jump(tag_104)\n    tag_106:\n        /* \"#utility.yul\":2388:3163   */\n      swap5\n      pop\n      swap5\n      swap3\n      pop\n      pop\n      pop\n      jump\t// out\n        /* \"#utility.yul\":3169:3454   */\n    tag_66:\n        /* \"#utility.yul\":3229:3234   */\n      0x00\n        /* \"#utility.yul\":3253:3276   */\n      tag_113\n        /* \"#utility.yul\":3271:3275   */\n      dup3\n        /* \"#utility.yul\":3253:3276   */\n      tag_84\n      jump\t// in\n    tag_113:\n        /* \"#utility.yul\":3245:3276   */\n      swap2\n      pop\n        /* \"#utility.yul\":3297:3324   */\n      tag_114\n        /* \"#utility.yul\":3315:3323   */\n      dup4\n        /* \"#utility.yul\":3297:3324   */\n      tag_84\n      jump\t// in\n    tag_114:\n        /* \"#utility.yul\":3285:3324   */\n      swap3\n      pop\n        /* \"#utility.yul\":3343:3447   */\n      tag_115\n        /* \"#utility.yul\":3380:3446   */\n      0xffffffffffffffffffffffffffffffffffffffffffffffffffffffffffffffff\n        /* \"#utility.yul\":3370:3378   */\n      dup5\n        /* \"#utility.yul\":3364:3368   */\n      dup5\n        /* \"#utility.yul\":3343:3447   */\n      tag_116\n      jump\t// in\n    tag_115:\n        /* \"#utility.yul\":3334:3447   */\n      swap1\n      pop\n        /* \"#utility.yul\":3235:3454   */\n      swap3\n      swap2\n      pop\n      pop\n      jump\t// out\n        /* \"#utility.yul\":3460:4533   */\n    tag_116:\n        /* \"#utility.yul\":3514:3519   */\n      0x00\n        /* \"#utility.yul\":3705:3713   */\n      dup3\n        /* \"#utility.yul\":3695:3697   */\n      tag_118\n      jumpi\n        /* \"#utility.yul\":3726:3727   */\n      0x01\n        /* \"#utility.yul\":3717:3727   */\n      swap1\n      pop\n        /* \"#utility.yul\":3728:3733   */\n      jump(tag_117)\n        /* \"#utility.yul\":3695:3697   */\n    tag_118:\n        /* \"#utility.yul\":3754:3758   */\n      dup2\n        /* \"#utility.yul\":3744:3746   */\n      tag_119\n      jumpi\n        /* \"#utility.yul\":3771:3772   */\n      0x00\n        /* \"#utility.yul\":3762:3772   */\n      swap1\n      pop\n        /* \"#utility.yul\":3773:3778   */\n      jump(tag_117)\n        /* \"#utility.yul\":3744:3746   */\n    tag_119:\n        /* \"#utility.yul\":3840:3844   */\n      dup2\n        /* \"#utility.yul\":3888:3889   */\n      0x01\n        /* \"#utility.yul\":3883:3910   */\n      dup2\n      eq\n      tag_121\n      jumpi\n        /* \"#utility.yul\":3924:3925   */\n      0x02\n        /* \"#utility.yul\":3919:4110   */\n      dup2\n      eq\n      tag_122\n      jumpi\n        /* \"#utility.yul\":3833:4110   */\n      jump(tag_120)\n        /* \"#utility.yul\":3883:3910   */\n    tag_121:\n        /* \"#utility.yul\":3901:3902   */\n      0x01\n        /* \"#utility.yul\":3892:3902   */\n      swap2\n      pop\n        /* \"#utility.yul\":3903:3908   */\n      pop\n      jump(tag_117)\n        /* \"#utility.yul\":3919:4110   */\n    tag_122:\n        /* \"#utility.yul\":3964:3967   */\n      0xff\n        /* \"#utility.yul\":3954:3962   */\n      dup5\n        /* \"#utility.yul\":3951:3968   */\n      gt\n        /* \"#utility.yul\":3948:3950   */\n      iszero\n      tag_123\n      jumpi\n        /* \"#utility.yul\":3971:3989   */\n      tag_124\n      tag_95\n      jump\t// in\n    tag_124:\n        /* \"#utility.yul\":3948:3950   */\n    tag_123:\n        /* \"#utility.yul\":4020:4028   */\n      dup4\n        /* \"#utility.yul\":4017:4018   */\n      0x02\n        /* \"#utility.yul\":4013:4029   */\n      exp\n        /* \"#utility.yul\":4004:4029   */\n      swap2\n      pop\n        /* \"#utility.yul\":4055:4058   */\n      dup5\n        /* \"#utility.yul\":4048:4053   */\n      dup3\n        /* \"#utility.yul\":4045:4059   */\n      gt\n        /* \"#utility.yul\":4042:4044   */\n      iszero\n      tag_125\n      jumpi\n        /* \"#utility.yul\":4062:4080   */\n      tag_126\n      tag_95\n      jump\t// in\n    tag_126:\n        /* \"#utility.yul\":4042:4044   */\n    tag_125:\n        /* \"#utility.yul\":4095:4100   */\n      pop\n      jump(tag_117)\n        /* \"#utility.yul\":3833:4110   */\n    tag_120:\n      pop\n        /* \"#utility.yul\":4219:4221   */\n      0x20\n        /* \"#utility.yul\":4209:4217   */\n      dup4\n        /* \"#utility.yul\":4206:4222   */\n      lt\n        /* \"#utility.yul\":4200:4203   */\n      0x0133\n        /* \"#utility.yul\":4194:4198   */\n      dup4\n        /* \"#utility.yul\":4191:4204   */\n      lt\n        /* \"#utility.yul\":4187:4223   */\n      and\n        /* \"#utility.yul\":4169:4171   */\n      0x4e\n        /* \"#utility.yul\":4159:4167   */\n      dup5\n        /* \"#utility.yul\":4156:4172   */\n      lt\n        /* \"#utility.yul\":4151:4153   */\n      0x0b\n        /* \"#utility.yul\":4145:4149   */\n      dup5\n        /* \"#utility.yul\":4142:4154   */\n      lt\n        /* \"#utility.yul\":4138:4173   */\n      and\n        /* \"#utility.yul\":4122:4233   */\n      or\n        /* \"#utility.yul\":4119:4121   */\n      iszero\n      tag_127\n      jumpi\n        /* \"#utility.yul\":4275:4283   */\n      dup3\n        /* \"#utility.yul\":4269:4273   */\n      dup3\n        /* \"#utility.yul\":4265:4284   */\n      exp\n        /* \"#utility.yul\":4256:4284   */\n      swap1\n      pop\n        /* \"#utility.yul\":4310:4313   */\n      dup4\n        /* \"#utility.yul\":4303:4308   */\n      dup2\n        /* \"#utility.yul\":4300:4314   */\n      gt\n        /* \"#utility.yul\":4297:4299   */\n      iszero\n      tag_128\n      jumpi\n        /* \"#utility.yul\":4317:4335   */\n      tag_129\n      tag_95\n      jump\t// in\n    tag_129:\n        /* \"#utility.yul\":4297:4299   */\n    tag_128:\n        /* \"#utility.yul\":4350:4355   */\n      jump(tag_117)\n        /* \"#utility.yul\":4119:4121   */\n    tag_127:\n        /* \"#utility.yul\":4390:4432   */\n      tag_130\n        /* \"#utility.yul\":4428:4431   */\n      dup5\n        /* \"#utility.yul\":4418:4426   */\n      dup5\n        /* \"#utility.yul\":4412:4416   */\n      dup5\n        /* \"#utility.yul\":4409:4410   */\n      0x01\n        /* \"#utility.yul\":4390:4432   */\n      tag_102\n      jump\t// in\n    tag_130:\n        /* \"#utility.yul\":4375:4432   */\n      swap3\n      pop\n      swap1\n      pop\n        /* \"#utility.yul\":4464:4468   */\n      dup2\n        /* \"#utility.yul\":4459:4462   */\n      dup5\n        /* \"#utility.yul\":4455:4469   */\n      div\n        /* \"#utility.yul\":4448:4453   */\n      dup2\n        /* \"#utility.yul\":4445:4470   */\n      gt\n        /* \"#utility.yul\":4442:4444   */\n      iszero\n      tag_131\n      jumpi\n        /* \"#utility.yul\":4473:4491   */\n      tag_132\n      tag_95\n      jump\t// in\n    tag_132:\n        /* \"#utility.yul\":4442:4444   */\n    tag_131:\n        /* \"#utility.yul\":4522:4526   */\n      dup2\n        /* \"#utility.yul\":4515:4520   */\n      dup2\n        /* \"#utility.yul\":4511:4527   */\n      mul\n        /* \"#utility.yul\":4502:4527   */\n      swap1\n      pop\n        /* \"#utility.yul\":3520:4533   */\n    tag_117:\n      swap4\n      swap3\n      pop\n      pop\n      pop\n      jump\t// out\n        /* \"#utility.yul\":4539:4887   */\n    tag_52:\n        /* \"#utility.yul\":4579:4586   */\n      0x00\n        /* \"#utility.yul\":4602:4622   */\n      tag_134\n        /* \"#utility.yul\":4620:4621   */\n      dup3\n        /* \"#utility.yul\":4602:4622   */\n      tag_84\n      jump\t// in\n    tag_134:\n        /* \"#utility.yul\":4597:4622   */\n      swap2\n      pop\n        /* \"#utility.yul\":4636:4656   */\n      tag_135\n        /* \"#utility.yul\":4654:4655   */\n      dup4\n        /* \"#utility.yul\":4636:4656   */\n      tag_84\n      jump\t// in\n    tag_135:\n        /* \"#utility.yul\":4631:4656   */\n      swap3\n      pop\n        /* \"#utility.yul\":4824:4825   */\n      dup2\n        /* \"#utility.yul\":4756:4822   */\n      0xffffffffffffffffffffffffffffffffffffffffffffffffffffffffffffffff\n        /* \"#utility.yul\":4752:4826   */\n      div\n        /* \"#utility.yul\":4749:4750   */\n      dup4\n        /* \"#utility.yul\":4746:4827   */\n      gt\n        /* \"#utility.yul\":4741:4742   */\n      dup3\n        /* \"#utility.yul\":4734:4743   */\n      iszero\n        /* \"#utility.yul\":4727:4744   */\n      iszero\n        /* \"#utility.yul\":4723:4828   */\n      and\n        /* \"#utility.yul\":4720:4722   */\n      iszero\n      tag_136\n      jumpi\n        /* \"#utility.yul\":4831:4849   */\n      tag_137\n      tag_95\n      jump\t// in\n    tag_137:\n        /* \"#utility.yul\":4720:4722   */\n    tag_136:\n        /* \"#utility.yul\":4879:4880   */\n      dup3\n        /* \"#utility.yul\":4876:4877   */\n      dup3\n        /* \"#utility.yul\":4872:4881   */\n      mul\n        /* \"#utility.yul\":4861:4881   */\n      swap1\n      pop\n        /* \"#utility.yul\":4587:4887   */\n      swap3\n      swap2\n      pop\n      pop\n      jump\t// out\n        /* \"#utility.yul\":4893:5084   */\n    tag_45:\n        /* \"#utility.yul\":4933:4937   */\n      0x00\n        /* \"#utility.yul\":4953:4973   */\n      tag_139\n        /* \"#utility.yul\":4971:4972   */\n      dup3\n        /* \"#utility.yul\":4953:4973   */\n      tag_84\n      jump\t// in\n    tag_139:\n        /* \"#utility.yul\":4948:4973   */\n      swap2\n      pop\n        /* \"#utility.yul\":4987:5007   */\n      tag_140\n        /* \"#utility.yul\":5005:5006   */\n      dup4\n        /* \"#utility.yul\":4987:5007   */\n      tag_84\n      jump\t// in\n    tag_140:\n        /* \"#utility.yul\":4982:5007   */\n      swap3\n      pop\n        /* \"#utility.yul\":5026:5027   */\n      dup3\n        /* \"#utility.yul\":5023:5024   */\n      dup3\n        /* \"#utility.yul\":5020:5028   */\n      lt\n        /* \"#utility.yul\":5017:5019   */\n      iszero\n      tag_141\n      jumpi\n        /* \"#utility.yul\":5031:5049   */\n      tag_142\n      tag_95\n      jump\t// in\n    tag_142:\n        /* \"#utility.yul\":5017:5019   */\n    tag_141:\n        /* \"#utility.yul\":5076:5077   */\n      dup3\n        /* \"#utility.yul\":5073:5074   */\n      dup3\n        /* \"#utility.yul\":5069:5078   */\n      sub\n        /* \"#utility.yul\":5061:5078   */\n      swap1\n      pop\n        /* \"#utility.yul\":4938:5084   */\n      swap3\n      swap2\n      pop\n      pop\n      jump\t// out\n        /* \"#utility.yul\":5090:5167   */\n    tag_84:\n        /* \"#utility.yul\":5127:5134   */\n      0x00\n        /* \"#utility.yul\":5156:5161   */\n      dup2\n        /* \"#utility.yul\":5145:5161   */\n      swap1\n      pop\n        /* \"#utility.yul\":5135:5167   */\n      swap2\n      swap1\n      pop\n      jump\t// out\n        /* \"#utility.yul\":5173:5349   */\n    tag_54:\n        /* \"#utility.yul\":5205:5206   */\n      0x00\n        /* \"#utility.yul\":5222:5242   */\n      tag_145\n        /* \"#utility.yul\":5240:5241   */\n      dup3\n        /* \"#utility.yul\":5222:5242   */\n      tag_84\n      jump\t// in\n    tag_145:\n        /* \"#utility.yul\":5217:5242   */\n      swap2\n      pop\n        /* \"#utility.yul\":5256:5276   */\n      tag_146\n        /* \"#utility.yul\":5274:5275   */\n      dup4\n        /* \"#utility.yul\":5256:5276   */\n      tag_84\n      jump\t// in\n    tag_146:\n        /* \"#utility.yul\":5251:5276   */\n      swap3\n      pop\n        /* \"#utility.yul\":5295:5296   */\n      dup3\n        /* \"#utility.yul\":5285:5287   */\n      tag_147\n      jumpi\n        /* \"#utility.yul\":5300:5318   */\n      tag_148\n      tag_101\n      jump\t// in\n    tag_148:\n        /* \"#utility.yul\":5285:5287   */\n    tag_147:\n        /* \"#utility.yul\":5341:5342   */\n      dup3\n        /* \"#utility.yul\":5338:5339   */\n      dup3\n        /* \"#utility.yul\":5334:5343   */\n      mod\n        /* \"#utility.yul\":5329:5343   */\n      swap1\n      pop\n        /* \"#utility.yul\":5207:5349   */\n      swap3\n      swap2\n      pop\n      pop\n      jump\t// out\n        /* \"#utility.yul\":5355:5535   */\n    tag_95:\n        /* \"#utility.yul\":5403:5480   */\n      0x4e487b7100000000000000000000000000000000000000000000000000000000\n        /* \"#utility.yul\":5400:5401   */\n      0x00\n        /* \"#utility.yul\":5393:5481   */\n      mstore\n        /* \"#utility.yul\":5500:5504   */\n      0x11\n        /* \"#utility.yul\":5497:5498   */\n      0x04\n        /* \"#utility.yul\":5490:5505   */\n      mstore\n        /* \"#utility.yul\":5524:5528   */\n      0x24\n        /* \"#utility.yul\":5521:5522   */\n      0x00\n        /* \"#utility.yul\":5514:5529   */\n      revert\n        /* \"#utility.yul\":5541:5721   */\n    tag_101:\n        /* \"#utility.yul\":5589:5666   */\n      0x4e487b7100000000000000000000000000000000000000000000000000000000\n        /* \"#utility.yul\":5586:5587   */\n      0x00\n        /* \"#utility.yul\":5579:5667   */\n      mstore\n        /* \"#utility.yul\":5686:5690   */\n      0x12\n        /* \"#utility.yul\":5683:5684   */\n      0x04\n        /* \"#utility.yul\":5676:5691   */\n      mstore\n        /* \"#utility.yul\":5710:5714   */\n      0x24\n        /* \"#utility.yul\":5707:5708   */\n      0x00\n        /* \"#utility.yul\":5700:5715   */\n      revert\n        /* \"#utility.yul\":5727:5829   */\n    tag_111:\n        /* \"#utility.yul\":5769:5777   */\n      0x00\n        /* \"#utility.yul\":5816:5821   */\n      dup2\n        /* \"#utility.yul\":5813:5814   */\n      0x01\n        /* \"#utility.yul\":5809:5822   */\n      shr\n        /* \"#utility.yul\":5788:5822   */\n      swap1\n      pop\n        /* \"#utility.yul\":5778:5829   */\n      swap2\n      swap1\n      pop\n      jump\t// out\n        /* \"#utility.yul\":5835:5957   */\n    tag_71:\n        /* \"#utility.yul\":5908:5932   */\n      tag_153\n        /* \"#utility.yul\":5926:5931   */\n      dup2\n        /* \"#utility.yul\":5908:5932   */\n      tag_84\n      jump\t// in\n    tag_153:\n        /* \"#utility.yul\":5901:5906   */\n      dup2\n        /* \"#utility.yul\":5898:5933   */\n      eq\n        /* \"#utility.yul\":5888:5890   */\n      tag_154\n      jumpi\n        /* \"#utility.yul\":5947:5948   */\n      0x00\n        /* \"#utility.yul\":5944:5945   */\n      dup1\n        /* \"#utility.yul\":5937:5949   */\n      revert\n        /* \"#utility.yul\":5888:5890   */\n    tag_154:\n        /* \"#utility.yul\":5878:5957   */\n      pop\n      jump\t// out\n\n    auxdata: 0xa2646970667358221220dcb6c5159ba94b0fde33a8fafa88c1bc2833668ebd9144da76c4c13ee4bd0e9d64736f6c63430008040033\n}\n",
				"bytecode": {
					"linkReferences": {},
					"object": "608060405234801561001057600080fd5b5061076a806100206000396000f3fe608060405234801561001057600080fd5b506004361061007d5760003560e01c8063b1b45b1b1161005b578063b1b45b1b14610113578063dd125e3714610143578063f43f523a14610174578063f5f565f8146101a45761007d565b806352f294bc146100825780635f1f7855146100b2578063871f9af4146100e2575b600080fd5b61009c60048036038101906100979190610313565b6101d4565b6040516100a991906103ad565b60405180910390f35b6100cc60048036038101906100c79190610313565b6101ea565b6040516100d991906103ad565b60405180910390f35b6100fc60048036038101906100f7919061034f565b610200565b60405161010a9291906103c8565b60405180910390f35b61012d60048036038101906101289190610313565b61025e565b60405161013a91906103ad565b60405180910390f35b61015d6004803603810190610158919061034f565b610274565b60405161016b9291906103c8565b60405180910390f35b61018e60048036038101906101899190610313565b6102d2565b60405161019b91906103ad565b60405180910390f35b6101be60048036038101906101b99190610313565b6102e8565b6040516101cb91906103ad565b60405180910390f35b600081836101e29190610643565b905092915050565b600081836101f89190610447565b905092915050565b6000808280610238577f4e487b7100000000000000000000000000000000000000000000000000000000600052601260045260246000fd5b84860983858761024891906105e9565b6102529190610681565b91509150935093915050565b6000818361026c91906103f1565b905092915050565b60008082806102ac577f4e487b7100000000000000000000000000000000000000000000000000000000600052601260045260246000fd5b8486088385876102bc91906103f1565b6102c69190610681565b91509150935093915050565b600081836102e09190610681565b905092915050565b600081836102f691906104cb565b905092915050565b60008135905061030d8161071d565b92915050565b6000806040838503121561032657600080fd5b6000610334858286016102fe565b9250506020610345858286016102fe565b9150509250929050565b60008060006060848603121561036457600080fd5b6000610372868287016102fe565b9350506020610383868287016102fe565b9250506040610394868287016102fe565b9150509250925092565b6103a781610677565b82525050565b60006020820190506103c2600083018461039e565b92915050565b60006040820190506103dd600083018561039e565b6103ea602083018461039e565b9392505050565b60006103fc82610677565b915061040783610677565b9250827fffffffffffffffffffffffffffffffffffffffffffffffffffffffffffffffff0382111561043c5761043b6106b2565b5b828201905092915050565b600061045282610677565b915061045d83610677565b92508261046d5761046c6106e1565b5b828204905092915050565b6000808291508390505b60018511156104c25780860481111561049e5761049d6106b2565b5b60018516156104ad5780820291505b80810290506104bb85610710565b9450610482565b94509492505050565b60006104d682610677565b91506104e183610677565b925061050e7fffffffffffffffffffffffffffffffffffffffffffffffffffffffffffffffff8484610516565b905092915050565b60008261052657600190506105e2565b8161053457600090506105e2565b816001811461054a576002811461055457610583565b60019150506105e2565b60ff841115610566576105656106b2565b5b8360020a91508482111561057d5761057c6106b2565b5b506105e2565b5060208310610133831016604e8410600b84101617156105b85782820a9050838111156105b3576105b26106b2565b5b6105e2565b6105c58484846001610478565b925090508184048111156105dc576105db6106b2565b5b81810290505b9392505050565b60006105f482610677565b91506105ff83610677565b9250817fffffffffffffffffffffffffffffffffffffffffffffffffffffffffffffffff0483118215151615610638576106376106b2565b5b828202905092915050565b600061064e82610677565b915061065983610677565b92508282101561066c5761066b6106b2565b5b828203905092915050565b6000819050919050565b600061068c82610677565b915061069783610677565b9250826106a7576106a66106e1565b5b828206905092915050565b7f4e487b7100000000000000000000000000000000000000000000000000000000600052601160045260246000fd5b7f4e487b7100000000000000000000000000000000000000000000000000000000600052601260045260246000fd5b60008160011c9050919050565b61072681610677565b811461073157600080fd5b5056fea2646970667358221220dcb6c5159ba94b0fde33a8fafa88c1bc2833668ebd9144da76c4c13ee4bd0e9d64736f6c63430008040033",
					"opcodes": "PUSH1 0x80 PUSH1 0x40 MSTORE CALLVALUE DUP1 ISZERO PUSH2 0x10 JUMPI PUSH1 0x0 DUP1 REVERT JUMPDEST POP PUSH2 0x76A DUP1 PUSH2 0x20 PUSH1 0x0 CODECOPY PUSH1 0x0 RETURN INVALID PUSH1 0x80 PUSH1 0x40 MSTORE CALLVALUE DUP1 ISZERO PUSH2 0x10 JUMPI PUSH1 0x0 DUP1 REVERT JUMPDEST POP PUSH1 0x4 CALLDATASIZE LT PUSH2 0x7D JUMPI PUSH1 0x0 CALLDATALOAD PUSH1 0xE0 SHR DUP1 PUSH4 0xB1B45B1B GT PUSH2 0x5B JUMPI DUP1 PUSH4 0xB1B45B1B EQ PUSH2 0x113 JUMPI DUP1 PUSH4 0xDD125E37 EQ PUSH2 0x143 JUMPI DUP1 PUSH4 0xF43F523A EQ PUSH2 0x174 JUMPI DUP1 PUSH4 0xF5F565F8 EQ PUSH2 0x1A4 JUMPI PUSH2 0x7D JUMP JUMPDEST DUP1 PUSH4 0x52F294BC EQ PUSH2 0x82 JUMPI DUP1 PUSH4 0x5F1F7855 EQ PUSH2 0xB2 JUMPI DUP1 PUSH4 0x871F9AF4 EQ PUSH2 0xE2 JUMPI JUMPDEST PUSH1 0x0 DUP1 REVERT JUMPDEST PUSH2 0x9C PUSH1 0x4 DUP1 CALLDATASIZE SUB DUP2 ADD SWAP1 PUSH2 0x97 SWAP2 SWAP1 PUSH2 0x313 JUMP JUMPDEST PUSH2 0x1D4 JUMP JUMPDEST PUSH1 0x40 MLOAD PUSH2 0xA9 SWAP2 SWAP1 PUSH2 0x3AD JUMP JUMPDEST PUSH1 0x40 MLOAD DUP1 SWAP2 SUB SWAP1 RETURN JUMPDEST PUSH2 0xCC PUSH1 0x4 DUP1 CALLDATASIZE SUB DUP2 ADD SWAP1 PUSH2 0xC7 SWAP2 SWAP1 PUSH2 0x313 JUMP JUMPDEST PUSH2 0x1EA JUMP JUMPDEST PUSH1 0x40 MLOAD PUSH2 0xD9 SWAP2 SWAP1 PUSH2 0x3AD JUMP JUMPDEST PUSH1 0x40 MLOAD DUP1 SWAP2 SUB SWAP1 RETURN JUMPDEST PUSH2 0xFC PUSH1 0x4 DUP1 CALLDATASIZE SUB DUP2 ADD SWAP1 PUSH2 0xF7 SWAP2 SWAP1 PUSH2 0x34F JUMP JUMPDEST PUSH2 0x200 JUMP JUMPDEST PUSH1 0x40 MLOAD PUSH2 0x10A SWAP3 SWAP2 SWAP1 PUSH2 0x3C8 JUMP JUMPDEST PUSH1 0x40 MLOAD DUP1 SWAP2 SUB SWAP1 RETURN JUMPDEST PUSH2 0x12D PUSH1 0x4 DUP1 CALLDATASIZE SUB DUP2 ADD SWAP1 PUSH2 0x128 SWAP2 SWAP1 PUSH2 0x313 JUMP JUMPDEST PUSH2 0x25E JUMP JUMPDEST PUSH1 0x40 MLOAD PUSH2 0x13A SWAP2 SWAP1 PUSH2 0x3AD JUMP JUMPDEST PUSH1 0x40 MLOAD DUP1 SWAP2 SUB SWAP1 RETURN JUMPDEST PUSH2 0x15D PUSH1 0x4 DUP1 CALLDATASIZE SUB DUP2 ADD SWAP1 PUSH2 0x158 SWAP2 SWAP1 PUSH2 0x34F JUMP JUMPDEST PUSH2 0x274 JUMP JUMPDEST PUSH1 0x40 MLOAD PUSH2 0x16B SWAP3 SWAP2 SWAP1 PUSH2 0x3C8 JUMP JUMPDEST PUSH1 0x40 MLOAD DUP1 SWAP2 SUB SWAP1 RETURN JUMPDEST PUSH2 0x18E PUSH1 0x4 DUP1 CALLDATASIZE SUB DUP2 ADD SWAP1 PUSH2 0x189 SWAP2 SWAP1 PUSH2 0x313 JUMP JUMPDEST PUSH2 0x2D2 JUMP JUMPDEST PUSH1 0x40 MLOAD PUSH2 0x19B SWAP2 SWAP1 PUSH2 0x3AD JUMP JUMPDEST PUSH1 0x40 MLOAD DUP1 SWAP2 SUB SWAP1 RETURN JUMPDEST PUSH2 0x1BE PUSH1 0x4 DUP1 CALLDATASIZE SUB DUP2 ADD SWAP1 PUSH2 0x1B9 SWAP2 SWAP1 PUSH2 0x313 JUMP JUMPDEST PUSH2 0x2E8 JUMP JUMPDEST PUSH1 0x40 MLOAD PUSH2 0x1CB SWAP2 SWAP1 PUSH2 0x3AD JUMP JUMPDEST PUSH1 0x40 MLOAD DUP1 SWAP2 SUB SWAP1 RETURN JUMPDEST PUSH1 0x0 DUP2 DUP4 PUSH2 0x1E2 SWAP2 SWAP1 PUSH2 0x643 JUMP JUMPDEST SWAP1 POP SWAP3 SWAP2 POP POP JUMP JUMPDEST PUSH1 0x0 DUP2 DUP4 PUSH2 0x1F8 SWAP2 SWAP1 PUSH2 0x447 JUMP JUMPDEST SWAP1 POP SWAP3 SWAP2 POP POP JUMP JUMPDEST PUSH1 0x0 DUP1 DUP3 DUP1 PUSH2 0x238 JUMPI PUSH32 0x4E487B7100000000000000000000000000000000000000000000000000000000 PUSH1 0x0 MSTORE PUSH1 0x12 PUSH1 0x4 MSTORE PUSH1 0x24 PUSH1 0x0 REVERT JUMPDEST DUP5 DUP7 MULMOD DUP4 DUP6 DUP8 PUSH2 0x248 SWAP2 SWAP1 PUSH2 0x5E9 JUMP JUMPDEST PUSH2 0x252 SWAP2 SWAP1 PUSH2 0x681 JUMP JUMPDEST SWAP2 POP SWAP2 POP SWAP4 POP SWAP4 SWAP2 POP POP JUMP JUMPDEST PUSH1 0x0 DUP2 DUP4 PUSH2 0x26C SWAP2 SWAP1 PUSH2 0x3F1 JUMP JUMPDEST SWAP1 POP SWAP3 SWAP2 POP POP JUMP JUMPDEST PUSH1 0x0 DUP1 DUP3 DUP1 PUSH2 0x2AC JUMPI PUSH32 0x4E487B7100000000000000000000000000000000000000000000000000000000 PUSH1 0x0 MSTORE PUSH1 0x12 PUSH1 0x4 MSTORE PUSH1 0x24 PUSH1 0x0 REVERT JUMPDEST DUP5 DUP7 ADDMOD DUP4 DUP6 DUP8 PUSH2 0x2BC SWAP2 SWAP1 PUSH2 0x3F1 JUMP JUMPDEST PUSH2 0x2C6 SWAP2 SWAP1 PUSH2 0x681 JUMP JUMPDEST SWAP2 POP SWAP2 POP SWAP4 POP SWAP4 SWAP2 POP POP JUMP JUMPDEST PUSH1 0x0 DUP2 DUP4 PUSH2 0x2E0 SWAP2 SWAP1 PUSH2 0x681 JUMP JUMPDEST SWAP1 POP SWAP3 SWAP2 POP POP JUMP JUMPDEST PUSH1 0x0 DUP2 DUP4 PUSH2 0x2F6 SWAP2 SWAP1 PUSH2 0x4CB JUMP JUMPDEST SWAP1 POP SWAP3 SWAP2 POP POP JUMP JUMPDEST PUSH1 0x0 DUP2 CALLDATALOAD SWAP1 POP PUSH2 0x30D DUP2 PUSH2 0x71D JUMP JUMPDEST SWAP3 SWAP2 POP POP JUMP JUMPDEST PUSH1 0x0 DUP1 PUSH1 0x40 DUP4 DUP6 SUB SLT ISZERO PUSH2 0x326 JUMPI PUSH1 0x0 DUP1 REVERT JUMPDEST PUSH1 0x0 PUSH2 0x334 DUP6 DUP3 DUP7 ADD PUSH2 0x2FE JUMP JUMPDEST SWAP3 POP POP PUSH1 0x20 PUSH2 0x345 DUP6 DUP3 DUP7 ADD PUSH2 0x2FE JUMP JUMPDEST SWAP2 POP POP SWAP3 POP SWAP3 SWAP1 POP JUMP JUMPDEST PUSH1 0x0 DUP1 PUSH1 0x0 PUSH1 0x60 DUP5 DUP7 SUB SLT ISZERO PUSH2 0x364 JUMPI PUSH1 0x0 DUP1 REVERT JUMPDEST PUSH1 0x0 PUSH2 0x372 DUP7 DUP3 DUP8 ADD PUSH2 0x2FE JUMP JUMPDEST SWAP4 POP POP PUSH1 0x20 PUSH2 0x383 DUP7 DUP3 DUP8 ADD PUSH2 0x2FE JUMP JUMPDEST SWAP3 POP POP PUSH1 0x40 PUSH2 0x394 DUP7 DUP3 DUP8 ADD PUSH2 0x2FE JUMP JUMPDEST SWAP2 POP POP SWAP3 POP SWAP3 POP SWAP3 JUMP JUMPDEST PUSH2 0x3A7 DUP2 PUSH2 0x677 JUMP JUMPDEST DUP3 MSTORE POP POP JUMP JUMPDEST PUSH1 0x0 PUSH1 0x20 DUP3 ADD SWAP1 POP PUSH2 0x3C2 PUSH1 0x0 DUP4 ADD DUP5 PUSH2 0x39E JUMP JUMPDEST SWAP3 SWAP2 POP POP JUMP JUMPDEST PUSH1 0x0 PUSH1 0x40 DUP3 ADD SWAP1 POP PUSH2 0x3DD PUSH1 0x0 DUP4 ADD DUP6 PUSH2 0x39E JUMP JUMPDEST PUSH2 0x3EA PUSH1 0x20 DUP4 ADD DUP5 PUSH2 0x39E JUMP JUMPDEST SWAP4 SWAP3 POP POP POP JUMP JUMPDEST PUSH1 0x0 PUSH2 0x3FC DUP3 PUSH2 0x677 JUMP JUMPDEST SWAP2 POP PUSH2 0x407 DUP4 PUSH2 0x677 JUMP JUMPDEST SWAP3 POP DUP3 PUSH32 0xFFFFFFFFFFFFFFFFFFFFFFFFFFFFFFFFFFFFFFFFFFFFFFFFFFFFFFFFFFFFFFFF SUB DUP3 GT ISZERO PUSH2 0x43C JUMPI PUSH2 0x43B PUSH2 0x6B2 JUMP JUMPDEST JUMPDEST DUP3 DUP3 ADD SWAP1 POP SWAP3 SWAP2 POP POP JUMP JUMPDEST PUSH1 0x0 PUSH2 0x452 DUP3 PUSH2 0x677 JUMP JUMPDEST SWAP2 POP PUSH2 0x45D DUP4 PUSH2 0x677 JUMP JUMPDEST SWAP3 POP DUP3 PUSH2 0x46D JUMPI PUSH2 0x46C PUSH2 0x6E1 JUMP JUMPDEST JUMPDEST DUP3 DUP3 DIV SWAP1 POP SWAP3 SWAP2 POP POP JUMP JUMPDEST PUSH1 0x0 DUP1 DUP3 SWAP2 POP DUP4 SWAP1 POP JUMPDEST PUSH1 0x1 DUP6 GT ISZERO PUSH2 0x4C2 JUMPI DUP1 DUP7 DIV DUP2 GT ISZERO PUSH2 0x49E JUMPI PUSH2 0x49D PUSH2 0x6B2 JUMP JUMPDEST JUMPDEST PUSH1 0x1 DUP6 AND ISZERO PUSH2 0x4AD JUMPI DUP1 DUP3 MUL SWAP2 POP JUMPDEST DUP1 DUP2 MUL SWAP1 POP PUSH2 0x4BB DUP6 PUSH2 0x710 JUMP JUMPDEST SWAP5 POP PUSH2 0x482 JUMP JUMPDEST SWAP5 POP SWAP5 SWAP3 POP POP POP JUMP JUMPDEST PUSH1 0x0 PUSH2 0x4D6 DUP3 PUSH2 0x677 JUMP JUMPDEST SWAP2 POP PUSH2 0x4E1 DUP4 PUSH2 0x677 JUMP JUMPDEST SWAP3 POP PUSH2 0x50E PUSH32 0xFFFFFFFFFFFFFFFFFFFFFFFFFFFFFFFFFFFFFFFFFFFFFFFFFFFFFFFFFFFFFFFF DUP5 DUP5 PUSH2 0x516 JUMP JUMPDEST SWAP1 POP SWAP3 SWAP2 POP POP JUMP JUMPDEST PUSH1 0x0 DUP3 PUSH2 0x526 JUMPI PUSH1 0x1 SWAP1 POP PUSH2 0x5E2 JUMP JUMPDEST DUP2 PUSH2 0x534 JUMPI PUSH1 0x0 SWAP1 POP PUSH2 0x5E2 JUMP JUMPDEST DUP2 PUSH1 0x1 DUP2 EQ PUSH2 0x54A JUMPI PUSH1 0x2 DUP2 EQ PUSH2 0x554 JUMPI PUSH2 0x583 JUMP JUMPDEST PUSH1 0x1 SWAP2 POP POP PUSH2 0x5E2 JUMP JUMPDEST PUSH1 0xFF DUP5 GT ISZERO PUSH2 0x566 JUMPI PUSH2 0x565 PUSH2 0x6B2 JUMP JUMPDEST JUMPDEST DUP4 PUSH1 0x2 EXP SWAP2 POP DUP5 DUP3 GT ISZERO PUSH2 0x57D JUMPI PUSH2 0x57C PUSH2 0x6B2 JUMP JUMPDEST JUMPDEST POP PUSH2 0x5E2 JUMP JUMPDEST POP PUSH1 0x20 DUP4 LT PUSH2 0x133 DUP4 LT AND PUSH1 0x4E DUP5 LT PUSH1 0xB DUP5 LT AND OR ISZERO PUSH2 0x5B8 JUMPI DUP3 DUP3 EXP SWAP1 POP DUP4 DUP2 GT ISZERO PUSH2 0x5B3 JUMPI PUSH2 0x5B2 PUSH2 0x6B2 JUMP JUMPDEST JUMPDEST PUSH2 0x5E2 JUMP JUMPDEST PUSH2 0x5C5 DUP5 DUP5 DUP5 PUSH1 0x1 PUSH2 0x478 JUMP JUMPDEST SWAP3 POP SWAP1 POP DUP2 DUP5 DIV DUP2 GT ISZERO PUSH2 0x5DC JUMPI PUSH2 0x5DB PUSH2 0x6B2 JUMP JUMPDEST JUMPDEST DUP2 DUP2 MUL SWAP1 POP JUMPDEST SWAP4 SWAP3 POP POP POP JUMP JUMPDEST PUSH1 0x0 PUSH2 0x5F4 DUP3 PUSH2 0x677 JUMP JUMPDEST SWAP2 POP PUSH2 0x5FF DUP4 PUSH2 0x677 JUMP JUMPDEST SWAP3 POP DUP2 PUSH32 0xFFFFFFFFFFFFFFFFFFFFFFFFFFFFFFFFFFFFFFFFFFFFFFFFFFFFFFFFFFFFFFFF DIV DUP4 GT DUP3 ISZERO ISZERO AND ISZERO PUSH2 0x638 JUMPI PUSH2 0x637 PUSH2 0x6B2 JUMP JUMPDEST JUMPDEST DUP3 DUP3 MUL SWAP1 POP SWAP3 SWAP2 POP POP JUMP JUMPDEST PUSH1 0x0 PUSH2 0x64E DUP3 PUSH2 0x677 JUMP JUMPDEST SWAP2 POP PUSH2 0x659 DUP4 PUSH2 0x677 JUMP JUMPDEST SWAP3 POP DUP3 DUP3 LT ISZERO PUSH2 0x66C JUMPI PUSH2 0x66B PUSH2 0x6B2 JUMP JUMPDEST JUMPDEST DUP3 DUP3 SUB SWAP1 POP SWAP3 SWAP2 POP POP JUMP JUMPDEST PUSH1 0x0 DUP2 SWAP1 POP SWAP2 SWAP1 POP JUMP JUMPDEST PUSH1 0x0 PUSH2 0x68C DUP3 PUSH2 0x677 JUMP JUMPDEST SWAP2 POP PUSH2 0x697 DUP4 PUSH2 0x677 JUMP JUMPDEST SWAP3 POP DUP3 PUSH2 0x6A7 JUMPI PUSH2 0x6A6 PUSH2 0x6E1 JUMP JUMPDEST JUMPDEST DUP3 DUP3 MOD SWAP1 POP SWAP3 SWAP2 POP POP JUMP JUMPDEST PUSH32 0x4E487B7100000000000000000000000000000000000000000000000000000000 PUSH1 0x0 MSTORE PUSH1 0x11 PUSH1 0x4 MSTORE PUSH1 0x24 PUSH1 0x0 REVERT JUMPDEST PUSH32 0x4E487B7100000000000000000000000000000000000000000000000000000000 PUSH1 0x0 MSTORE PUSH1 0x12 PUSH1 0x4 MSTORE PUSH1 0x24 PUSH1 0x0 REVERT JUMPDEST PUSH1 0x0 DUP2 PUSH1 0x1 SHR SWAP1 POP SWAP2 SWAP1 POP JUMP JUMPDEST PUSH2 0x726 DUP2 PUSH2 0x677 JUMP JUMPDEST DUP2 EQ PUSH2 0x731 JUMPI PUSH1 0x0 DUP1 REVERT JUMPDEST POP JUMP INVALID LOG2 PUSH5 0x6970667358 0x22 SLT KECCAK256 0xDC 0xB6 0xC5 ISZERO SWAP12 0xA9 0x4B 0xF 0xDE CALLER 0xA8 STATICCALL STATICCALL DUP9 0xC1 0xBC 0x28 CALLER PUSH7 0x8EBD9144DA76C4 0xC1 RETURNDATACOPY 0xE4 0xBD 0xE SWAP14 PUSH5 0x736F6C6343 STOP ADDMOD DIV STOP CALLER "
				},
				"gasEstimates": {
					"creation": {
						"codeDepositCost": "379600",
						"executionCost": "418",
						"totalCost": "380018"
					},
					"external": {
						"_addmod(uint256,uint256,uint256)": "infinite",
						"_mulmod(uint256,uint256,uint256)": "infinite",
						"divi(uint256,uint256)": "infinite",
						"exp(uint256,uint256)": "infinite",
						"mod(uint256,uint256)": "infinite",
						"resta(uint256,uint256)": "infinite",
						"suma(uint256,uint256)": "infinite"
					}
				},
				"methodIdentifiers": {
					"_addmod(uint256,uint256,uint256)": "dd125e37",
					"_mulmod(uint256,uint256,uint256)": "871f9af4",
					"divi(uint256,uint256)": "5f1f7855",
					"exp(uint256,uint256)": "f5f565f8",
					"mod(uint256,uint256)": "f43f523a",
					"resta(uint256,uint256)": "52f294bc",
					"suma(uint256,uint256)": "b1b45b1b"
				}
			},
			"storageLayout": {
				"storage": [],
				"types": null
			},
			"userdoc": {
				"kind": "user",
				"methods": {},
				"version": 1
			}
		}
	}
}