{
	"contracts/2_variables_modifiers.sol": {
		"variables_modifiers": {
			"abi": [
				{
					"inputs": [],
					"name": "address1",
					"outputs": [
						{
							"internalType": "address",
							"name": "",
							"type": "address"
						}
					],
					"stateMutability": "view",
					"type": "function"
				},
				{
					"inputs": [],
					"name": "address2",
					"outputs": [
						{
							"internalType": "address",
							"name": "",
							"type": "address"
						}
					],
					"stateMutability": "view",
					"type": "function"
				},
				{
					"inputs": [],
					"name": "b",
					"outputs": [
						{
							"internalType": "uint8",
							"name": "",
							"type": "uint8"
						}
					],
					"stateMutability": "view",
					"type": "function"
				},
				{
					"inputs": [],
					"name": "boolean_true",
					"outputs": [
						{
							"internalType": "bool",
							"name": "",
							"type": "bool"
						}
					],
					"stateMutability": "view",
					"type": "function"
				},
				{
					"inputs": [],
					"name": "byte1",
					"outputs": [
						{
							"internalType": "bytes1",
							"name": "",
							"type": "bytes1"
						}
					],
					"stateMutability": "view",
					"type": "function"
				},
				{
					"inputs": [],
					"name": "d",
					"outputs": [
						{
							"internalType": "int8",
							"name": "",
							"type": "int8"
						}
					],
					"stateMutability": "view",
					"type": "function"
				},
				{
					"inputs": [],
					"name": "displayState",
					"outputs": [
						{
							"internalType": "enum variables_modifiers.options",
							"name": "",
							"type": "uint8"
						}
					],
					"stateMutability": "view",
					"type": "function"
				},
				{
					"inputs": [],
					"name": "hashing",
					"outputs": [
						{
							"internalType": "bytes32",
							"name": "",
							"type": "bytes32"
						}
					],
					"stateMutability": "view",
					"type": "function"
				},
				{
					"inputs": [],
					"name": "hashing_ripeMD160",
					"outputs": [
						{
							"internalType": "bytes20",
							"name": "",
							"type": "bytes20"
						}
					],
					"stateMutability": "view",
					"type": "function"
				},
				{
					"inputs": [],
					"name": "hashing_sha256",
					"outputs": [
						{
							"internalType": "bytes32",
							"name": "",
							"type": "bytes32"
						}
					],
					"stateMutability": "view",
					"type": "function"
				},
				{
					"inputs": [],
					"name": "str_public",
					"outputs": [
						{
							"internalType": "string",
							"name": "",
							"type": "string"
						}
					],
					"stateMutability": "view",
					"type": "function"
				},
				{
					"inputs": [],
					"name": "turnOf",
					"outputs": [],
					"stateMutability": "nonpayable",
					"type": "function"
				},
				{
					"inputs": [],
					"name": "turnOn",
					"outputs": [],
					"stateMutability": "nonpayable",
					"type": "function"
				}
			],
			"devdoc": {
				"kind": "dev",
				"methods": {},
				"version": 1
			},
			"evm": {
				"assembly": "    /* \"contracts/2_variables_modifiers.sol\":60:1570  contract variables_modifiers {\r... */\n  mstore(0x40, 0x80)\n    /* \"contracts/2_variables_modifiers.sol\":171:172  3 */\n  0x03\n    /* \"contracts/2_variables_modifiers.sol\":154:172  uint8 public b = 3 */\n  0x01\n  exp(0x0100, 0x00)\n  dup2\n  sload\n  dup2\n  0xff\n  mul\n  not\n  and\n  swap1\n  dup4\n  0xff\n  and\n  mul\n  or\n  swap1\n  sstore\n  pop\n    /* \"contracts/2_variables_modifiers.sol\":251:254  -32 */\n  0xffffffffffffffffffffffffffffffffffffffffffffffffffffffffffffffe0\n    /* \"contracts/2_variables_modifiers.sol\":235:254  int8 public d = -32 */\n  0x03\n  exp(0x0100, 0x00)\n  dup2\n  sload\n  dup2\n  0xff\n  mul\n  not\n  and\n  swap1\n  dup4\n  0x00\n  signextend\n  0xff\n  and\n  mul\n  or\n  swap1\n  sstore\n  pop\n    /* \"contracts/2_variables_modifiers.sol\":269:271  65 */\n  0x41\n    /* \"contracts/2_variables_modifiers.sol\":261:271  int e = 65 */\n  0x04\n  sstore\n    /* \"contracts/2_variables_modifiers.sol\":323:367  string public str_public = \"Esto es publico\" */\n  mload(0x40)\n  dup1\n  0x40\n  add\n  0x40\n  mstore\n  dup1\n  0x0f\n  dup2\n  mstore\n  0x20\n  add\n  0x4573746f206573207075626c69636f0000000000000000000000000000000000\n  dup2\n  mstore\n  pop\n  0x06\n  swap1\n  dup1\n  mload\n  swap1\n  0x20\n  add\n  swap1\n  tag_1\n  swap3\n  swap2\n  swap1\n  tag_2\n  jump\t// in\ntag_1:\n  pop\n    /* \"contracts/2_variables_modifiers.sol\":374:417  string private str_priv = \"Esto es privado\" */\n  mload(0x40)\n  dup1\n  0x40\n  add\n  0x40\n  mstore\n  dup1\n  0x0f\n  dup2\n  mstore\n  0x20\n  add\n  0x4573746f206573207072697661646f0000000000000000000000000000000000\n  dup2\n  mstore\n  pop\n  0x07\n  swap1\n  dup1\n  mload\n  swap1\n  0x20\n  add\n  swap1\n  tag_3\n  swap3\n  swap2\n  swap1\n  tag_2\n  jump\t// in\ntag_3:\n  pop\n    /* \"contracts/2_variables_modifiers.sol\":498:502  true */\n  0x01\n    /* \"contracts/2_variables_modifiers.sol\":471:502  bool public boolean_true = true */\n  0x08\n  exp(0x0100, 0x01)\n  dup2\n  sload\n  dup2\n  0xff\n  mul\n  not\n  and\n  swap1\n  dup4\n  iszero\n  iszero\n  mul\n  or\n  swap1\n  sstore\n  pop\n    /* \"contracts/2_variables_modifiers.sol\":537:542  false */\n  0x00\n    /* \"contracts/2_variables_modifiers.sol\":509:542  bool private boolean_priv = false */\n  0x08\n  exp(0x0100, 0x02)\n  dup2\n  sload\n  dup2\n  0xff\n  mul\n  not\n  and\n  swap1\n  dup4\n  iszero\n  iszero\n  mul\n  or\n  swap1\n  sstore\n  pop\n    /* \"contracts/2_variables_modifiers.sol\":625:650  bytes1 public byte1 = \"4\" */\n  0x3400000000000000000000000000000000000000000000000000000000000000\n  0x0a\n  exp(0x0100, 0x04)\n  dup2\n  sload\n  dup2\n  0xff\n  mul\n  not\n  and\n  swap1\n  dup4\n  0xf8\n  shr\n  mul\n  or\n  swap1\n  sstore\n  pop\n    /* \"contracts/2_variables_modifiers.sol\":761:763  10 */\n  0x0a\n    /* \"contracts/2_variables_modifiers.sol\":766:776  msg.sender */\n  caller\n    /* \"contracts/2_variables_modifiers.sol\":778:820  0x5B38Da6a701c568545dCfcB03FcB875f56beddC4 */\n  0x5b38da6a701c568545dcfcb03fcb875f56beddc4\n    /* \"contracts/2_variables_modifiers.sol\":722:821  abi.encodePacked(\"Hola\", \"Pablo\", uint(10), msg.sender, 0x5B38Da6a701c568545dCfcB03FcB875f56beddC4) */\n  add(0x20, mload(0x40))\n  tag_4\n  swap4\n  swap3\n  swap2\n  swap1\n  tag_5\n  jump\t// in\ntag_4:\n  mload(0x40)\n  0x20\n  dup2\n  dup4\n  sub\n  sub\n  dup2\n  mstore\n  swap1\n  0x40\n  mstore\n    /* \"contracts/2_variables_modifiers.sol\":712:822  keccak256(abi.encodePacked(\"Hola\", \"Pablo\", uint(10), msg.sender, 0x5B38Da6a701c568545dCfcB03FcB875f56beddC4)) */\n  dup1\n  mload\n  swap1\n  0x20\n  add\n  keccak256\n    /* \"contracts/2_variables_modifiers.sol\":687:822  bytes32 public hashing = keccak256(abi.encodePacked(\"Hola\", \"Pablo\", uint(10), msg.sender, 0x5B38Da6a701c568545dCfcB03FcB875f56beddC4)) */\n  0x0b\n  sstore\n    /* \"contracts/2_variables_modifiers.sol\":861:900  sha256(abi.encodePacked(\"Hello world\")) */\n  0x02\n    /* \"contracts/2_variables_modifiers.sol\":868:899  abi.encodePacked(\"Hello world\") */\n  add(0x20, mload(0x40))\n  tag_6\n  swap1\n  tag_7\n  jump\t// in\ntag_6:\n  mload(0x40)\n  0x20\n  dup2\n  dup4\n  sub\n  sub\n  dup2\n  mstore\n  swap1\n  0x40\n  mstore\n    /* \"contracts/2_variables_modifiers.sol\":861:900  sha256(abi.encodePacked(\"Hello world\")) */\n  mload(0x40)\n  tag_8\n  swap2\n  swap1\n  tag_9\n  jump\t// in\ntag_8:\n  0x20\n  mload(0x40)\n  dup1\n  dup4\n  sub\n  dup2\n  dup6\n  gas\n  staticcall\n  iszero\n  dup1\n  iszero\n  tag_11\n  jumpi\n  returndatasize\n  0x00\n  dup1\n  returndatacopy\n  revert(0x00, returndatasize)\ntag_11:\n  pop\n  pop\n  pop\n  mload(0x40)\n  returndatasize\n  not(0x1f)\n  0x1f\n  dup3\n  add\n  and\n  dup3\n  add\n  dup1\n  0x40\n  mstore\n  pop\n  dup2\n  add\n  swap1\n  tag_12\n  swap2\n  swap1\n  tag_13\n  jump\t// in\ntag_12:\n    /* \"contracts/2_variables_modifiers.sol\":829:900  bytes32 public hashing_sha256 = sha256(abi.encodePacked(\"Hello world\")) */\n  0x0c\n  sstore\n    /* \"contracts/2_variables_modifiers.sol\":942:986  ripemd160(abi.encodePacked((\"Hello world\"))) */\n  0x03\n    /* \"contracts/2_variables_modifiers.sol\":952:985  abi.encodePacked((\"Hello world\")) */\n  add(0x20, mload(0x40))\n  tag_14\n  swap1\n  tag_7\n  jump\t// in\ntag_14:\n  mload(0x40)\n  0x20\n  dup2\n  dup4\n  sub\n  sub\n  dup2\n  mstore\n  swap1\n  0x40\n  mstore\n    /* \"contracts/2_variables_modifiers.sol\":942:986  ripemd160(abi.encodePacked((\"Hello world\"))) */\n  mload(0x40)\n  tag_15\n  swap2\n  swap1\n  tag_9\n  jump\t// in\ntag_15:\n  0x20\n  mload(0x40)\n  dup1\n  dup4\n  sub\n  dup2\n  dup6\n  gas\n  staticcall\n  iszero\n  dup1\n  iszero\n  tag_17\n  jumpi\n  returndatasize\n  0x00\n  dup1\n  returndatacopy\n  revert(0x00, returndatasize)\ntag_17:\n  pop\n  pop\n  pop\n  shl(0x60, mload(mload(0x40)))\n    /* \"contracts/2_variables_modifiers.sol\":907:986  bytes20 public hashing_ripeMD160 = ripemd160(abi.encodePacked((\"Hello world\"))) */\n  0x0d\n  exp(0x0100, 0x00)\n  dup2\n  sload\n  dup2\n  0xffffffffffffffffffffffffffffffffffffffff\n  mul\n  not\n  and\n  swap1\n  dup4\n  0x60\n  shr\n  mul\n  or\n  swap1\n  sstore\n  pop\n    /* \"contracts/2_variables_modifiers.sol\":1081:1123  0x5B38Da6a701c568545dCfcB03FcB875f56beddC4 */\n  0x5b38da6a701c568545dcfcb03fcb875f56beddc4\n    /* \"contracts/2_variables_modifiers.sol\":1055:1123  address public address1 = 0x5B38Da6a701c568545dCfcB03FcB875f56beddC4 */\n  0x0f\n  exp(0x0100, 0x00)\n  dup2\n  sload\n  dup2\n  0xffffffffffffffffffffffffffffffffffffffff\n  mul\n  not\n  and\n  swap1\n  dup4\n  0xffffffffffffffffffffffffffffffffffffffff\n  and\n  mul\n  or\n  swap1\n  sstore\n  pop\n    /* \"contracts/2_variables_modifiers.sol\":1156:1166  msg.sender */\n  caller\n    /* \"contracts/2_variables_modifiers.sol\":1130:1166  address public address2 = msg.sender */\n  0x10\n  exp(0x0100, 0x00)\n  dup2\n  sload\n  dup2\n  0xffffffffffffffffffffffffffffffffffffffff\n  mul\n  not\n  and\n  swap1\n  dup4\n  0xffffffffffffffffffffffffffffffffffffffff\n  and\n  mul\n  or\n  swap1\n  sstore\n  pop\n    /* \"contracts/2_variables_modifiers.sol\":60:1570  contract variables_modifiers {\r... */\n  callvalue\n  dup1\n  iszero\n  tag_18\n  jumpi\n  0x00\n  dup1\n  revert\ntag_18:\n  pop\n  jump(tag_19)\ntag_2:\n  dup3\n  dup1\n  sload\n  tag_20\n  swap1\n  tag_21\n  jump\t// in\ntag_20:\n  swap1\n  0x00\n  mstore\n  keccak256(0x00, 0x20)\n  swap1\n  0x1f\n  add\n  0x20\n  swap1\n  div\n  dup2\n  add\n  swap3\n  dup3\n  tag_23\n  jumpi\n  0x00\n  dup6\n  sstore\n  jump(tag_22)\ntag_23:\n  dup3\n  0x1f\n  lt\n  tag_24\n  jumpi\n  dup1\n  mload\n  not(0xff)\n  and\n  dup4\n  dup1\n  add\n  or\n  dup6\n  sstore\n  jump(tag_22)\ntag_24:\n  dup3\n  dup1\n  add\n  0x01\n  add\n  dup6\n  sstore\n  dup3\n  iszero\n  tag_22\n  jumpi\n  swap2\n  dup3\n  add\ntag_25:\n  dup3\n  dup2\n  gt\n  iszero\n  tag_26\n  jumpi\n  dup3\n  mload\n  dup3\n  sstore\n  swap2\n  0x20\n  add\n  swap2\n  swap1\n  0x01\n  add\n  swap1\n  jump(tag_25)\ntag_26:\ntag_22:\n  pop\n  swap1\n  pop\n  tag_27\n  swap2\n  swap1\n  tag_28\n  jump\t// in\ntag_27:\n  pop\n  swap1\n  jump\t// out\ntag_28:\ntag_29:\n  dup1\n  dup3\n  gt\n  iszero\n  tag_30\n  jumpi\n  0x00\n  dup2\n  0x00\n  swap1\n  sstore\n  pop\n  0x01\n  add\n  jump(tag_29)\ntag_30:\n  pop\n  swap1\n  jump\t// out\n    /* \"#utility.yul\":7:150   */\ntag_32:\n    /* \"#utility.yul\":64:69   */\n  0x00\n    /* \"#utility.yul\":95:101   */\n  dup2\n    /* \"#utility.yul\":89:102   */\n  mload\n    /* \"#utility.yul\":80:102   */\n  swap1\n  pop\n    /* \"#utility.yul\":111:144   */\n  tag_34\n    /* \"#utility.yul\":138:143   */\n  dup2\n    /* \"#utility.yul\":111:144   */\n  tag_35\n  jump\t// in\ntag_34:\n    /* \"#utility.yul\":70:150   */\n  swap3\n  swap2\n  pop\n  pop\n  jump\t// out\n    /* \"#utility.yul\":156:440   */\ntag_13:\n    /* \"#utility.yul\":226:232   */\n  0x00\n    /* \"#utility.yul\":275:277   */\n  0x20\n    /* \"#utility.yul\":263:272   */\n  dup3\n    /* \"#utility.yul\":254:261   */\n  dup5\n    /* \"#utility.yul\":250:273   */\n  sub\n    /* \"#utility.yul\":246:278   */\n  slt\n    /* \"#utility.yul\":243:245   */\n  iszero\n  tag_37\n  jumpi\n    /* \"#utility.yul\":291:292   */\n  0x00\n    /* \"#utility.yul\":288:289   */\n  dup1\n    /* \"#utility.yul\":281:293   */\n  revert\n    /* \"#utility.yul\":243:245   */\ntag_37:\n    /* \"#utility.yul\":334:335   */\n  0x00\n    /* \"#utility.yul\":359:423   */\n  tag_38\n    /* \"#utility.yul\":415:422   */\n  dup5\n    /* \"#utility.yul\":406:412   */\n  dup3\n    /* \"#utility.yul\":395:404   */\n  dup6\n    /* \"#utility.yul\":391:413   */\n  add\n    /* \"#utility.yul\":359:423   */\n  tag_32\n  jump\t// in\ntag_38:\n    /* \"#utility.yul\":349:423   */\n  swap2\n  pop\n    /* \"#utility.yul\":305:433   */\n  pop\n    /* \"#utility.yul\":233:440   */\n  swap3\n  swap2\n  pop\n  pop\n  jump\t// out\n    /* \"#utility.yul\":446:603   */\ntag_39:\n    /* \"#utility.yul\":551:596   */\n  tag_41\n    /* \"#utility.yul\":571:595   */\n  tag_42\n    /* \"#utility.yul\":589:594   */\n  dup3\n    /* \"#utility.yul\":571:595   */\n  tag_43\n  jump\t// in\ntag_42:\n    /* \"#utility.yul\":551:596   */\n  tag_44\n  jump\t// in\ntag_41:\n    /* \"#utility.yul\":546:549   */\n  dup3\n    /* \"#utility.yul\":539:597   */\n  mstore\n    /* \"#utility.yul\":529:603   */\n  pop\n  pop\n  jump\t// out\n    /* \"#utility.yul\":609:982   */\ntag_45:\n    /* \"#utility.yul\":713:716   */\n  0x00\n    /* \"#utility.yul\":741:779   */\n  tag_47\n    /* \"#utility.yul\":773:778   */\n  dup3\n    /* \"#utility.yul\":741:779   */\n  tag_48\n  jump\t// in\ntag_47:\n    /* \"#utility.yul\":795:883   */\n  tag_49\n    /* \"#utility.yul\":876:882   */\n  dup2\n    /* \"#utility.yul\":871:874   */\n  dup6\n    /* \"#utility.yul\":795:883   */\n  tag_50\n  jump\t// in\ntag_49:\n    /* \"#utility.yul\":788:883   */\n  swap4\n  pop\n    /* \"#utility.yul\":892:944   */\n  tag_51\n    /* \"#utility.yul\":937:943   */\n  dup2\n    /* \"#utility.yul\":932:935   */\n  dup6\n    /* \"#utility.yul\":925:929   */\n  0x20\n    /* \"#utility.yul\":918:923   */\n  dup7\n    /* \"#utility.yul\":914:930   */\n  add\n    /* \"#utility.yul\":892:944   */\n  tag_52\n  jump\t// in\ntag_51:\n    /* \"#utility.yul\":969:975   */\n  dup1\n    /* \"#utility.yul\":964:967   */\n  dup5\n    /* \"#utility.yul\":960:976   */\n  add\n    /* \"#utility.yul\":953:976   */\n  swap2\n  pop\n    /* \"#utility.yul\":717:982   */\n  pop\n  swap3\n  swap2\n  pop\n  pop\n  jump\t// out\n    /* \"#utility.yul\":988:1388   */\ntag_53:\n    /* \"#utility.yul\":1148:1151   */\n  0x00\n    /* \"#utility.yul\":1169:1253   */\n  tag_55\n    /* \"#utility.yul\":1251:1252   */\n  0x04\n    /* \"#utility.yul\":1246:1249   */\n  dup4\n    /* \"#utility.yul\":1169:1253   */\n  tag_56\n  jump\t// in\ntag_55:\n    /* \"#utility.yul\":1162:1253   */\n  swap2\n  pop\n    /* \"#utility.yul\":1262:1355   */\n  tag_57\n    /* \"#utility.yul\":1351:1354   */\n  dup3\n    /* \"#utility.yul\":1262:1355   */\n  tag_58\n  jump\t// in\ntag_57:\n    /* \"#utility.yul\":1380:1381   */\n  0x04\n    /* \"#utility.yul\":1375:1378   */\n  dup3\n    /* \"#utility.yul\":1371:1382   */\n  add\n    /* \"#utility.yul\":1364:1382   */\n  swap1\n  pop\n    /* \"#utility.yul\":1152:1388   */\n  swap2\n  swap1\n  pop\n  jump\t// out\n    /* \"#utility.yul\":1394:1794   */\ntag_59:\n    /* \"#utility.yul\":1554:1557   */\n  0x00\n    /* \"#utility.yul\":1575:1659   */\n  tag_61\n    /* \"#utility.yul\":1657:1658   */\n  0x05\n    /* \"#utility.yul\":1652:1655   */\n  dup4\n    /* \"#utility.yul\":1575:1659   */\n  tag_56\n  jump\t// in\ntag_61:\n    /* \"#utility.yul\":1568:1659   */\n  swap2\n  pop\n    /* \"#utility.yul\":1668:1761   */\n  tag_62\n    /* \"#utility.yul\":1757:1760   */\n  dup3\n    /* \"#utility.yul\":1668:1761   */\n  tag_63\n  jump\t// in\ntag_62:\n    /* \"#utility.yul\":1786:1787   */\n  0x05\n    /* \"#utility.yul\":1781:1784   */\n  dup3\n    /* \"#utility.yul\":1777:1788   */\n  add\n    /* \"#utility.yul\":1770:1788   */\n  swap1\n  pop\n    /* \"#utility.yul\":1558:1794   */\n  swap2\n  swap1\n  pop\n  jump\t// out\n    /* \"#utility.yul\":1800:2202   */\ntag_64:\n    /* \"#utility.yul\":1960:1963   */\n  0x00\n    /* \"#utility.yul\":1981:2066   */\n  tag_66\n    /* \"#utility.yul\":2063:2065   */\n  0x0b\n    /* \"#utility.yul\":2058:2061   */\n  dup4\n    /* \"#utility.yul\":1981:2066   */\n  tag_56\n  jump\t// in\ntag_66:\n    /* \"#utility.yul\":1974:2066   */\n  swap2\n  pop\n    /* \"#utility.yul\":2075:2168   */\n  tag_67\n    /* \"#utility.yul\":2164:2167   */\n  dup3\n    /* \"#utility.yul\":2075:2168   */\n  tag_68\n  jump\t// in\ntag_67:\n    /* \"#utility.yul\":2193:2195   */\n  0x0b\n    /* \"#utility.yul\":2188:2191   */\n  dup3\n    /* \"#utility.yul\":2184:2196   */\n  add\n    /* \"#utility.yul\":2177:2196   */\n  swap1\n  pop\n    /* \"#utility.yul\":1964:2202   */\n  swap2\n  swap1\n  pop\n  jump\t// out\n    /* \"#utility.yul\":2208:2365   */\ntag_69:\n    /* \"#utility.yul\":2313:2358   */\n  tag_71\n    /* \"#utility.yul\":2333:2357   */\n  tag_72\n    /* \"#utility.yul\":2351:2356   */\n  dup3\n    /* \"#utility.yul\":2333:2357   */\n  tag_73\n  jump\t// in\ntag_72:\n    /* \"#utility.yul\":2313:2358   */\n  tag_74\n  jump\t// in\ntag_71:\n    /* \"#utility.yul\":2308:2311   */\n  dup3\n    /* \"#utility.yul\":2301:2359   */\n  mstore\n    /* \"#utility.yul\":2291:2365   */\n  pop\n  pop\n  jump\t// out\n    /* \"#utility.yul\":2371:2642   */\ntag_9:\n    /* \"#utility.yul\":2501:2504   */\n  0x00\n    /* \"#utility.yul\":2523:2616   */\n  tag_76\n    /* \"#utility.yul\":2612:2615   */\n  dup3\n    /* \"#utility.yul\":2603:2609   */\n  dup5\n    /* \"#utility.yul\":2523:2616   */\n  tag_45\n  jump\t// in\ntag_76:\n    /* \"#utility.yul\":2516:2616   */\n  swap2\n  pop\n    /* \"#utility.yul\":2633:2636   */\n  dup2\n    /* \"#utility.yul\":2626:2636   */\n  swap1\n  pop\n    /* \"#utility.yul\":2505:2642   */\n  swap3\n  swap2\n  pop\n  pop\n  jump\t// out\n    /* \"#utility.yul\":2648:3718   */\ntag_5:\n    /* \"#utility.yul\":3018:3021   */\n  0x00\n    /* \"#utility.yul\":3040:3188   */\n  tag_78\n    /* \"#utility.yul\":3184:3187   */\n  dup3\n    /* \"#utility.yul\":3040:3188   */\n  tag_53\n  jump\t// in\ntag_78:\n    /* \"#utility.yul\":3033:3188   */\n  swap2\n  pop\n    /* \"#utility.yul\":3205:3353   */\n  tag_79\n    /* \"#utility.yul\":3349:3352   */\n  dup3\n    /* \"#utility.yul\":3205:3353   */\n  tag_59\n  jump\t// in\ntag_79:\n    /* \"#utility.yul\":3198:3353   */\n  swap2\n  pop\n    /* \"#utility.yul\":3363:3438   */\n  tag_80\n    /* \"#utility.yul\":3434:3437   */\n  dup3\n    /* \"#utility.yul\":3425:3431   */\n  dup7\n    /* \"#utility.yul\":3363:3438   */\n  tag_69\n  jump\t// in\ntag_80:\n    /* \"#utility.yul\":3463:3465   */\n  0x20\n    /* \"#utility.yul\":3458:3461   */\n  dup3\n    /* \"#utility.yul\":3454:3466   */\n  add\n    /* \"#utility.yul\":3447:3466   */\n  swap2\n  pop\n    /* \"#utility.yul\":3476:3551   */\n  tag_81\n    /* \"#utility.yul\":3547:3550   */\n  dup3\n    /* \"#utility.yul\":3538:3544   */\n  dup6\n    /* \"#utility.yul\":3476:3551   */\n  tag_39\n  jump\t// in\ntag_81:\n    /* \"#utility.yul\":3576:3578   */\n  0x14\n    /* \"#utility.yul\":3571:3574   */\n  dup3\n    /* \"#utility.yul\":3567:3579   */\n  add\n    /* \"#utility.yul\":3560:3579   */\n  swap2\n  pop\n    /* \"#utility.yul\":3589:3664   */\n  tag_82\n    /* \"#utility.yul\":3660:3663   */\n  dup3\n    /* \"#utility.yul\":3651:3657   */\n  dup5\n    /* \"#utility.yul\":3589:3664   */\n  tag_39\n  jump\t// in\ntag_82:\n    /* \"#utility.yul\":3689:3691   */\n  0x14\n    /* \"#utility.yul\":3684:3687   */\n  dup3\n    /* \"#utility.yul\":3680:3692   */\n  add\n    /* \"#utility.yul\":3673:3692   */\n  swap2\n  pop\n    /* \"#utility.yul\":3709:3712   */\n  dup2\n    /* \"#utility.yul\":3702:3712   */\n  swap1\n  pop\n    /* \"#utility.yul\":3022:3718   */\n  swap5\n  swap4\n  pop\n  pop\n  pop\n  pop\n  jump\t// out\n    /* \"#utility.yul\":3724:4105   */\ntag_7:\n    /* \"#utility.yul\":3909:3912   */\n  0x00\n    /* \"#utility.yul\":3931:4079   */\n  tag_84\n    /* \"#utility.yul\":4075:4078   */\n  dup3\n    /* \"#utility.yul\":3931:4079   */\n  tag_64\n  jump\t// in\ntag_84:\n    /* \"#utility.yul\":3924:4079   */\n  swap2\n  pop\n    /* \"#utility.yul\":4096:4099   */\n  dup2\n    /* \"#utility.yul\":4089:4099   */\n  swap1\n  pop\n    /* \"#utility.yul\":3913:4105   */\n  swap2\n  swap1\n  pop\n  jump\t// out\n    /* \"#utility.yul\":4111:4209   */\ntag_48:\n    /* \"#utility.yul\":4162:4168   */\n  0x00\n    /* \"#utility.yul\":4196:4201   */\n  dup2\n    /* \"#utility.yul\":4190:4202   */\n  mload\n    /* \"#utility.yul\":4180:4202   */\n  swap1\n  pop\n    /* \"#utility.yul\":4169:4209   */\n  swap2\n  swap1\n  pop\n  jump\t// out\n    /* \"#utility.yul\":4215:4362   */\ntag_50:\n    /* \"#utility.yul\":4316:4327   */\n  0x00\n    /* \"#utility.yul\":4353:4356   */\n  dup2\n    /* \"#utility.yul\":4338:4356   */\n  swap1\n  pop\n    /* \"#utility.yul\":4328:4362   */\n  swap3\n  swap2\n  pop\n  pop\n  jump\t// out\n    /* \"#utility.yul\":4368:4516   */\ntag_56:\n    /* \"#utility.yul\":4470:4481   */\n  0x00\n    /* \"#utility.yul\":4507:4510   */\n  dup2\n    /* \"#utility.yul\":4492:4510   */\n  swap1\n  pop\n    /* \"#utility.yul\":4482:4516   */\n  swap3\n  swap2\n  pop\n  pop\n  jump\t// out\n    /* \"#utility.yul\":4522:4618   */\ntag_43:\n    /* \"#utility.yul\":4559:4566   */\n  0x00\n    /* \"#utility.yul\":4588:4612   */\n  tag_89\n    /* \"#utility.yul\":4606:4611   */\n  dup3\n    /* \"#utility.yul\":4588:4612   */\n  tag_90\n  jump\t// in\ntag_89:\n    /* \"#utility.yul\":4577:4612   */\n  swap1\n  pop\n    /* \"#utility.yul\":4567:4618   */\n  swap2\n  swap1\n  pop\n  jump\t// out\n    /* \"#utility.yul\":4624:4701   */\ntag_91:\n    /* \"#utility.yul\":4661:4668   */\n  0x00\n    /* \"#utility.yul\":4690:4695   */\n  dup2\n    /* \"#utility.yul\":4679:4695   */\n  swap1\n  pop\n    /* \"#utility.yul\":4669:4701   */\n  swap2\n  swap1\n  pop\n  jump\t// out\n    /* \"#utility.yul\":4707:4833   */\ntag_90:\n    /* \"#utility.yul\":4744:4751   */\n  0x00\n    /* \"#utility.yul\":4784:4826   */\n  0xffffffffffffffffffffffffffffffffffffffff\n    /* \"#utility.yul\":4777:4782   */\n  dup3\n    /* \"#utility.yul\":4773:4827   */\n  and\n    /* \"#utility.yul\":4762:4827   */\n  swap1\n  pop\n    /* \"#utility.yul\":4752:4833   */\n  swap2\n  swap1\n  pop\n  jump\t// out\n    /* \"#utility.yul\":4839:4916   */\ntag_73:\n    /* \"#utility.yul\":4876:4883   */\n  0x00\n    /* \"#utility.yul\":4905:4910   */\n  dup2\n    /* \"#utility.yul\":4894:4910   */\n  swap1\n  pop\n    /* \"#utility.yul\":4884:4916   */\n  swap2\n  swap1\n  pop\n  jump\t// out\n    /* \"#utility.yul\":4922:5229   */\ntag_52:\n    /* \"#utility.yul\":4990:4991   */\n  0x00\n    /* \"#utility.yul\":5000:5113   */\ntag_96:\n    /* \"#utility.yul\":5014:5020   */\n  dup4\n    /* \"#utility.yul\":5011:5012   */\n  dup2\n    /* \"#utility.yul\":5008:5021   */\n  lt\n    /* \"#utility.yul\":5000:5113   */\n  iszero\n  tag_98\n  jumpi\n    /* \"#utility.yul\":5099:5100   */\n  dup1\n    /* \"#utility.yul\":5094:5097   */\n  dup3\n    /* \"#utility.yul\":5090:5101   */\n  add\n    /* \"#utility.yul\":5084:5102   */\n  mload\n    /* \"#utility.yul\":5080:5081   */\n  dup2\n    /* \"#utility.yul\":5075:5078   */\n  dup5\n    /* \"#utility.yul\":5071:5082   */\n  add\n    /* \"#utility.yul\":5064:5103   */\n  mstore\n    /* \"#utility.yul\":5036:5038   */\n  0x20\n    /* \"#utility.yul\":5033:5034   */\n  dup2\n    /* \"#utility.yul\":5029:5039   */\n  add\n    /* \"#utility.yul\":5024:5039   */\n  swap1\n  pop\n    /* \"#utility.yul\":5000:5113   */\n  jump(tag_96)\ntag_98:\n    /* \"#utility.yul\":5131:5137   */\n  dup4\n    /* \"#utility.yul\":5128:5129   */\n  dup2\n    /* \"#utility.yul\":5125:5138   */\n  gt\n    /* \"#utility.yul\":5122:5124   */\n  iszero\n  tag_99\n  jumpi\n    /* \"#utility.yul\":5211:5212   */\n  0x00\n    /* \"#utility.yul\":5202:5208   */\n  dup5\n    /* \"#utility.yul\":5197:5200   */\n  dup5\n    /* \"#utility.yul\":5193:5209   */\n  add\n    /* \"#utility.yul\":5186:5213   */\n  mstore\n    /* \"#utility.yul\":5122:5124   */\ntag_99:\n    /* \"#utility.yul\":4971:5229   */\n  pop\n  pop\n  pop\n  pop\n  jump\t// out\n    /* \"#utility.yul\":5235:5555   */\ntag_21:\n    /* \"#utility.yul\":5279:5285   */\n  0x00\n    /* \"#utility.yul\":5316:5317   */\n  0x02\n    /* \"#utility.yul\":5310:5314   */\n  dup3\n    /* \"#utility.yul\":5306:5318   */\n  div\n    /* \"#utility.yul\":5296:5318   */\n  swap1\n  pop\n    /* \"#utility.yul\":5363:5364   */\n  0x01\n    /* \"#utility.yul\":5357:5361   */\n  dup3\n    /* \"#utility.yul\":5353:5365   */\n  and\n    /* \"#utility.yul\":5384:5402   */\n  dup1\n    /* \"#utility.yul\":5374:5376   */\n  tag_101\n  jumpi\n    /* \"#utility.yul\":5440:5444   */\n  0x7f\n    /* \"#utility.yul\":5432:5438   */\n  dup3\n    /* \"#utility.yul\":5428:5445   */\n  and\n    /* \"#utility.yul\":5418:5445   */\n  swap2\n  pop\n    /* \"#utility.yul\":5374:5376   */\ntag_101:\n    /* \"#utility.yul\":5502:5504   */\n  0x20\n    /* \"#utility.yul\":5494:5500   */\n  dup3\n    /* \"#utility.yul\":5491:5505   */\n  lt\n    /* \"#utility.yul\":5471:5489   */\n  dup2\n    /* \"#utility.yul\":5468:5506   */\n  eq\n    /* \"#utility.yul\":5465:5467   */\n  iszero\n  tag_102\n  jumpi\n    /* \"#utility.yul\":5521:5539   */\n  tag_103\n  tag_104\n  jump\t// in\ntag_103:\n    /* \"#utility.yul\":5465:5467   */\ntag_102:\n    /* \"#utility.yul\":5286:5555   */\n  pop\n  swap2\n  swap1\n  pop\n  jump\t// out\n    /* \"#utility.yul\":5561:5661   */\ntag_44:\n    /* \"#utility.yul\":5600:5607   */\n  0x00\n    /* \"#utility.yul\":5629:5655   */\n  tag_106\n    /* \"#utility.yul\":5649:5654   */\n  dup3\n    /* \"#utility.yul\":5629:5655   */\n  tag_107\n  jump\t// in\ntag_106:\n    /* \"#utility.yul\":5618:5655   */\n  swap1\n  pop\n    /* \"#utility.yul\":5608:5661   */\n  swap2\n  swap1\n  pop\n  jump\t// out\n    /* \"#utility.yul\":5667:5761   */\ntag_107:\n    /* \"#utility.yul\":5706:5713   */\n  0x00\n    /* \"#utility.yul\":5735:5755   */\n  tag_109\n    /* \"#utility.yul\":5749:5754   */\n  dup3\n    /* \"#utility.yul\":5735:5755   */\n  tag_110\n  jump\t// in\ntag_109:\n    /* \"#utility.yul\":5724:5755   */\n  swap1\n  pop\n    /* \"#utility.yul\":5714:5761   */\n  swap2\n  swap1\n  pop\n  jump\t// out\n    /* \"#utility.yul\":5767:5846   */\ntag_74:\n    /* \"#utility.yul\":5806:5813   */\n  0x00\n    /* \"#utility.yul\":5835:5840   */\n  dup2\n    /* \"#utility.yul\":5824:5840   */\n  swap1\n  pop\n    /* \"#utility.yul\":5814:5846   */\n  swap2\n  swap1\n  pop\n  jump\t// out\n    /* \"#utility.yul\":5852:6032   */\ntag_104:\n    /* \"#utility.yul\":5900:5977   */\n  0x4e487b7100000000000000000000000000000000000000000000000000000000\n    /* \"#utility.yul\":5897:5898   */\n  0x00\n    /* \"#utility.yul\":5890:5978   */\n  mstore\n    /* \"#utility.yul\":5997:6001   */\n  0x22\n    /* \"#utility.yul\":5994:5995   */\n  0x04\n    /* \"#utility.yul\":5987:6002   */\n  mstore\n    /* \"#utility.yul\":6021:6025   */\n  0x24\n    /* \"#utility.yul\":6018:6019   */\n  0x00\n    /* \"#utility.yul\":6011:6026   */\n  revert\n    /* \"#utility.yul\":6038:6132   */\ntag_110:\n    /* \"#utility.yul\":6071:6079   */\n  0x00\n    /* \"#utility.yul\":6119:6124   */\n  dup2\n    /* \"#utility.yul\":6115:6117   */\n  0x60\n    /* \"#utility.yul\":6111:6125   */\n  shl\n    /* \"#utility.yul\":6090:6125   */\n  swap1\n  pop\n    /* \"#utility.yul\":6080:6132   */\n  swap2\n  swap1\n  pop\n  jump\t// out\n    /* \"#utility.yul\":6138:6292   */\ntag_58:\n    /* \"#utility.yul\":6278:6284   */\n  0x486f6c6100000000000000000000000000000000000000000000000000000000\n    /* \"#utility.yul\":6274:6275   */\n  0x00\n    /* \"#utility.yul\":6266:6272   */\n  dup3\n    /* \"#utility.yul\":6262:6276   */\n  add\n    /* \"#utility.yul\":6255:6285   */\n  mstore\n    /* \"#utility.yul\":6244:6292   */\n  pop\n  jump\t// out\n    /* \"#utility.yul\":6298:6453   */\ntag_63:\n    /* \"#utility.yul\":6438:6445   */\n  0x5061626c6f000000000000000000000000000000000000000000000000000000\n    /* \"#utility.yul\":6434:6435   */\n  0x00\n    /* \"#utility.yul\":6426:6432   */\n  dup3\n    /* \"#utility.yul\":6422:6436   */\n  add\n    /* \"#utility.yul\":6415:6446   */\n  mstore\n    /* \"#utility.yul\":6404:6453   */\n  pop\n  jump\t// out\n    /* \"#utility.yul\":6459:6620   */\ntag_68:\n    /* \"#utility.yul\":6599:6612   */\n  0x48656c6c6f20776f726c64000000000000000000000000000000000000000000\n    /* \"#utility.yul\":6595:6596   */\n  0x00\n    /* \"#utility.yul\":6587:6593   */\n  dup3\n    /* \"#utility.yul\":6583:6597   */\n  add\n    /* \"#utility.yul\":6576:6613   */\n  mstore\n    /* \"#utility.yul\":6565:6620   */\n  pop\n  jump\t// out\n    /* \"#utility.yul\":6626:6748   */\ntag_35:\n    /* \"#utility.yul\":6699:6723   */\n  tag_118\n    /* \"#utility.yul\":6717:6722   */\n  dup2\n    /* \"#utility.yul\":6699:6723   */\n  tag_91\n  jump\t// in\ntag_118:\n    /* \"#utility.yul\":6692:6697   */\n  dup2\n    /* \"#utility.yul\":6689:6724   */\n  eq\n    /* \"#utility.yul\":6679:6681   */\n  tag_119\n  jumpi\n    /* \"#utility.yul\":6738:6739   */\n  0x00\n    /* \"#utility.yul\":6735:6736   */\n  dup1\n    /* \"#utility.yul\":6728:6740   */\n  revert\n    /* \"#utility.yul\":6679:6681   */\ntag_119:\n    /* \"#utility.yul\":6669:6748   */\n  pop\n  jump\t// out\n    /* \"contracts/2_variables_modifiers.sol\":60:1570  contract variables_modifiers {\r... */\ntag_19:\n  dataSize(sub_0)\n  dup1\n  dataOffset(sub_0)\n  0x00\n  codecopy\n  0x00\n  return\nstop\n\nsub_0: assembly {\n        /* \"contracts/2_variables_modifiers.sol\":60:1570  contract variables_modifiers {\r... */\n      mstore(0x40, 0x80)\n      callvalue\n      dup1\n      iszero\n      tag_1\n      jumpi\n      0x00\n      dup1\n      revert\n    tag_1:\n      pop\n      jumpi(tag_2, lt(calldatasize, 0x04))\n      shr(0xe0, calldataload(0x00))\n      dup1\n      0x8a054ac2\n      gt\n      tag_16\n      jumpi\n      dup1\n      0xb83d07b7\n      gt\n      tag_17\n      jumpi\n      dup1\n      0xb83d07b7\n      eq\n      tag_12\n      jumpi\n      dup1\n      0xba33ed7d\n      eq\n      tag_13\n      jumpi\n      dup1\n      0xc7109d04\n      eq\n      tag_14\n      jumpi\n      dup1\n      0xcd97d84e\n      eq\n      tag_15\n      jumpi\n      jump(tag_2)\n    tag_17:\n      dup1\n      0x8a054ac2\n      eq\n      tag_9\n      jumpi\n      dup1\n      0x9eea4a3a\n      eq\n      tag_10\n      jumpi\n      dup1\n      0xb654b765\n      eq\n      tag_11\n      jumpi\n      jump(tag_2)\n    tag_16:\n      dup1\n      0x312eef29\n      eq\n      tag_3\n      jumpi\n      dup1\n      0x3a36399e\n      eq\n      tag_4\n      jumpi\n      dup1\n      0x444f263f\n      eq\n      tag_5\n      jumpi\n      dup1\n      0x4df7e3d0\n      eq\n      tag_6\n      jumpi\n      dup1\n      0x7272eea1\n      eq\n      tag_7\n      jumpi\n      dup1\n      0x730b07b1\n      eq\n      tag_8\n      jumpi\n    tag_2:\n      0x00\n      dup1\n      revert\n        /* \"contracts/2_variables_modifiers.sol\":471:502  bool public boolean_true = true */\n    tag_3:\n      tag_18\n      tag_19\n      jump\t// in\n    tag_18:\n      mload(0x40)\n      tag_20\n      swap2\n      swap1\n      tag_21\n      jump\t// in\n    tag_20:\n      mload(0x40)\n      dup1\n      swap2\n      sub\n      swap1\n      return\n        /* \"contracts/2_variables_modifiers.sol\":1055:1123  address public address1 = 0x5B38Da6a701c568545dCfcB03FcB875f56beddC4 */\n    tag_4:\n      tag_22\n      tag_23\n      jump\t// in\n    tag_22:\n      mload(0x40)\n      tag_24\n      swap2\n      swap1\n      tag_25\n      jump\t// in\n    tag_24:\n      mload(0x40)\n      dup1\n      swap2\n      sub\n      swap1\n      return\n        /* \"contracts/2_variables_modifiers.sol\":907:986  bytes20 public hashing_ripeMD160 = ripemd160(abi.encodePacked((\"Hello world\"))) */\n    tag_5:\n      tag_26\n      tag_27\n      jump\t// in\n    tag_26:\n      mload(0x40)\n      tag_28\n      swap2\n      swap1\n      tag_29\n      jump\t// in\n    tag_28:\n      mload(0x40)\n      dup1\n      swap2\n      sub\n      swap1\n      return\n        /* \"contracts/2_variables_modifiers.sol\":154:172  uint8 public b = 3 */\n    tag_6:\n      tag_30\n      tag_31\n      jump\t// in\n    tag_30:\n      mload(0x40)\n      tag_32\n      swap2\n      swap1\n      tag_33\n      jump\t// in\n    tag_32:\n      mload(0x40)\n      dup1\n      swap2\n      sub\n      swap1\n      return\n        /* \"contracts/2_variables_modifiers.sol\":1481:1564  function displayState() public view returns(options){\r... */\n    tag_7:\n      tag_34\n      tag_35\n      jump\t// in\n    tag_34:\n      mload(0x40)\n      tag_36\n      swap2\n      swap1\n      tag_37\n      jump\t// in\n    tag_36:\n      mload(0x40)\n      dup1\n      swap2\n      sub\n      swap1\n      return\n        /* \"contracts/2_variables_modifiers.sol\":625:650  bytes1 public byte1 = \"4\" */\n    tag_8:\n      tag_38\n      tag_39\n      jump\t// in\n    tag_38:\n      mload(0x40)\n      tag_40\n      swap2\n      swap1\n      tag_41\n      jump\t// in\n    tag_40:\n      mload(0x40)\n      dup1\n      swap2\n      sub\n      swap1\n      return\n        /* \"contracts/2_variables_modifiers.sol\":235:254  int8 public d = -32 */\n    tag_9:\n      tag_42\n      tag_43\n      jump\t// in\n    tag_42:\n      mload(0x40)\n      tag_44\n      swap2\n      swap1\n      tag_45\n      jump\t// in\n    tag_44:\n      mload(0x40)\n      dup1\n      swap2\n      sub\n      swap1\n      return\n        /* \"contracts/2_variables_modifiers.sol\":1130:1166  address public address2 = msg.sender */\n    tag_10:\n      tag_46\n      tag_47\n      jump\t// in\n    tag_46:\n      mload(0x40)\n      tag_48\n      swap2\n      swap1\n      tag_25\n      jump\t// in\n    tag_48:\n      mload(0x40)\n      dup1\n      swap2\n      sub\n      swap1\n      return\n        /* \"contracts/2_variables_modifiers.sol\":1410:1473  function turnOf() public {\r... */\n    tag_11:\n      tag_49\n      tag_50\n      jump\t// in\n    tag_49:\n      stop\n        /* \"contracts/2_variables_modifiers.sol\":323:367  string public str_public = \"Esto es publico\" */\n    tag_12:\n      tag_51\n      tag_52\n      jump\t// in\n    tag_51:\n      mload(0x40)\n      tag_53\n      swap2\n      swap1\n      tag_54\n      jump\t// in\n    tag_53:\n      mload(0x40)\n      dup1\n      swap2\n      sub\n      swap1\n      return\n        /* \"contracts/2_variables_modifiers.sol\":1338:1400  function turnOn() public {\r... */\n    tag_13:\n      tag_55\n      tag_56\n      jump\t// in\n    tag_55:\n      stop\n        /* \"contracts/2_variables_modifiers.sol\":829:900  bytes32 public hashing_sha256 = sha256(abi.encodePacked(\"Hello world\")) */\n    tag_14:\n      tag_57\n      tag_58\n      jump\t// in\n    tag_57:\n      mload(0x40)\n      tag_59\n      swap2\n      swap1\n      tag_60\n      jump\t// in\n    tag_59:\n      mload(0x40)\n      dup1\n      swap2\n      sub\n      swap1\n      return\n        /* \"contracts/2_variables_modifiers.sol\":687:822  bytes32 public hashing = keccak256(abi.encodePacked(\"Hola\", \"Pablo\", uint(10), msg.sender, 0x5B38Da6a701c568545dCfcB03FcB875f56beddC4)) */\n    tag_15:\n      tag_61\n      tag_62\n      jump\t// in\n    tag_61:\n      mload(0x40)\n      tag_63\n      swap2\n      swap1\n      tag_60\n      jump\t// in\n    tag_63:\n      mload(0x40)\n      dup1\n      swap2\n      sub\n      swap1\n      return\n        /* \"contracts/2_variables_modifiers.sol\":471:502  bool public boolean_true = true */\n    tag_19:\n      0x08\n      0x01\n      swap1\n      sload\n      swap1\n      0x0100\n      exp\n      swap1\n      div\n      0xff\n      and\n      dup2\n      jump\t// out\n        /* \"contracts/2_variables_modifiers.sol\":1055:1123  address public address1 = 0x5B38Da6a701c568545dCfcB03FcB875f56beddC4 */\n    tag_23:\n      0x0f\n      0x00\n      swap1\n      sload\n      swap1\n      0x0100\n      exp\n      swap1\n      div\n      0xffffffffffffffffffffffffffffffffffffffff\n      and\n      dup2\n      jump\t// out\n        /* \"contracts/2_variables_modifiers.sol\":907:986  bytes20 public hashing_ripeMD160 = ripemd160(abi.encodePacked((\"Hello world\"))) */\n    tag_27:\n      0x0d\n      0x00\n      swap1\n      sload\n      swap1\n      0x0100\n      exp\n      swap1\n      div\n      0x60\n      shl\n      dup2\n      jump\t// out\n        /* \"contracts/2_variables_modifiers.sol\":154:172  uint8 public b = 3 */\n    tag_31:\n      0x01\n      0x00\n      swap1\n      sload\n      swap1\n      0x0100\n      exp\n      swap1\n      div\n      0xff\n      and\n      dup2\n      jump\t// out\n        /* \"contracts/2_variables_modifiers.sol\":1481:1564  function displayState() public view returns(options){\r... */\n    tag_35:\n        /* \"contracts/2_variables_modifiers.sol\":1525:1532  options */\n      0x00\n        /* \"contracts/2_variables_modifiers.sol\":1551:1556  state */\n      0x10\n      0x14\n      swap1\n      sload\n      swap1\n      0x0100\n      exp\n      swap1\n      div\n      0xff\n      and\n        /* \"contracts/2_variables_modifiers.sol\":1544:1556  return state */\n      swap1\n      pop\n        /* \"contracts/2_variables_modifiers.sol\":1481:1564  function displayState() public view returns(options){\r... */\n      swap1\n      jump\t// out\n        /* \"contracts/2_variables_modifiers.sol\":625:650  bytes1 public byte1 = \"4\" */\n    tag_39:\n      0x0a\n      0x04\n      swap1\n      sload\n      swap1\n      0x0100\n      exp\n      swap1\n      div\n      0xf8\n      shl\n      dup2\n      jump\t// out\n        /* \"contracts/2_variables_modifiers.sol\":235:254  int8 public d = -32 */\n    tag_43:\n      0x03\n      0x00\n      swap1\n      sload\n      swap1\n      0x0100\n      exp\n      swap1\n      div\n      0x00\n      signextend\n      dup2\n      jump\t// out\n        /* \"contracts/2_variables_modifiers.sol\":1130:1166  address public address2 = msg.sender */\n    tag_47:\n      0x10\n      0x00\n      swap1\n      sload\n      swap1\n      0x0100\n      exp\n      swap1\n      div\n      0xffffffffffffffffffffffffffffffffffffffff\n      and\n      dup2\n      jump\t// out\n        /* \"contracts/2_variables_modifiers.sol\":1410:1473  function turnOf() public {\r... */\n    tag_50:\n        /* \"contracts/2_variables_modifiers.sol\":1454:1465  options.off */\n      0x01\n        /* \"contracts/2_variables_modifiers.sol\":1446:1451  state */\n      0x10\n      0x14\n        /* \"contracts/2_variables_modifiers.sol\":1446:1465  state = options.off */\n      0x0100\n      exp\n      dup2\n      sload\n      dup2\n      0xff\n      mul\n      not\n      and\n      swap1\n      dup4\n      0x01\n      dup2\n      gt\n      iszero\n      tag_66\n      jumpi\n      mstore(0x00, 0x4e487b7100000000000000000000000000000000000000000000000000000000)\n      mstore(0x04, 0x21)\n      revert(0x00, 0x24)\n    tag_66:\n      mul\n      or\n      swap1\n      sstore\n      pop\n        /* \"contracts/2_variables_modifiers.sol\":1410:1473  function turnOf() public {\r... */\n      jump\t// out\n        /* \"contracts/2_variables_modifiers.sol\":323:367  string public str_public = \"Esto es publico\" */\n    tag_52:\n      0x06\n      dup1\n      sload\n      tag_67\n      swap1\n      tag_68\n      jump\t// in\n    tag_67:\n      dup1\n      0x1f\n      add\n      0x20\n      dup1\n      swap2\n      div\n      mul\n      0x20\n      add\n      mload(0x40)\n      swap1\n      dup2\n      add\n      0x40\n      mstore\n      dup1\n      swap3\n      swap2\n      swap1\n      dup2\n      dup2\n      mstore\n      0x20\n      add\n      dup3\n      dup1\n      sload\n      tag_69\n      swap1\n      tag_68\n      jump\t// in\n    tag_69:\n      dup1\n      iszero\n      tag_70\n      jumpi\n      dup1\n      0x1f\n      lt\n      tag_71\n      jumpi\n      0x0100\n      dup1\n      dup4\n      sload\n      div\n      mul\n      dup4\n      mstore\n      swap2\n      0x20\n      add\n      swap2\n      jump(tag_70)\n    tag_71:\n      dup3\n      add\n      swap2\n      swap1\n      0x00\n      mstore\n      keccak256(0x00, 0x20)\n      swap1\n    tag_72:\n      dup2\n      sload\n      dup2\n      mstore\n      swap1\n      0x01\n      add\n      swap1\n      0x20\n      add\n      dup1\n      dup4\n      gt\n      tag_72\n      jumpi\n      dup3\n      swap1\n      sub\n      0x1f\n      and\n      dup3\n      add\n      swap2\n    tag_70:\n      pop\n      pop\n      pop\n      pop\n      pop\n      dup2\n      jump\t// out\n        /* \"contracts/2_variables_modifiers.sol\":1338:1400  function turnOn() public {\r... */\n    tag_56:\n        /* \"contracts/2_variables_modifiers.sol\":1382:1392  options.on */\n      0x00\n        /* \"contracts/2_variables_modifiers.sol\":1374:1379  state */\n      0x10\n      0x14\n        /* \"contracts/2_variables_modifiers.sol\":1374:1392  state = options.on */\n      0x0100\n      exp\n      dup2\n      sload\n      dup2\n      0xff\n      mul\n      not\n      and\n      swap1\n      dup4\n      0x01\n      dup2\n      gt\n      iszero\n      tag_74\n      jumpi\n      mstore(0x00, 0x4e487b7100000000000000000000000000000000000000000000000000000000)\n      mstore(0x04, 0x21)\n      revert(0x00, 0x24)\n    tag_74:\n      mul\n      or\n      swap1\n      sstore\n      pop\n        /* \"contracts/2_variables_modifiers.sol\":1338:1400  function turnOn() public {\r... */\n      jump\t// out\n        /* \"contracts/2_variables_modifiers.sol\":829:900  bytes32 public hashing_sha256 = sha256(abi.encodePacked(\"Hello world\")) */\n    tag_58:\n      sload(0x0c)\n      dup2\n      jump\t// out\n        /* \"contracts/2_variables_modifiers.sol\":687:822  bytes32 public hashing = keccak256(abi.encodePacked(\"Hola\", \"Pablo\", uint(10), msg.sender, 0x5B38Da6a701c568545dCfcB03FcB875f56beddC4)) */\n    tag_62:\n      sload(0x0b)\n      dup2\n      jump\t// out\n        /* \"#utility.yul\":7:125   */\n    tag_76:\n        /* \"#utility.yul\":94:118   */\n      tag_78\n        /* \"#utility.yul\":112:117   */\n      dup2\n        /* \"#utility.yul\":94:118   */\n      tag_79\n      jump\t// in\n    tag_78:\n        /* \"#utility.yul\":89:92   */\n      dup3\n        /* \"#utility.yul\":82:119   */\n      mstore\n        /* \"#utility.yul\":72:125   */\n      pop\n      pop\n      jump\t// out\n        /* \"#utility.yul\":131:240   */\n    tag_80:\n        /* \"#utility.yul\":212:233   */\n      tag_82\n        /* \"#utility.yul\":227:232   */\n      dup2\n        /* \"#utility.yul\":212:233   */\n      tag_83\n      jump\t// in\n    tag_82:\n        /* \"#utility.yul\":207:210   */\n      dup3\n        /* \"#utility.yul\":200:234   */\n      mstore\n        /* \"#utility.yul\":190:240   */\n      pop\n      pop\n      jump\t// out\n        /* \"#utility.yul\":246:361   */\n    tag_84:\n        /* \"#utility.yul\":331:354   */\n      tag_86\n        /* \"#utility.yul\":348:353   */\n      dup2\n        /* \"#utility.yul\":331:354   */\n      tag_87\n      jump\t// in\n    tag_86:\n        /* \"#utility.yul\":326:329   */\n      dup3\n        /* \"#utility.yul\":319:355   */\n      mstore\n        /* \"#utility.yul\":309:361   */\n      pop\n      pop\n      jump\t// out\n        /* \"#utility.yul\":367:485   */\n    tag_88:\n        /* \"#utility.yul\":454:478   */\n      tag_90\n        /* \"#utility.yul\":472:477   */\n      dup2\n        /* \"#utility.yul\":454:478   */\n      tag_91\n      jump\t// in\n    tag_90:\n        /* \"#utility.yul\":449:452   */\n      dup3\n        /* \"#utility.yul\":442:479   */\n      mstore\n        /* \"#utility.yul\":432:485   */\n      pop\n      pop\n      jump\t// out\n        /* \"#utility.yul\":491:609   */\n    tag_92:\n        /* \"#utility.yul\":578:602   */\n      tag_94\n        /* \"#utility.yul\":596:601   */\n      dup2\n        /* \"#utility.yul\":578:602   */\n      tag_95\n      jump\t// in\n    tag_94:\n        /* \"#utility.yul\":573:576   */\n      dup3\n        /* \"#utility.yul\":566:603   */\n      mstore\n        /* \"#utility.yul\":556:609   */\n      pop\n      pop\n      jump\t// out\n        /* \"#utility.yul\":615:762   */\n    tag_96:\n        /* \"#utility.yul\":710:755   */\n      tag_98\n        /* \"#utility.yul\":749:754   */\n      dup2\n        /* \"#utility.yul\":710:755   */\n      tag_99\n      jump\t// in\n    tag_98:\n        /* \"#utility.yul\":705:708   */\n      dup3\n        /* \"#utility.yul\":698:756   */\n      mstore\n        /* \"#utility.yul\":688:762   */\n      pop\n      pop\n      jump\t// out\n        /* \"#utility.yul\":768:877   */\n    tag_100:\n        /* \"#utility.yul\":849:870   */\n      tag_102\n        /* \"#utility.yul\":864:869   */\n      dup2\n        /* \"#utility.yul\":849:870   */\n      tag_103\n      jump\t// in\n    tag_102:\n        /* \"#utility.yul\":844:847   */\n      dup3\n        /* \"#utility.yul\":837:871   */\n      mstore\n        /* \"#utility.yul\":827:877   */\n      pop\n      pop\n      jump\t// out\n        /* \"#utility.yul\":883:1247   */\n    tag_104:\n        /* \"#utility.yul\":971:974   */\n      0x00\n        /* \"#utility.yul\":999:1038   */\n      tag_106\n        /* \"#utility.yul\":1032:1037   */\n      dup3\n        /* \"#utility.yul\":999:1038   */\n      tag_107\n      jump\t// in\n    tag_106:\n        /* \"#utility.yul\":1054:1125   */\n      tag_108\n        /* \"#utility.yul\":1118:1124   */\n      dup2\n        /* \"#utility.yul\":1113:1116   */\n      dup6\n        /* \"#utility.yul\":1054:1125   */\n      tag_109\n      jump\t// in\n    tag_108:\n        /* \"#utility.yul\":1047:1125   */\n      swap4\n      pop\n        /* \"#utility.yul\":1134:1186   */\n      tag_110\n        /* \"#utility.yul\":1179:1185   */\n      dup2\n        /* \"#utility.yul\":1174:1177   */\n      dup6\n        /* \"#utility.yul\":1167:1171   */\n      0x20\n        /* \"#utility.yul\":1160:1165   */\n      dup7\n        /* \"#utility.yul\":1156:1172   */\n      add\n        /* \"#utility.yul\":1134:1186   */\n      tag_111\n      jump\t// in\n    tag_110:\n        /* \"#utility.yul\":1211:1240   */\n      tag_112\n        /* \"#utility.yul\":1233:1239   */\n      dup2\n        /* \"#utility.yul\":1211:1240   */\n      tag_113\n      jump\t// in\n    tag_112:\n        /* \"#utility.yul\":1206:1209   */\n      dup5\n        /* \"#utility.yul\":1202:1241   */\n      add\n        /* \"#utility.yul\":1195:1241   */\n      swap2\n      pop\n        /* \"#utility.yul\":975:1247   */\n      pop\n      swap3\n      swap2\n      pop\n      pop\n      jump\t// out\n        /* \"#utility.yul\":1253:1365   */\n    tag_114:\n        /* \"#utility.yul\":1336:1358   */\n      tag_116\n        /* \"#utility.yul\":1352:1357   */\n      dup2\n        /* \"#utility.yul\":1336:1358   */\n      tag_117\n      jump\t// in\n    tag_116:\n        /* \"#utility.yul\":1331:1334   */\n      dup3\n        /* \"#utility.yul\":1324:1359   */\n      mstore\n        /* \"#utility.yul\":1314:1365   */\n      pop\n      pop\n      jump\t// out\n        /* \"#utility.yul\":1371:1593   */\n    tag_25:\n        /* \"#utility.yul\":1464:1468   */\n      0x00\n        /* \"#utility.yul\":1502:1504   */\n      0x20\n        /* \"#utility.yul\":1491:1500   */\n      dup3\n        /* \"#utility.yul\":1487:1505   */\n      add\n        /* \"#utility.yul\":1479:1505   */\n      swap1\n      pop\n        /* \"#utility.yul\":1515:1586   */\n      tag_119\n        /* \"#utility.yul\":1583:1584   */\n      0x00\n        /* \"#utility.yul\":1572:1581   */\n      dup4\n        /* \"#utility.yul\":1568:1585   */\n      add\n        /* \"#utility.yul\":1559:1565   */\n      dup5\n        /* \"#utility.yul\":1515:1586   */\n      tag_76\n      jump\t// in\n    tag_119:\n        /* \"#utility.yul\":1469:1593   */\n      swap3\n      swap2\n      pop\n      pop\n      jump\t// out\n        /* \"#utility.yul\":1599:1809   */\n    tag_21:\n        /* \"#utility.yul\":1686:1690   */\n      0x00\n        /* \"#utility.yul\":1724:1726   */\n      0x20\n        /* \"#utility.yul\":1713:1722   */\n      dup3\n        /* \"#utility.yul\":1709:1727   */\n      add\n        /* \"#utility.yul\":1701:1727   */\n      swap1\n      pop\n        /* \"#utility.yul\":1737:1802   */\n      tag_121\n        /* \"#utility.yul\":1799:1800   */\n      0x00\n        /* \"#utility.yul\":1788:1797   */\n      dup4\n        /* \"#utility.yul\":1784:1801   */\n      add\n        /* \"#utility.yul\":1775:1781   */\n      dup5\n        /* \"#utility.yul\":1737:1802   */\n      tag_80\n      jump\t// in\n    tag_121:\n        /* \"#utility.yul\":1691:1809   */\n      swap3\n      swap2\n      pop\n      pop\n      jump\t// out\n        /* \"#utility.yul\":1815:2033   */\n    tag_41:\n        /* \"#utility.yul\":1906:1910   */\n      0x00\n        /* \"#utility.yul\":1944:1946   */\n      0x20\n        /* \"#utility.yul\":1933:1942   */\n      dup3\n        /* \"#utility.yul\":1929:1947   */\n      add\n        /* \"#utility.yul\":1921:1947   */\n      swap1\n      pop\n        /* \"#utility.yul\":1957:2026   */\n      tag_123\n        /* \"#utility.yul\":2023:2024   */\n      0x00\n        /* \"#utility.yul\":2012:2021   */\n      dup4\n        /* \"#utility.yul\":2008:2025   */\n      add\n        /* \"#utility.yul\":1999:2005   */\n      dup5\n        /* \"#utility.yul\":1957:2026   */\n      tag_84\n      jump\t// in\n    tag_123:\n        /* \"#utility.yul\":1911:2033   */\n      swap3\n      swap2\n      pop\n      pop\n      jump\t// out\n        /* \"#utility.yul\":2039:2261   */\n    tag_29:\n        /* \"#utility.yul\":2132:2136   */\n      0x00\n        /* \"#utility.yul\":2170:2172   */\n      0x20\n        /* \"#utility.yul\":2159:2168   */\n      dup3\n        /* \"#utility.yul\":2155:2173   */\n      add\n        /* \"#utility.yul\":2147:2173   */\n      swap1\n      pop\n        /* \"#utility.yul\":2183:2254   */\n      tag_125\n        /* \"#utility.yul\":2251:2252   */\n      0x00\n        /* \"#utility.yul\":2240:2249   */\n      dup4\n        /* \"#utility.yul\":2236:2253   */\n      add\n        /* \"#utility.yul\":2227:2233   */\n      dup5\n        /* \"#utility.yul\":2183:2254   */\n      tag_88\n      jump\t// in\n    tag_125:\n        /* \"#utility.yul\":2137:2261   */\n      swap3\n      swap2\n      pop\n      pop\n      jump\t// out\n        /* \"#utility.yul\":2267:2489   */\n    tag_60:\n        /* \"#utility.yul\":2360:2364   */\n      0x00\n        /* \"#utility.yul\":2398:2400   */\n      0x20\n        /* \"#utility.yul\":2387:2396   */\n      dup3\n        /* \"#utility.yul\":2383:2401   */\n      add\n        /* \"#utility.yul\":2375:2401   */\n      swap1\n      pop\n        /* \"#utility.yul\":2411:2482   */\n      tag_127\n        /* \"#utility.yul\":2479:2480   */\n      0x00\n        /* \"#utility.yul\":2468:2477   */\n      dup4\n        /* \"#utility.yul\":2464:2481   */\n      add\n        /* \"#utility.yul\":2455:2461   */\n      dup5\n        /* \"#utility.yul\":2411:2482   */\n      tag_92\n      jump\t// in\n    tag_127:\n        /* \"#utility.yul\":2365:2489   */\n      swap3\n      swap2\n      pop\n      pop\n      jump\t// out\n        /* \"#utility.yul\":2495:2733   */\n    tag_37:\n        /* \"#utility.yul\":2596:2600   */\n      0x00\n        /* \"#utility.yul\":2634:2636   */\n      0x20\n        /* \"#utility.yul\":2623:2632   */\n      dup3\n        /* \"#utility.yul\":2619:2637   */\n      add\n        /* \"#utility.yul\":2611:2637   */\n      swap1\n      pop\n        /* \"#utility.yul\":2647:2726   */\n      tag_129\n        /* \"#utility.yul\":2723:2724   */\n      0x00\n        /* \"#utility.yul\":2712:2721   */\n      dup4\n        /* \"#utility.yul\":2708:2725   */\n      add\n        /* \"#utility.yul\":2699:2705   */\n      dup5\n        /* \"#utility.yul\":2647:2726   */\n      tag_96\n      jump\t// in\n    tag_129:\n        /* \"#utility.yul\":2601:2733   */\n      swap3\n      swap2\n      pop\n      pop\n      jump\t// out\n        /* \"#utility.yul\":2739:2949   */\n    tag_45:\n        /* \"#utility.yul\":2826:2830   */\n      0x00\n        /* \"#utility.yul\":2864:2866   */\n      0x20\n        /* \"#utility.yul\":2853:2862   */\n      dup3\n        /* \"#utility.yul\":2849:2867   */\n      add\n        /* \"#utility.yul\":2841:2867   */\n      swap1\n      pop\n        /* \"#utility.yul\":2877:2942   */\n      tag_131\n        /* \"#utility.yul\":2939:2940   */\n      0x00\n        /* \"#utility.yul\":2928:2937   */\n      dup4\n        /* \"#utility.yul\":2924:2941   */\n      add\n        /* \"#utility.yul\":2915:2921   */\n      dup5\n        /* \"#utility.yul\":2877:2942   */\n      tag_100\n      jump\t// in\n    tag_131:\n        /* \"#utility.yul\":2831:2949   */\n      swap3\n      swap2\n      pop\n      pop\n      jump\t// out\n        /* \"#utility.yul\":2955:3268   */\n    tag_54:\n        /* \"#utility.yul\":3068:3072   */\n      0x00\n        /* \"#utility.yul\":3106:3108   */\n      0x20\n        /* \"#utility.yul\":3095:3104   */\n      dup3\n        /* \"#utility.yul\":3091:3109   */\n      add\n        /* \"#utility.yul\":3083:3109   */\n      swap1\n      pop\n        /* \"#utility.yul\":3155:3164   */\n      dup2\n        /* \"#utility.yul\":3149:3153   */\n      dup2\n        /* \"#utility.yul\":3145:3165   */\n      sub\n        /* \"#utility.yul\":3141:3142   */\n      0x00\n        /* \"#utility.yul\":3130:3139   */\n      dup4\n        /* \"#utility.yul\":3126:3143   */\n      add\n        /* \"#utility.yul\":3119:3166   */\n      mstore\n        /* \"#utility.yul\":3183:3261   */\n      tag_133\n        /* \"#utility.yul\":3256:3260   */\n      dup2\n        /* \"#utility.yul\":3247:3253   */\n      dup5\n        /* \"#utility.yul\":3183:3261   */\n      tag_104\n      jump\t// in\n    tag_133:\n        /* \"#utility.yul\":3175:3261   */\n      swap1\n      pop\n        /* \"#utility.yul\":3073:3268   */\n      swap3\n      swap2\n      pop\n      pop\n      jump\t// out\n        /* \"#utility.yul\":3274:3488   */\n    tag_33:\n        /* \"#utility.yul\":3363:3367   */\n      0x00\n        /* \"#utility.yul\":3401:3403   */\n      0x20\n        /* \"#utility.yul\":3390:3399   */\n      dup3\n        /* \"#utility.yul\":3386:3404   */\n      add\n        /* \"#utility.yul\":3378:3404   */\n      swap1\n      pop\n        /* \"#utility.yul\":3414:3481   */\n      tag_135\n        /* \"#utility.yul\":3478:3479   */\n      0x00\n        /* \"#utility.yul\":3467:3476   */\n      dup4\n        /* \"#utility.yul\":3463:3480   */\n      add\n        /* \"#utility.yul\":3454:3460   */\n      dup5\n        /* \"#utility.yul\":3414:3481   */\n      tag_114\n      jump\t// in\n    tag_135:\n        /* \"#utility.yul\":3368:3488   */\n      swap3\n      swap2\n      pop\n      pop\n      jump\t// out\n        /* \"#utility.yul\":3494:3593   */\n    tag_107:\n        /* \"#utility.yul\":3546:3552   */\n      0x00\n        /* \"#utility.yul\":3580:3585   */\n      dup2\n        /* \"#utility.yul\":3574:3586   */\n      mload\n        /* \"#utility.yul\":3564:3586   */\n      swap1\n      pop\n        /* \"#utility.yul\":3553:3593   */\n      swap2\n      swap1\n      pop\n      jump\t// out\n        /* \"#utility.yul\":3599:3768   */\n    tag_109:\n        /* \"#utility.yul\":3683:3694   */\n      0x00\n        /* \"#utility.yul\":3717:3723   */\n      dup3\n        /* \"#utility.yul\":3712:3715   */\n      dup3\n        /* \"#utility.yul\":3705:3724   */\n      mstore\n        /* \"#utility.yul\":3757:3761   */\n      0x20\n        /* \"#utility.yul\":3752:3755   */\n      dup3\n        /* \"#utility.yul\":3748:3762   */\n      add\n        /* \"#utility.yul\":3733:3762   */\n      swap1\n      pop\n        /* \"#utility.yul\":3695:3768   */\n      swap3\n      swap2\n      pop\n      pop\n      jump\t// out\n        /* \"#utility.yul\":3774:3870   */\n    tag_79:\n        /* \"#utility.yul\":3811:3818   */\n      0x00\n        /* \"#utility.yul\":3840:3864   */\n      tag_139\n        /* \"#utility.yul\":3858:3863   */\n      dup3\n        /* \"#utility.yul\":3840:3864   */\n      tag_140\n      jump\t// in\n    tag_139:\n        /* \"#utility.yul\":3829:3864   */\n      swap1\n      pop\n        /* \"#utility.yul\":3819:3870   */\n      swap2\n      swap1\n      pop\n      jump\t// out\n        /* \"#utility.yul\":3876:3966   */\n    tag_83:\n        /* \"#utility.yul\":3910:3917   */\n      0x00\n        /* \"#utility.yul\":3953:3958   */\n      dup2\n        /* \"#utility.yul\":3946:3959   */\n      iszero\n        /* \"#utility.yul\":3939:3960   */\n      iszero\n        /* \"#utility.yul\":3928:3960   */\n      swap1\n      pop\n        /* \"#utility.yul\":3918:3966   */\n      swap2\n      swap1\n      pop\n      jump\t// out\n        /* \"#utility.yul\":3972:4121   */\n    tag_87:\n        /* \"#utility.yul\":4008:4015   */\n      0x00\n        /* \"#utility.yul\":4048:4114   */\n      0xff00000000000000000000000000000000000000000000000000000000000000\n        /* \"#utility.yul\":4041:4046   */\n      dup3\n        /* \"#utility.yul\":4037:4115   */\n      and\n        /* \"#utility.yul\":4026:4115   */\n      swap1\n      pop\n        /* \"#utility.yul\":4016:4121   */\n      swap2\n      swap1\n      pop\n      jump\t// out\n        /* \"#utility.yul\":4127:4277   */\n    tag_91:\n        /* \"#utility.yul\":4164:4171   */\n      0x00\n        /* \"#utility.yul\":4204:4270   */\n      0xffffffffffffffffffffffffffffffffffffffff000000000000000000000000\n        /* \"#utility.yul\":4197:4202   */\n      dup3\n        /* \"#utility.yul\":4193:4271   */\n      and\n        /* \"#utility.yul\":4182:4271   */\n      swap1\n      pop\n        /* \"#utility.yul\":4172:4277   */\n      swap2\n      swap1\n      pop\n      jump\t// out\n        /* \"#utility.yul\":4283:4360   */\n    tag_95:\n        /* \"#utility.yul\":4320:4327   */\n      0x00\n        /* \"#utility.yul\":4349:4354   */\n      dup2\n        /* \"#utility.yul\":4338:4354   */\n      swap1\n      pop\n        /* \"#utility.yul\":4328:4360   */\n      swap2\n      swap1\n      pop\n      jump\t// out\n        /* \"#utility.yul\":4366:4497   */\n    tag_145:\n        /* \"#utility.yul\":4413:4420   */\n      0x00\n        /* \"#utility.yul\":4442:4447   */\n      dup2\n        /* \"#utility.yul\":4431:4447   */\n      swap1\n      pop\n        /* \"#utility.yul\":4448:4491   */\n      tag_147\n        /* \"#utility.yul\":4485:4490   */\n      dup3\n        /* \"#utility.yul\":4448:4491   */\n      tag_148\n      jump\t// in\n    tag_147:\n        /* \"#utility.yul\":4421:4497   */\n      swap2\n      swap1\n      pop\n      jump\t// out\n        /* \"#utility.yul\":4503:4592   */\n    tag_103:\n        /* \"#utility.yul\":4537:4544   */\n      0x00\n        /* \"#utility.yul\":4580:4585   */\n      dup2\n        /* \"#utility.yul\":4577:4578   */\n      0x00\n        /* \"#utility.yul\":4566:4586   */\n      signextend\n        /* \"#utility.yul\":4555:4586   */\n      swap1\n      pop\n        /* \"#utility.yul\":4545:4592   */\n      swap2\n      swap1\n      pop\n      jump\t// out\n        /* \"#utility.yul\":4598:4724   */\n    tag_140:\n        /* \"#utility.yul\":4635:4642   */\n      0x00\n        /* \"#utility.yul\":4675:4717   */\n      0xffffffffffffffffffffffffffffffffffffffff\n        /* \"#utility.yul\":4668:4673   */\n      dup3\n        /* \"#utility.yul\":4664:4718   */\n      and\n        /* \"#utility.yul\":4653:4718   */\n      swap1\n      pop\n        /* \"#utility.yul\":4643:4724   */\n      swap2\n      swap1\n      pop\n      jump\t// out\n        /* \"#utility.yul\":4730:4816   */\n    tag_117:\n        /* \"#utility.yul\":4765:4772   */\n      0x00\n        /* \"#utility.yul\":4805:4809   */\n      0xff\n        /* \"#utility.yul\":4798:4803   */\n      dup3\n        /* \"#utility.yul\":4794:4810   */\n      and\n        /* \"#utility.yul\":4783:4810   */\n      swap1\n      pop\n        /* \"#utility.yul\":4773:4816   */\n      swap2\n      swap1\n      pop\n      jump\t// out\n        /* \"#utility.yul\":4822:4953   */\n    tag_99:\n        /* \"#utility.yul\":4880:4889   */\n      0x00\n        /* \"#utility.yul\":4913:4947   */\n      tag_153\n        /* \"#utility.yul\":4941:4946   */\n      dup3\n        /* \"#utility.yul\":4913:4947   */\n      tag_145\n      jump\t// in\n    tag_153:\n        /* \"#utility.yul\":4900:4947   */\n      swap1\n      pop\n        /* \"#utility.yul\":4890:4953   */\n      swap2\n      swap1\n      pop\n      jump\t// out\n        /* \"#utility.yul\":4959:5266   */\n    tag_111:\n        /* \"#utility.yul\":5027:5028   */\n      0x00\n        /* \"#utility.yul\":5037:5150   */\n    tag_155:\n        /* \"#utility.yul\":5051:5057   */\n      dup4\n        /* \"#utility.yul\":5048:5049   */\n      dup2\n        /* \"#utility.yul\":5045:5058   */\n      lt\n        /* \"#utility.yul\":5037:5150   */\n      iszero\n      tag_157\n      jumpi\n        /* \"#utility.yul\":5136:5137   */\n      dup1\n        /* \"#utility.yul\":5131:5134   */\n      dup3\n        /* \"#utility.yul\":5127:5138   */\n      add\n        /* \"#utility.yul\":5121:5139   */\n      mload\n        /* \"#utility.yul\":5117:5118   */\n      dup2\n        /* \"#utility.yul\":5112:5115   */\n      dup5\n        /* \"#utility.yul\":5108:5119   */\n      add\n        /* \"#utility.yul\":5101:5140   */\n      mstore\n        /* \"#utility.yul\":5073:5075   */\n      0x20\n        /* \"#utility.yul\":5070:5071   */\n      dup2\n        /* \"#utility.yul\":5066:5076   */\n      add\n        /* \"#utility.yul\":5061:5076   */\n      swap1\n      pop\n        /* \"#utility.yul\":5037:5150   */\n      jump(tag_155)\n    tag_157:\n        /* \"#utility.yul\":5168:5174   */\n      dup4\n        /* \"#utility.yul\":5165:5166   */\n      dup2\n        /* \"#utility.yul\":5162:5175   */\n      gt\n        /* \"#utility.yul\":5159:5161   */\n      iszero\n      tag_158\n      jumpi\n        /* \"#utility.yul\":5248:5249   */\n      0x00\n        /* \"#utility.yul\":5239:5245   */\n      dup5\n        /* \"#utility.yul\":5234:5237   */\n      dup5\n        /* \"#utility.yul\":5230:5246   */\n      add\n        /* \"#utility.yul\":5223:5250   */\n      mstore\n        /* \"#utility.yul\":5159:5161   */\n    tag_158:\n        /* \"#utility.yul\":5008:5266   */\n      pop\n      pop\n      pop\n      pop\n      jump\t// out\n        /* \"#utility.yul\":5272:5592   */\n    tag_68:\n        /* \"#utility.yul\":5316:5322   */\n      0x00\n        /* \"#utility.yul\":5353:5354   */\n      0x02\n        /* \"#utility.yul\":5347:5351   */\n      dup3\n        /* \"#utility.yul\":5343:5355   */\n      div\n        /* \"#utility.yul\":5333:5355   */\n      swap1\n      pop\n        /* \"#utility.yul\":5400:5401   */\n      0x01\n        /* \"#utility.yul\":5394:5398   */\n      dup3\n        /* \"#utility.yul\":5390:5402   */\n      and\n        /* \"#utility.yul\":5421:5439   */\n      dup1\n        /* \"#utility.yul\":5411:5413   */\n      tag_160\n      jumpi\n        /* \"#utility.yul\":5477:5481   */\n      0x7f\n        /* \"#utility.yul\":5469:5475   */\n      dup3\n        /* \"#utility.yul\":5465:5482   */\n      and\n        /* \"#utility.yul\":5455:5482   */\n      swap2\n      pop\n        /* \"#utility.yul\":5411:5413   */\n    tag_160:\n        /* \"#utility.yul\":5539:5541   */\n      0x20\n        /* \"#utility.yul\":5531:5537   */\n      dup3\n        /* \"#utility.yul\":5528:5542   */\n      lt\n        /* \"#utility.yul\":5508:5526   */\n      dup2\n        /* \"#utility.yul\":5505:5543   */\n      eq\n        /* \"#utility.yul\":5502:5504   */\n      iszero\n      tag_161\n      jumpi\n        /* \"#utility.yul\":5558:5576   */\n      tag_162\n      tag_163\n      jump\t// in\n    tag_162:\n        /* \"#utility.yul\":5502:5504   */\n    tag_161:\n        /* \"#utility.yul\":5323:5592   */\n      pop\n      swap2\n      swap1\n      pop\n      jump\t// out\n        /* \"#utility.yul\":5598:5778   */\n    tag_164:\n        /* \"#utility.yul\":5646:5723   */\n      0x4e487b7100000000000000000000000000000000000000000000000000000000\n        /* \"#utility.yul\":5643:5644   */\n      0x00\n        /* \"#utility.yul\":5636:5724   */\n      mstore\n        /* \"#utility.yul\":5743:5747   */\n      0x21\n        /* \"#utility.yul\":5740:5741   */\n      0x04\n        /* \"#utility.yul\":5733:5748   */\n      mstore\n        /* \"#utility.yul\":5767:5771   */\n      0x24\n        /* \"#utility.yul\":5764:5765   */\n      0x00\n        /* \"#utility.yul\":5757:5772   */\n      revert\n        /* \"#utility.yul\":5784:5964   */\n    tag_163:\n        /* \"#utility.yul\":5832:5909   */\n      0x4e487b7100000000000000000000000000000000000000000000000000000000\n        /* \"#utility.yul\":5829:5830   */\n      0x00\n        /* \"#utility.yul\":5822:5910   */\n      mstore\n        /* \"#utility.yul\":5929:5933   */\n      0x22\n        /* \"#utility.yul\":5926:5927   */\n      0x04\n        /* \"#utility.yul\":5919:5934   */\n      mstore\n        /* \"#utility.yul\":5953:5957   */\n      0x24\n        /* \"#utility.yul\":5950:5951   */\n      0x00\n        /* \"#utility.yul\":5943:5958   */\n      revert\n        /* \"#utility.yul\":5970:6072   */\n    tag_113:\n        /* \"#utility.yul\":6011:6017   */\n      0x00\n        /* \"#utility.yul\":6062:6064   */\n      0x1f\n        /* \"#utility.yul\":6058:6065   */\n      not\n        /* \"#utility.yul\":6053:6055   */\n      0x1f\n        /* \"#utility.yul\":6046:6051   */\n      dup4\n        /* \"#utility.yul\":6042:6056   */\n      add\n        /* \"#utility.yul\":6038:6066   */\n      and\n        /* \"#utility.yul\":6028:6066   */\n      swap1\n      pop\n        /* \"#utility.yul\":6018:6072   */\n      swap2\n      swap1\n      pop\n      jump\t// out\n        /* \"#utility.yul\":6078:6193   */\n    tag_148:\n        /* \"#utility.yul\":6161:6162   */\n      0x02\n        /* \"#utility.yul\":6154:6159   */\n      dup2\n        /* \"#utility.yul\":6151:6163   */\n      lt\n        /* \"#utility.yul\":6141:6143   */\n      tag_169\n      jumpi\n        /* \"#utility.yul\":6167:6185   */\n      tag_170\n      tag_164\n      jump\t// in\n    tag_170:\n        /* \"#utility.yul\":6141:6143   */\n    tag_169:\n        /* \"#utility.yul\":6131:6193   */\n      pop\n      jump\t// out\n\n    auxdata: 0xa2646970667358221220c7f87ba92c54d88ee58f3f66a3c9280db3fd41d79c99a08cb8f77f571a2057fb64736f6c63430008040033\n}\n",
				"bytecode": {
					"linkReferences": {},
					"object": "60806040526003600160006101000a81548160ff021916908360ff1602179055507fffffffffffffffffffffffffffffffffffffffffffffffffffffffffffffffe0600360006101000a81548160ff021916908360000b60ff16021790555060416004556040518060400160405280600f81526020017f4573746f206573207075626c69636f000000000000000000000000000000000081525060069080519060200190620000b09291906200035c565b506040518060400160405280600f81526020017f4573746f206573207072697661646f000000000000000000000000000000000081525060079080519060200190620000fe9291906200035c565b506001600860016101000a81548160ff0219169083151502179055506000600860026101000a81548160ff0219169083151502179055507f3400000000000000000000000000000000000000000000000000000000000000600a60046101000a81548160ff021916908360f81c0217905550600a33735b38da6a701c568545dcfcb03fcb875f56beddc46040516020016200019c939291906200054a565b60405160208183030381529060405280519060200120600b556002604051602001620001c890620005a7565b604051602081830303815290604052604051620001e6919062000531565b602060405180830381855afa15801562000204573d6000803e3d6000fd5b5050506040513d601f19601f8201168201806040525081019062000229919062000423565b600c5560036040516020016200023f90620005a7565b6040516020818303038152906040526040516200025d919062000531565b602060405180830381855afa1580156200027b573d6000803e3d6000fd5b5050506040515160601b600d60006101000a81548173ffffffffffffffffffffffffffffffffffffffff021916908360601c0217905550735b38da6a701c568545dcfcb03fcb875f56beddc4600f60006101000a81548173ffffffffffffffffffffffffffffffffffffffff021916908373ffffffffffffffffffffffffffffffffffffffff16021790555033601060006101000a81548173ffffffffffffffffffffffffffffffffffffffff021916908373ffffffffffffffffffffffffffffffffffffffff1602179055503480156200035557600080fd5b5062000796565b8280546200036a906200065d565b90600052602060002090601f0160209004810192826200038e5760008555620003da565b82601f10620003a957805160ff1916838001178555620003da565b82800160010185558215620003da579182015b82811115620003d9578251825591602001919060010190620003bc565b5b509050620003e99190620003ed565b5090565b5b8082111562000408576000816000905550600101620003ee565b5090565b6000815190506200041d816200077c565b92915050565b6000602082840312156200043657600080fd5b600062000446848285016200040c565b91505092915050565b620004646200045e82620005df565b62000693565b82525050565b60006200047782620005be565b620004838185620005c9565b93506200049581856020860162000627565b80840191505092915050565b6000620004b0600483620005d4565b9150620004bd8262000701565b600482019050919050565b6000620004d7600583620005d4565b9150620004e4826200072a565b600582019050919050565b6000620004fe600b83620005d4565b91506200050b8262000753565b600b82019050919050565b6200052b62000525826200061d565b620006bb565b82525050565b60006200053f82846200046a565b915081905092915050565b60006200055782620004a1565b91506200056482620004c8565b915062000572828662000516565b6020820191506200058482856200044f565b6014820191506200059682846200044f565b601482019150819050949350505050565b6000620005b482620004ef565b9150819050919050565b600081519050919050565b600081905092915050565b600081905092915050565b6000620005ec82620005fd565b9050919050565b6000819050919050565b600073ffffffffffffffffffffffffffffffffffffffff82169050919050565b6000819050919050565b60005b83811015620006475780820151818401526020810190506200062a565b8381111562000657576000848401525b50505050565b600060028204905060018216806200067657607f821691505b602082108114156200068d576200068c620006c5565b5b50919050565b6000620006a082620006a7565b9050919050565b6000620006b482620006f4565b9050919050565b6000819050919050565b7f4e487b7100000000000000000000000000000000000000000000000000000000600052602260045260246000fd5b60008160601b9050919050565b7f486f6c6100000000000000000000000000000000000000000000000000000000600082015250565b7f5061626c6f000000000000000000000000000000000000000000000000000000600082015250565b7f48656c6c6f20776f726c64000000000000000000000000000000000000000000600082015250565b6200078781620005f3565b81146200079357600080fd5b50565b6107f880620007a66000396000f3fe608060405234801561001057600080fd5b50600436106100cf5760003560e01c80638a054ac21161008c578063b83d07b711610066578063b83d07b7146101ce578063ba33ed7d146101ec578063c7109d04146101f6578063cd97d84e14610214576100cf565b80638a054ac2146101885780639eea4a3a146101a6578063b654b765146101c4576100cf565b8063312eef29146100d45780633a36399e146100f2578063444f263f146101105780634df7e3d01461012e5780637272eea11461014c578063730b07b11461016a575b600080fd5b6100dc610232565b6040516100e99190610500565b60405180910390f35b6100fa610245565b60405161010791906104e5565b60405180910390f35b61011861026b565b6040516101259190610536565b60405180910390f35b61013661027e565b60405161014391906105c4565b60405180910390f35b610154610291565b604051610161919061056c565b60405180910390f35b6101726102a8565b60405161017f919061051b565b60405180910390f35b6101906102bb565b60405161019d9190610587565b60405180910390f35b6101ae6102ce565b6040516101bb91906104e5565b60405180910390f35b6101cc6102f4565b005b6101d6610347565b6040516101e391906105a2565b60405180910390f35b6101f46103d5565b005b6101fe610428565b60405161020b9190610551565b60405180910390f35b61021c61042e565b6040516102299190610551565b60405180910390f35b600860019054906101000a900460ff1681565b600f60009054906101000a900473ffffffffffffffffffffffffffffffffffffffff1681565b600d60009054906101000a900460601b81565b600160009054906101000a900460ff1681565b6000601060149054906101000a900460ff16905090565b600a60049054906101000a900460f81b81565b600360009054906101000a900460000b81565b601060009054906101000a900473ffffffffffffffffffffffffffffffffffffffff1681565b6001601060146101000a81548160ff02191690836001811115610340577f4e487b7100000000000000000000000000000000000000000000000000000000600052602160045260246000fd5b0217905550565b600680546103549061070d565b80601f01602080910402602001604051908101604052809291908181526020018280546103809061070d565b80156103cd5780601f106103a2576101008083540402835291602001916103cd565b820191906000526020600020905b8154815290600101906020018083116103b057829003601f168201915b505050505081565b6000601060146101000a81548160ff02191690836001811115610421577f4e487b7100000000000000000000000000000000000000000000000000000000600052602160045260246000fd5b0217905550565b600c5481565b600b5481565b61043d816105fb565b82525050565b61044c8161060d565b82525050565b61045b81610619565b82525050565b61046a81610645565b82525050565b61047981610671565b82525050565b610488816106c8565b82525050565b6104978161068e565b82525050565b60006104a8826105df565b6104b281856105ea565b93506104c28185602086016106da565b6104cb8161079d565b840191505092915050565b6104df816106bb565b82525050565b60006020820190506104fa6000830184610434565b92915050565b60006020820190506105156000830184610443565b92915050565b60006020820190506105306000830184610452565b92915050565b600060208201905061054b6000830184610461565b92915050565b60006020820190506105666000830184610470565b92915050565b6000602082019050610581600083018461047f565b92915050565b600060208201905061059c600083018461048e565b92915050565b600060208201905081810360008301526105bc818461049d565b905092915050565b60006020820190506105d960008301846104d6565b92915050565b600081519050919050565b600082825260208201905092915050565b60006106068261069b565b9050919050565b60008115159050919050565b60007fff0000000000000000000000000000000000000000000000000000000000000082169050919050565b60007fffffffffffffffffffffffffffffffffffffffff00000000000000000000000082169050919050565b6000819050919050565b6000819050610689826107ae565b919050565b60008160000b9050919050565b600073ffffffffffffffffffffffffffffffffffffffff82169050919050565b600060ff82169050919050565b60006106d38261067b565b9050919050565b60005b838110156106f85780820151818401526020810190506106dd565b83811115610707576000848401525b50505050565b6000600282049050600182168061072557607f821691505b602082108114156107395761073861076e565b5b50919050565b7f4e487b7100000000000000000000000000000000000000000000000000000000600052602160045260246000fd5b7f4e487b7100000000000000000000000000000000000000000000000000000000600052602260045260246000fd5b6000601f19601f8301169050919050565b600281106107bf576107be61073f565b5b5056fea2646970667358221220c7f87ba92c54d88ee58f3f66a3c9280db3fd41d79c99a08cb8f77f571a2057fb64736f6c63430008040033",
					"opcodes": "PUSH1 0x80 PUSH1 0x40 MSTORE PUSH1 0x3 PUSH1 0x1 PUSH1 0x0 PUSH2 0x100 EXP DUP2 SLOAD DUP2 PUSH1 0xFF MUL NOT AND SWAP1 DUP4 PUSH1 0xFF AND MUL OR SWAP1 SSTORE POP PUSH32 0xFFFFFFFFFFFFFFFFFFFFFFFFFFFFFFFFFFFFFFFFFFFFFFFFFFFFFFFFFFFFFFE0 PUSH1 0x3 PUSH1 0x0 PUSH2 0x100 EXP DUP2 SLOAD DUP2 PUSH1 0xFF MUL NOT AND SWAP1 DUP4 PUSH1 0x0 SIGNEXTEND PUSH1 0xFF AND MUL OR SWAP1 SSTORE POP PUSH1 0x41 PUSH1 0x4 SSTORE PUSH1 0x40 MLOAD DUP1 PUSH1 0x40 ADD PUSH1 0x40 MSTORE DUP1 PUSH1 0xF DUP2 MSTORE PUSH1 0x20 ADD PUSH32 0x4573746F206573207075626C69636F0000000000000000000000000000000000 DUP2 MSTORE POP PUSH1 0x6 SWAP1 DUP1 MLOAD SWAP1 PUSH1 0x20 ADD SWAP1 PUSH3 0xB0 SWAP3 SWAP2 SWAP1 PUSH3 0x35C JUMP JUMPDEST POP PUSH1 0x40 MLOAD DUP1 PUSH1 0x40 ADD PUSH1 0x40 MSTORE DUP1 PUSH1 0xF DUP2 MSTORE PUSH1 0x20 ADD PUSH32 0x4573746F206573207072697661646F0000000000000000000000000000000000 DUP2 MSTORE POP PUSH1 0x7 SWAP1 DUP1 MLOAD SWAP1 PUSH1 0x20 ADD SWAP1 PUSH3 0xFE SWAP3 SWAP2 SWAP1 PUSH3 0x35C JUMP JUMPDEST POP PUSH1 0x1 PUSH1 0x8 PUSH1 0x1 PUSH2 0x100 EXP DUP2 SLOAD DUP2 PUSH1 0xFF MUL NOT AND SWAP1 DUP4 ISZERO ISZERO MUL OR SWAP1 SSTORE POP PUSH1 0x0 PUSH1 0x8 PUSH1 0x2 PUSH2 0x100 EXP DUP2 SLOAD DUP2 PUSH1 0xFF MUL NOT AND SWAP1 DUP4 ISZERO ISZERO MUL OR SWAP1 SSTORE POP PUSH32 0x3400000000000000000000000000000000000000000000000000000000000000 PUSH1 0xA PUSH1 0x4 PUSH2 0x100 EXP DUP2 SLOAD DUP2 PUSH1 0xFF MUL NOT AND SWAP1 DUP4 PUSH1 0xF8 SHR MUL OR SWAP1 SSTORE POP PUSH1 0xA CALLER PUSH20 0x5B38DA6A701C568545DCFCB03FCB875F56BEDDC4 PUSH1 0x40 MLOAD PUSH1 0x20 ADD PUSH3 0x19C SWAP4 SWAP3 SWAP2 SWAP1 PUSH3 0x54A JUMP JUMPDEST PUSH1 0x40 MLOAD PUSH1 0x20 DUP2 DUP4 SUB SUB DUP2 MSTORE SWAP1 PUSH1 0x40 MSTORE DUP1 MLOAD SWAP1 PUSH1 0x20 ADD KECCAK256 PUSH1 0xB SSTORE PUSH1 0x2 PUSH1 0x40 MLOAD PUSH1 0x20 ADD PUSH3 0x1C8 SWAP1 PUSH3 0x5A7 JUMP JUMPDEST PUSH1 0x40 MLOAD PUSH1 0x20 DUP2 DUP4 SUB SUB DUP2 MSTORE SWAP1 PUSH1 0x40 MSTORE PUSH1 0x40 MLOAD PUSH3 0x1E6 SWAP2 SWAP1 PUSH3 0x531 JUMP JUMPDEST PUSH1 0x20 PUSH1 0x40 MLOAD DUP1 DUP4 SUB DUP2 DUP6 GAS STATICCALL ISZERO DUP1 ISZERO PUSH3 0x204 JUMPI RETURNDATASIZE PUSH1 0x0 DUP1 RETURNDATACOPY RETURNDATASIZE PUSH1 0x0 REVERT JUMPDEST POP POP POP PUSH1 0x40 MLOAD RETURNDATASIZE PUSH1 0x1F NOT PUSH1 0x1F DUP3 ADD AND DUP3 ADD DUP1 PUSH1 0x40 MSTORE POP DUP2 ADD SWAP1 PUSH3 0x229 SWAP2 SWAP1 PUSH3 0x423 JUMP JUMPDEST PUSH1 0xC SSTORE PUSH1 0x3 PUSH1 0x40 MLOAD PUSH1 0x20 ADD PUSH3 0x23F SWAP1 PUSH3 0x5A7 JUMP JUMPDEST PUSH1 0x40 MLOAD PUSH1 0x20 DUP2 DUP4 SUB SUB DUP2 MSTORE SWAP1 PUSH1 0x40 MSTORE PUSH1 0x40 MLOAD PUSH3 0x25D SWAP2 SWAP1 PUSH3 0x531 JUMP JUMPDEST PUSH1 0x20 PUSH1 0x40 MLOAD DUP1 DUP4 SUB DUP2 DUP6 GAS STATICCALL ISZERO DUP1 ISZERO PUSH3 0x27B JUMPI RETURNDATASIZE PUSH1 0x0 DUP1 RETURNDATACOPY RETURNDATASIZE PUSH1 0x0 REVERT JUMPDEST POP POP POP PUSH1 0x40 MLOAD MLOAD PUSH1 0x60 SHL PUSH1 0xD PUSH1 0x0 PUSH2 0x100 EXP DUP2 SLOAD DUP2 PUSH20 0xFFFFFFFFFFFFFFFFFFFFFFFFFFFFFFFFFFFFFFFF MUL NOT AND SWAP1 DUP4 PUSH1 0x60 SHR MUL OR SWAP1 SSTORE POP PUSH20 0x5B38DA6A701C568545DCFCB03FCB875F56BEDDC4 PUSH1 0xF PUSH1 0x0 PUSH2 0x100 EXP DUP2 SLOAD DUP2 PUSH20 0xFFFFFFFFFFFFFFFFFFFFFFFFFFFFFFFFFFFFFFFF MUL NOT AND SWAP1 DUP4 PUSH20 0xFFFFFFFFFFFFFFFFFFFFFFFFFFFFFFFFFFFFFFFF AND MUL OR SWAP1 SSTORE POP CALLER PUSH1 0x10 PUSH1 0x0 PUSH2 0x100 EXP DUP2 SLOAD DUP2 PUSH20 0xFFFFFFFFFFFFFFFFFFFFFFFFFFFFFFFFFFFFFFFF MUL NOT AND SWAP1 DUP4 PUSH20 0xFFFFFFFFFFFFFFFFFFFFFFFFFFFFFFFFFFFFFFFF AND MUL OR SWAP1 SSTORE POP CALLVALUE DUP1 ISZERO PUSH3 0x355 JUMPI PUSH1 0x0 DUP1 REVERT JUMPDEST POP PUSH3 0x796 JUMP JUMPDEST DUP3 DUP1 SLOAD PUSH3 0x36A SWAP1 PUSH3 0x65D JUMP JUMPDEST SWAP1 PUSH1 0x0 MSTORE PUSH1 0x20 PUSH1 0x0 KECCAK256 SWAP1 PUSH1 0x1F ADD PUSH1 0x20 SWAP1 DIV DUP2 ADD SWAP3 DUP3 PUSH3 0x38E JUMPI PUSH1 0x0 DUP6 SSTORE PUSH3 0x3DA JUMP JUMPDEST DUP3 PUSH1 0x1F LT PUSH3 0x3A9 JUMPI DUP1 MLOAD PUSH1 0xFF NOT AND DUP4 DUP1 ADD OR DUP6 SSTORE PUSH3 0x3DA JUMP JUMPDEST DUP3 DUP1 ADD PUSH1 0x1 ADD DUP6 SSTORE DUP3 ISZERO PUSH3 0x3DA JUMPI SWAP2 DUP3 ADD JUMPDEST DUP3 DUP2 GT ISZERO PUSH3 0x3D9 JUMPI DUP3 MLOAD DUP3 SSTORE SWAP2 PUSH1 0x20 ADD SWAP2 SWAP1 PUSH1 0x1 ADD SWAP1 PUSH3 0x3BC JUMP JUMPDEST JUMPDEST POP SWAP1 POP PUSH3 0x3E9 SWAP2 SWAP1 PUSH3 0x3ED JUMP JUMPDEST POP SWAP1 JUMP JUMPDEST JUMPDEST DUP1 DUP3 GT ISZERO PUSH3 0x408 JUMPI PUSH1 0x0 DUP2 PUSH1 0x0 SWAP1 SSTORE POP PUSH1 0x1 ADD PUSH3 0x3EE JUMP JUMPDEST POP SWAP1 JUMP JUMPDEST PUSH1 0x0 DUP2 MLOAD SWAP1 POP PUSH3 0x41D DUP2 PUSH3 0x77C JUMP JUMPDEST SWAP3 SWAP2 POP POP JUMP JUMPDEST PUSH1 0x0 PUSH1 0x20 DUP3 DUP5 SUB SLT ISZERO PUSH3 0x436 JUMPI PUSH1 0x0 DUP1 REVERT JUMPDEST PUSH1 0x0 PUSH3 0x446 DUP5 DUP3 DUP6 ADD PUSH3 0x40C JUMP JUMPDEST SWAP2 POP POP SWAP3 SWAP2 POP POP JUMP JUMPDEST PUSH3 0x464 PUSH3 0x45E DUP3 PUSH3 0x5DF JUMP JUMPDEST PUSH3 0x693 JUMP JUMPDEST DUP3 MSTORE POP POP JUMP JUMPDEST PUSH1 0x0 PUSH3 0x477 DUP3 PUSH3 0x5BE JUMP JUMPDEST PUSH3 0x483 DUP2 DUP6 PUSH3 0x5C9 JUMP JUMPDEST SWAP4 POP PUSH3 0x495 DUP2 DUP6 PUSH1 0x20 DUP7 ADD PUSH3 0x627 JUMP JUMPDEST DUP1 DUP5 ADD SWAP2 POP POP SWAP3 SWAP2 POP POP JUMP JUMPDEST PUSH1 0x0 PUSH3 0x4B0 PUSH1 0x4 DUP4 PUSH3 0x5D4 JUMP JUMPDEST SWAP2 POP PUSH3 0x4BD DUP3 PUSH3 0x701 JUMP JUMPDEST PUSH1 0x4 DUP3 ADD SWAP1 POP SWAP2 SWAP1 POP JUMP JUMPDEST PUSH1 0x0 PUSH3 0x4D7 PUSH1 0x5 DUP4 PUSH3 0x5D4 JUMP JUMPDEST SWAP2 POP PUSH3 0x4E4 DUP3 PUSH3 0x72A JUMP JUMPDEST PUSH1 0x5 DUP3 ADD SWAP1 POP SWAP2 SWAP1 POP JUMP JUMPDEST PUSH1 0x0 PUSH3 0x4FE PUSH1 0xB DUP4 PUSH3 0x5D4 JUMP JUMPDEST SWAP2 POP PUSH3 0x50B DUP3 PUSH3 0x753 JUMP JUMPDEST PUSH1 0xB DUP3 ADD SWAP1 POP SWAP2 SWAP1 POP JUMP JUMPDEST PUSH3 0x52B PUSH3 0x525 DUP3 PUSH3 0x61D JUMP JUMPDEST PUSH3 0x6BB JUMP JUMPDEST DUP3 MSTORE POP POP JUMP JUMPDEST PUSH1 0x0 PUSH3 0x53F DUP3 DUP5 PUSH3 0x46A JUMP JUMPDEST SWAP2 POP DUP2 SWAP1 POP SWAP3 SWAP2 POP POP JUMP JUMPDEST PUSH1 0x0 PUSH3 0x557 DUP3 PUSH3 0x4A1 JUMP JUMPDEST SWAP2 POP PUSH3 0x564 DUP3 PUSH3 0x4C8 JUMP JUMPDEST SWAP2 POP PUSH3 0x572 DUP3 DUP7 PUSH3 0x516 JUMP JUMPDEST PUSH1 0x20 DUP3 ADD SWAP2 POP PUSH3 0x584 DUP3 DUP6 PUSH3 0x44F JUMP JUMPDEST PUSH1 0x14 DUP3 ADD SWAP2 POP PUSH3 0x596 DUP3 DUP5 PUSH3 0x44F JUMP JUMPDEST PUSH1 0x14 DUP3 ADD SWAP2 POP DUP2 SWAP1 POP SWAP5 SWAP4 POP POP POP POP JUMP JUMPDEST PUSH1 0x0 PUSH3 0x5B4 DUP3 PUSH3 0x4EF JUMP JUMPDEST SWAP2 POP DUP2 SWAP1 POP SWAP2 SWAP1 POP JUMP JUMPDEST PUSH1 0x0 DUP2 MLOAD SWAP1 POP SWAP2 SWAP1 POP JUMP JUMPDEST PUSH1 0x0 DUP2 SWAP1 POP SWAP3 SWAP2 POP POP JUMP JUMPDEST PUSH1 0x0 DUP2 SWAP1 POP SWAP3 SWAP2 POP POP JUMP JUMPDEST PUSH1 0x0 PUSH3 0x5EC DUP3 PUSH3 0x5FD JUMP JUMPDEST SWAP1 POP SWAP2 SWAP1 POP JUMP JUMPDEST PUSH1 0x0 DUP2 SWAP1 POP SWAP2 SWAP1 POP JUMP JUMPDEST PUSH1 0x0 PUSH20 0xFFFFFFFFFFFFFFFFFFFFFFFFFFFFFFFFFFFFFFFF DUP3 AND SWAP1 POP SWAP2 SWAP1 POP JUMP JUMPDEST PUSH1 0x0 DUP2 SWAP1 POP SWAP2 SWAP1 POP JUMP JUMPDEST PUSH1 0x0 JUMPDEST DUP4 DUP2 LT ISZERO PUSH3 0x647 JUMPI DUP1 DUP3 ADD MLOAD DUP2 DUP5 ADD MSTORE PUSH1 0x20 DUP2 ADD SWAP1 POP PUSH3 0x62A JUMP JUMPDEST DUP4 DUP2 GT ISZERO PUSH3 0x657 JUMPI PUSH1 0x0 DUP5 DUP5 ADD MSTORE JUMPDEST POP POP POP POP JUMP JUMPDEST PUSH1 0x0 PUSH1 0x2 DUP3 DIV SWAP1 POP PUSH1 0x1 DUP3 AND DUP1 PUSH3 0x676 JUMPI PUSH1 0x7F DUP3 AND SWAP2 POP JUMPDEST PUSH1 0x20 DUP3 LT DUP2 EQ ISZERO PUSH3 0x68D JUMPI PUSH3 0x68C PUSH3 0x6C5 JUMP JUMPDEST JUMPDEST POP SWAP2 SWAP1 POP JUMP JUMPDEST PUSH1 0x0 PUSH3 0x6A0 DUP3 PUSH3 0x6A7 JUMP JUMPDEST SWAP1 POP SWAP2 SWAP1 POP JUMP JUMPDEST PUSH1 0x0 PUSH3 0x6B4 DUP3 PUSH3 0x6F4 JUMP JUMPDEST SWAP1 POP SWAP2 SWAP1 POP JUMP JUMPDEST PUSH1 0x0 DUP2 SWAP1 POP SWAP2 SWAP1 POP JUMP JUMPDEST PUSH32 0x4E487B7100000000000000000000000000000000000000000000000000000000 PUSH1 0x0 MSTORE PUSH1 0x22 PUSH1 0x4 MSTORE PUSH1 0x24 PUSH1 0x0 REVERT JUMPDEST PUSH1 0x0 DUP2 PUSH1 0x60 SHL SWAP1 POP SWAP2 SWAP1 POP JUMP JUMPDEST PUSH32 0x486F6C6100000000000000000000000000000000000000000000000000000000 PUSH1 0x0 DUP3 ADD MSTORE POP JUMP JUMPDEST PUSH32 0x5061626C6F000000000000000000000000000000000000000000000000000000 PUSH1 0x0 DUP3 ADD MSTORE POP JUMP JUMPDEST PUSH32 0x48656C6C6F20776F726C64000000000000000000000000000000000000000000 PUSH1 0x0 DUP3 ADD MSTORE POP JUMP JUMPDEST PUSH3 0x787 DUP2 PUSH3 0x5F3 JUMP JUMPDEST DUP2 EQ PUSH3 0x793 JUMPI PUSH1 0x0 DUP1 REVERT JUMPDEST POP JUMP JUMPDEST PUSH2 0x7F8 DUP1 PUSH3 0x7A6 PUSH1 0x0 CODECOPY PUSH1 0x0 RETURN INVALID PUSH1 0x80 PUSH1 0x40 MSTORE CALLVALUE DUP1 ISZERO PUSH2 0x10 JUMPI PUSH1 0x0 DUP1 REVERT JUMPDEST POP PUSH1 0x4 CALLDATASIZE LT PUSH2 0xCF JUMPI PUSH1 0x0 CALLDATALOAD PUSH1 0xE0 SHR DUP1 PUSH4 0x8A054AC2 GT PUSH2 0x8C JUMPI DUP1 PUSH4 0xB83D07B7 GT PUSH2 0x66 JUMPI DUP1 PUSH4 0xB83D07B7 EQ PUSH2 0x1CE JUMPI DUP1 PUSH4 0xBA33ED7D EQ PUSH2 0x1EC JUMPI DUP1 PUSH4 0xC7109D04 EQ PUSH2 0x1F6 JUMPI DUP1 PUSH4 0xCD97D84E EQ PUSH2 0x214 JUMPI PUSH2 0xCF JUMP JUMPDEST DUP1 PUSH4 0x8A054AC2 EQ PUSH2 0x188 JUMPI DUP1 PUSH4 0x9EEA4A3A EQ PUSH2 0x1A6 JUMPI DUP1 PUSH4 0xB654B765 EQ PUSH2 0x1C4 JUMPI PUSH2 0xCF JUMP JUMPDEST DUP1 PUSH4 0x312EEF29 EQ PUSH2 0xD4 JUMPI DUP1 PUSH4 0x3A36399E EQ PUSH2 0xF2 JUMPI DUP1 PUSH4 0x444F263F EQ PUSH2 0x110 JUMPI DUP1 PUSH4 0x4DF7E3D0 EQ PUSH2 0x12E JUMPI DUP1 PUSH4 0x7272EEA1 EQ PUSH2 0x14C JUMPI DUP1 PUSH4 0x730B07B1 EQ PUSH2 0x16A JUMPI JUMPDEST PUSH1 0x0 DUP1 REVERT JUMPDEST PUSH2 0xDC PUSH2 0x232 JUMP JUMPDEST PUSH1 0x40 MLOAD PUSH2 0xE9 SWAP2 SWAP1 PUSH2 0x500 JUMP JUMPDEST PUSH1 0x40 MLOAD DUP1 SWAP2 SUB SWAP1 RETURN JUMPDEST PUSH2 0xFA PUSH2 0x245 JUMP JUMPDEST PUSH1 0x40 MLOAD PUSH2 0x107 SWAP2 SWAP1 PUSH2 0x4E5 JUMP JUMPDEST PUSH1 0x40 MLOAD DUP1 SWAP2 SUB SWAP1 RETURN JUMPDEST PUSH2 0x118 PUSH2 0x26B JUMP JUMPDEST PUSH1 0x40 MLOAD PUSH2 0x125 SWAP2 SWAP1 PUSH2 0x536 JUMP JUMPDEST PUSH1 0x40 MLOAD DUP1 SWAP2 SUB SWAP1 RETURN JUMPDEST PUSH2 0x136 PUSH2 0x27E JUMP JUMPDEST PUSH1 0x40 MLOAD PUSH2 0x143 SWAP2 SWAP1 PUSH2 0x5C4 JUMP JUMPDEST PUSH1 0x40 MLOAD DUP1 SWAP2 SUB SWAP1 RETURN JUMPDEST PUSH2 0x154 PUSH2 0x291 JUMP JUMPDEST PUSH1 0x40 MLOAD PUSH2 0x161 SWAP2 SWAP1 PUSH2 0x56C JUMP JUMPDEST PUSH1 0x40 MLOAD DUP1 SWAP2 SUB SWAP1 RETURN JUMPDEST PUSH2 0x172 PUSH2 0x2A8 JUMP JUMPDEST PUSH1 0x40 MLOAD PUSH2 0x17F SWAP2 SWAP1 PUSH2 0x51B JUMP JUMPDEST PUSH1 0x40 MLOAD DUP1 SWAP2 SUB SWAP1 RETURN JUMPDEST PUSH2 0x190 PUSH2 0x2BB JUMP JUMPDEST PUSH1 0x40 MLOAD PUSH2 0x19D SWAP2 SWAP1 PUSH2 0x587 JUMP JUMPDEST PUSH1 0x40 MLOAD DUP1 SWAP2 SUB SWAP1 RETURN JUMPDEST PUSH2 0x1AE PUSH2 0x2CE JUMP JUMPDEST PUSH1 0x40 MLOAD PUSH2 0x1BB SWAP2 SWAP1 PUSH2 0x4E5 JUMP JUMPDEST PUSH1 0x40 MLOAD DUP1 SWAP2 SUB SWAP1 RETURN JUMPDEST PUSH2 0x1CC PUSH2 0x2F4 JUMP JUMPDEST STOP JUMPDEST PUSH2 0x1D6 PUSH2 0x347 JUMP JUMPDEST PUSH1 0x40 MLOAD PUSH2 0x1E3 SWAP2 SWAP1 PUSH2 0x5A2 JUMP JUMPDEST PUSH1 0x40 MLOAD DUP1 SWAP2 SUB SWAP1 RETURN JUMPDEST PUSH2 0x1F4 PUSH2 0x3D5 JUMP JUMPDEST STOP JUMPDEST PUSH2 0x1FE PUSH2 0x428 JUMP JUMPDEST PUSH1 0x40 MLOAD PUSH2 0x20B SWAP2 SWAP1 PUSH2 0x551 JUMP JUMPDEST PUSH1 0x40 MLOAD DUP1 SWAP2 SUB SWAP1 RETURN JUMPDEST PUSH2 0x21C PUSH2 0x42E JUMP JUMPDEST PUSH1 0x40 MLOAD PUSH2 0x229 SWAP2 SWAP1 PUSH2 0x551 JUMP JUMPDEST PUSH1 0x40 MLOAD DUP1 SWAP2 SUB SWAP1 RETURN JUMPDEST PUSH1 0x8 PUSH1 0x1 SWAP1 SLOAD SWAP1 PUSH2 0x100 EXP SWAP1 DIV PUSH1 0xFF AND DUP2 JUMP JUMPDEST PUSH1 0xF PUSH1 0x0 SWAP1 SLOAD SWAP1 PUSH2 0x100 EXP SWAP1 DIV PUSH20 0xFFFFFFFFFFFFFFFFFFFFFFFFFFFFFFFFFFFFFFFF AND DUP2 JUMP JUMPDEST PUSH1 0xD PUSH1 0x0 SWAP1 SLOAD SWAP1 PUSH2 0x100 EXP SWAP1 DIV PUSH1 0x60 SHL DUP2 JUMP JUMPDEST PUSH1 0x1 PUSH1 0x0 SWAP1 SLOAD SWAP1 PUSH2 0x100 EXP SWAP1 DIV PUSH1 0xFF AND DUP2 JUMP JUMPDEST PUSH1 0x0 PUSH1 0x10 PUSH1 0x14 SWAP1 SLOAD SWAP1 PUSH2 0x100 EXP SWAP1 DIV PUSH1 0xFF AND SWAP1 POP SWAP1 JUMP JUMPDEST PUSH1 0xA PUSH1 0x4 SWAP1 SLOAD SWAP1 PUSH2 0x100 EXP SWAP1 DIV PUSH1 0xF8 SHL DUP2 JUMP JUMPDEST PUSH1 0x3 PUSH1 0x0 SWAP1 SLOAD SWAP1 PUSH2 0x100 EXP SWAP1 DIV PUSH1 0x0 SIGNEXTEND DUP2 JUMP JUMPDEST PUSH1 0x10 PUSH1 0x0 SWAP1 SLOAD SWAP1 PUSH2 0x100 EXP SWAP1 DIV PUSH20 0xFFFFFFFFFFFFFFFFFFFFFFFFFFFFFFFFFFFFFFFF AND DUP2 JUMP JUMPDEST PUSH1 0x1 PUSH1 0x10 PUSH1 0x14 PUSH2 0x100 EXP DUP2 SLOAD DUP2 PUSH1 0xFF MUL NOT AND SWAP1 DUP4 PUSH1 0x1 DUP2 GT ISZERO PUSH2 0x340 JUMPI PUSH32 0x4E487B7100000000000000000000000000000000000000000000000000000000 PUSH1 0x0 MSTORE PUSH1 0x21 PUSH1 0x4 MSTORE PUSH1 0x24 PUSH1 0x0 REVERT JUMPDEST MUL OR SWAP1 SSTORE POP JUMP JUMPDEST PUSH1 0x6 DUP1 SLOAD PUSH2 0x354 SWAP1 PUSH2 0x70D JUMP JUMPDEST DUP1 PUSH1 0x1F ADD PUSH1 0x20 DUP1 SWAP2 DIV MUL PUSH1 0x20 ADD PUSH1 0x40 MLOAD SWAP1 DUP2 ADD PUSH1 0x40 MSTORE DUP1 SWAP3 SWAP2 SWAP1 DUP2 DUP2 MSTORE PUSH1 0x20 ADD DUP3 DUP1 SLOAD PUSH2 0x380 SWAP1 PUSH2 0x70D JUMP JUMPDEST DUP1 ISZERO PUSH2 0x3CD JUMPI DUP1 PUSH1 0x1F LT PUSH2 0x3A2 JUMPI PUSH2 0x100 DUP1 DUP4 SLOAD DIV MUL DUP4 MSTORE SWAP2 PUSH1 0x20 ADD SWAP2 PUSH2 0x3CD JUMP JUMPDEST DUP3 ADD SWAP2 SWAP1 PUSH1 0x0 MSTORE PUSH1 0x20 PUSH1 0x0 KECCAK256 SWAP1 JUMPDEST DUP2 SLOAD DUP2 MSTORE SWAP1 PUSH1 0x1 ADD SWAP1 PUSH1 0x20 ADD DUP1 DUP4 GT PUSH2 0x3B0 JUMPI DUP3 SWAP1 SUB PUSH1 0x1F AND DUP3 ADD SWAP2 JUMPDEST POP POP POP POP POP DUP2 JUMP JUMPDEST PUSH1 0x0 PUSH1 0x10 PUSH1 0x14 PUSH2 0x100 EXP DUP2 SLOAD DUP2 PUSH1 0xFF MUL NOT AND SWAP1 DUP4 PUSH1 0x1 DUP2 GT ISZERO PUSH2 0x421 JUMPI PUSH32 0x4E487B7100000000000000000000000000000000000000000000000000000000 PUSH1 0x0 MSTORE PUSH1 0x21 PUSH1 0x4 MSTORE PUSH1 0x24 PUSH1 0x0 REVERT JUMPDEST MUL OR SWAP1 SSTORE POP JUMP JUMPDEST PUSH1 0xC SLOAD DUP2 JUMP JUMPDEST PUSH1 0xB SLOAD DUP2 JUMP JUMPDEST PUSH2 0x43D DUP2 PUSH2 0x5FB JUMP JUMPDEST DUP3 MSTORE POP POP JUMP JUMPDEST PUSH2 0x44C DUP2 PUSH2 0x60D JUMP JUMPDEST DUP3 MSTORE POP POP JUMP JUMPDEST PUSH2 0x45B DUP2 PUSH2 0x619 JUMP JUMPDEST DUP3 MSTORE POP POP JUMP JUMPDEST PUSH2 0x46A DUP2 PUSH2 0x645 JUMP JUMPDEST DUP3 MSTORE POP POP JUMP JUMPDEST PUSH2 0x479 DUP2 PUSH2 0x671 JUMP JUMPDEST DUP3 MSTORE POP POP JUMP JUMPDEST PUSH2 0x488 DUP2 PUSH2 0x6C8 JUMP JUMPDEST DUP3 MSTORE POP POP JUMP JUMPDEST PUSH2 0x497 DUP2 PUSH2 0x68E JUMP JUMPDEST DUP3 MSTORE POP POP JUMP JUMPDEST PUSH1 0x0 PUSH2 0x4A8 DUP3 PUSH2 0x5DF JUMP JUMPDEST PUSH2 0x4B2 DUP2 DUP6 PUSH2 0x5EA JUMP JUMPDEST SWAP4 POP PUSH2 0x4C2 DUP2 DUP6 PUSH1 0x20 DUP7 ADD PUSH2 0x6DA JUMP JUMPDEST PUSH2 0x4CB DUP2 PUSH2 0x79D JUMP JUMPDEST DUP5 ADD SWAP2 POP POP SWAP3 SWAP2 POP POP JUMP JUMPDEST PUSH2 0x4DF DUP2 PUSH2 0x6BB JUMP JUMPDEST DUP3 MSTORE POP POP JUMP JUMPDEST PUSH1 0x0 PUSH1 0x20 DUP3 ADD SWAP1 POP PUSH2 0x4FA PUSH1 0x0 DUP4 ADD DUP5 PUSH2 0x434 JUMP JUMPDEST SWAP3 SWAP2 POP POP JUMP JUMPDEST PUSH1 0x0 PUSH1 0x20 DUP3 ADD SWAP1 POP PUSH2 0x515 PUSH1 0x0 DUP4 ADD DUP5 PUSH2 0x443 JUMP JUMPDEST SWAP3 SWAP2 POP POP JUMP JUMPDEST PUSH1 0x0 PUSH1 0x20 DUP3 ADD SWAP1 POP PUSH2 0x530 PUSH1 0x0 DUP4 ADD DUP5 PUSH2 0x452 JUMP JUMPDEST SWAP3 SWAP2 POP POP JUMP JUMPDEST PUSH1 0x0 PUSH1 0x20 DUP3 ADD SWAP1 POP PUSH2 0x54B PUSH1 0x0 DUP4 ADD DUP5 PUSH2 0x461 JUMP JUMPDEST SWAP3 SWAP2 POP POP JUMP JUMPDEST PUSH1 0x0 PUSH1 0x20 DUP3 ADD SWAP1 POP PUSH2 0x566 PUSH1 0x0 DUP4 ADD DUP5 PUSH2 0x470 JUMP JUMPDEST SWAP3 SWAP2 POP POP JUMP JUMPDEST PUSH1 0x0 PUSH1 0x20 DUP3 ADD SWAP1 POP PUSH2 0x581 PUSH1 0x0 DUP4 ADD DUP5 PUSH2 0x47F JUMP JUMPDEST SWAP3 SWAP2 POP POP JUMP JUMPDEST PUSH1 0x0 PUSH1 0x20 DUP3 ADD SWAP1 POP PUSH2 0x59C PUSH1 0x0 DUP4 ADD DUP5 PUSH2 0x48E JUMP JUMPDEST SWAP3 SWAP2 POP POP JUMP JUMPDEST PUSH1 0x0 PUSH1 0x20 DUP3 ADD SWAP1 POP DUP2 DUP2 SUB PUSH1 0x0 DUP4 ADD MSTORE PUSH2 0x5BC DUP2 DUP5 PUSH2 0x49D JUMP JUMPDEST SWAP1 POP SWAP3 SWAP2 POP POP JUMP JUMPDEST PUSH1 0x0 PUSH1 0x20 DUP3 ADD SWAP1 POP PUSH2 0x5D9 PUSH1 0x0 DUP4 ADD DUP5 PUSH2 0x4D6 JUMP JUMPDEST SWAP3 SWAP2 POP POP JUMP JUMPDEST PUSH1 0x0 DUP2 MLOAD SWAP1 POP SWAP2 SWAP1 POP JUMP JUMPDEST PUSH1 0x0 DUP3 DUP3 MSTORE PUSH1 0x20 DUP3 ADD SWAP1 POP SWAP3 SWAP2 POP POP JUMP JUMPDEST PUSH1 0x0 PUSH2 0x606 DUP3 PUSH2 0x69B JUMP JUMPDEST SWAP1 POP SWAP2 SWAP1 POP JUMP JUMPDEST PUSH1 0x0 DUP2 ISZERO ISZERO SWAP1 POP SWAP2 SWAP1 POP JUMP JUMPDEST PUSH1 0x0 PUSH32 0xFF00000000000000000000000000000000000000000000000000000000000000 DUP3 AND SWAP1 POP SWAP2 SWAP1 POP JUMP JUMPDEST PUSH1 0x0 PUSH32 0xFFFFFFFFFFFFFFFFFFFFFFFFFFFFFFFFFFFFFFFF000000000000000000000000 DUP3 AND SWAP1 POP SWAP2 SWAP1 POP JUMP JUMPDEST PUSH1 0x0 DUP2 SWAP1 POP SWAP2 SWAP1 POP JUMP JUMPDEST PUSH1 0x0 DUP2 SWAP1 POP PUSH2 0x689 DUP3 PUSH2 0x7AE JUMP JUMPDEST SWAP2 SWAP1 POP JUMP JUMPDEST PUSH1 0x0 DUP2 PUSH1 0x0 SIGNEXTEND SWAP1 POP SWAP2 SWAP1 POP JUMP JUMPDEST PUSH1 0x0 PUSH20 0xFFFFFFFFFFFFFFFFFFFFFFFFFFFFFFFFFFFFFFFF DUP3 AND SWAP1 POP SWAP2 SWAP1 POP JUMP JUMPDEST PUSH1 0x0 PUSH1 0xFF DUP3 AND SWAP1 POP SWAP2 SWAP1 POP JUMP JUMPDEST PUSH1 0x0 PUSH2 0x6D3 DUP3 PUSH2 0x67B JUMP JUMPDEST SWAP1 POP SWAP2 SWAP1 POP JUMP JUMPDEST PUSH1 0x0 JUMPDEST DUP4 DUP2 LT ISZERO PUSH2 0x6F8 JUMPI DUP1 DUP3 ADD MLOAD DUP2 DUP5 ADD MSTORE PUSH1 0x20 DUP2 ADD SWAP1 POP PUSH2 0x6DD JUMP JUMPDEST DUP4 DUP2 GT ISZERO PUSH2 0x707 JUMPI PUSH1 0x0 DUP5 DUP5 ADD MSTORE JUMPDEST POP POP POP POP JUMP JUMPDEST PUSH1 0x0 PUSH1 0x2 DUP3 DIV SWAP1 POP PUSH1 0x1 DUP3 AND DUP1 PUSH2 0x725 JUMPI PUSH1 0x7F DUP3 AND SWAP2 POP JUMPDEST PUSH1 0x20 DUP3 LT DUP2 EQ ISZERO PUSH2 0x739 JUMPI PUSH2 0x738 PUSH2 0x76E JUMP JUMPDEST JUMPDEST POP SWAP2 SWAP1 POP JUMP JUMPDEST PUSH32 0x4E487B7100000000000000000000000000000000000000000000000000000000 PUSH1 0x0 MSTORE PUSH1 0x21 PUSH1 0x4 MSTORE PUSH1 0x24 PUSH1 0x0 REVERT JUMPDEST PUSH32 0x4E487B7100000000000000000000000000000000000000000000000000000000 PUSH1 0x0 MSTORE PUSH1 0x22 PUSH1 0x4 MSTORE PUSH1 0x24 PUSH1 0x0 REVERT JUMPDEST PUSH1 0x0 PUSH1 0x1F NOT PUSH1 0x1F DUP4 ADD AND SWAP1 POP SWAP2 SWAP1 POP JUMP JUMPDEST PUSH1 0x2 DUP2 LT PUSH2 0x7BF JUMPI PUSH2 0x7BE PUSH2 0x73F JUMP JUMPDEST JUMPDEST POP JUMP INVALID LOG2 PUSH5 0x6970667358 0x22 SLT KECCAK256 0xC7 0xF8 PUSH28 0xA92C54D88EE58F3F66A3C9280DB3FD41D79C99A08CB8F77F571A2057 0xFB PUSH5 0x736F6C6343 STOP ADDMOD DIV STOP CALLER "
				},
				"gasEstimates": {
					"creation": {
						"codeDepositCost": "408000",
						"executionCost": "infinite",
						"totalCost": "infinite"
					},
					"external": {
						"address1()": "1237",
						"address2()": "1259",
						"b()": "1238",
						"boolean_true()": "1222",
						"byte1()": "1332",
						"d()": "1198",
						"displayState()": "1407",
						"hashing()": "1217",
						"hashing_ripeMD160()": "1216",
						"hashing_sha256()": "1195",
						"str_public()": "infinite",
						"turnOf()": "21148",
						"turnOn()": "21125"
					}
				},
				"methodIdentifiers": {
					"address1()": "3a36399e",
					"address2()": "9eea4a3a",
					"b()": "4df7e3d0",
					"boolean_true()": "312eef29",
					"byte1()": "730b07b1",
					"d()": "8a054ac2",
					"displayState()": "7272eea1",
					"hashing()": "cd97d84e",
					"hashing_ripeMD160()": "444f263f",
					"hashing_sha256()": "c7109d04",
					"str_public()": "b83d07b7",
					"turnOf()": "b654b765",
					"turnOn()": "ba33ed7d"
				}
			},
			"storageLayout": {
				"storage": [
					{
						"astId": 3,
						"contract": "contracts/2_variables_modifiers.sol:variables_modifiers",
						"label": "a",
						"offset": 0,
						"slot": "0",
						"type": "t_uint256"
					},
					{
						"astId": 6,
						"contract": "contracts/2_variables_modifiers.sol:variables_modifiers",
						"label": "b",
						"offset": 0,
						"slot": "1",
						"type": "t_uint8"
					},
					{
						"astId": 8,
						"contract": "contracts/2_variables_modifiers.sol:variables_modifiers",
						"label": "c",
						"offset": 0,
						"slot": "2",
						"type": "t_int256"
					},
					{
						"astId": 12,
						"contract": "contracts/2_variables_modifiers.sol:variables_modifiers",
						"label": "d",
						"offset": 0,
						"slot": "3",
						"type": "t_int8"
					},
					{
						"astId": 15,
						"contract": "contracts/2_variables_modifiers.sol:variables_modifiers",
						"label": "e",
						"offset": 0,
						"slot": "4",
						"type": "t_int256"
					},
					{
						"astId": 17,
						"contract": "contracts/2_variables_modifiers.sol:variables_modifiers",
						"label": "str",
						"offset": 0,
						"slot": "5",
						"type": "t_string_storage"
					},
					{
						"astId": 20,
						"contract": "contracts/2_variables_modifiers.sol:variables_modifiers",
						"label": "str_public",
						"offset": 0,
						"slot": "6",
						"type": "t_string_storage"
					},
					{
						"astId": 23,
						"contract": "contracts/2_variables_modifiers.sol:variables_modifiers",
						"label": "str_priv",
						"offset": 0,
						"slot": "7",
						"type": "t_string_storage"
					},
					{
						"astId": 25,
						"contract": "contracts/2_variables_modifiers.sol:variables_modifiers",
						"label": "boolean",
						"offset": 0,
						"slot": "8",
						"type": "t_bool"
					},
					{
						"astId": 28,
						"contract": "contracts/2_variables_modifiers.sol:variables_modifiers",
						"label": "boolean_true",
						"offset": 1,
						"slot": "8",
						"type": "t_bool"
					},
					{
						"astId": 31,
						"contract": "contracts/2_variables_modifiers.sol:variables_modifiers",
						"label": "boolean_priv",
						"offset": 2,
						"slot": "8",
						"type": "t_bool"
					},
					{
						"astId": 33,
						"contract": "contracts/2_variables_modifiers.sol:variables_modifiers",
						"label": "first_bytes",
						"offset": 0,
						"slot": "9",
						"type": "t_bytes32"
					},
					{
						"astId": 35,
						"contract": "contracts/2_variables_modifiers.sol:variables_modifiers",
						"label": "second_bytes",
						"offset": 0,
						"slot": "10",
						"type": "t_bytes4"
					},
					{
						"astId": 38,
						"contract": "contracts/2_variables_modifiers.sol:variables_modifiers",
						"label": "byte1",
						"offset": 4,
						"slot": "10",
						"type": "t_bytes1"
					},
					{
						"astId": 54,
						"contract": "contracts/2_variables_modifiers.sol:variables_modifiers",
						"label": "hashing",
						"offset": 0,
						"slot": "11",
						"type": "t_bytes32"
					},
					{
						"astId": 62,
						"contract": "contracts/2_variables_modifiers.sol:variables_modifiers",
						"label": "hashing_sha256",
						"offset": 0,
						"slot": "12",
						"type": "t_bytes32"
					},
					{
						"astId": 71,
						"contract": "contracts/2_variables_modifiers.sol:variables_modifiers",
						"label": "hashing_ripeMD160",
						"offset": 0,
						"slot": "13",
						"type": "t_bytes20"
					},
					{
						"astId": 73,
						"contract": "contracts/2_variables_modifiers.sol:variables_modifiers",
						"label": "my_address",
						"offset": 0,
						"slot": "14",
						"type": "t_address"
					},
					{
						"astId": 76,
						"contract": "contracts/2_variables_modifiers.sol:variables_modifiers",
						"label": "address1",
						"offset": 0,
						"slot": "15",
						"type": "t_address"
					},
					{
						"astId": 80,
						"contract": "contracts/2_variables_modifiers.sol:variables_modifiers",
						"label": "address2",
						"offset": 0,
						"slot": "16",
						"type": "t_address"
					},
					{
						"astId": 86,
						"contract": "contracts/2_variables_modifiers.sol:variables_modifiers",
						"label": "state",
						"offset": 20,
						"slot": "16",
						"type": "t_enum(options)83"
					}
				],
				"types": {
					"t_address": {
						"encoding": "inplace",
						"label": "address",
						"numberOfBytes": "20"
					},
					"t_bool": {
						"encoding": "inplace",
						"label": "bool",
						"numberOfBytes": "1"
					},
					"t_bytes1": {
						"encoding": "inplace",
						"label": "bytes1",
						"numberOfBytes": "1"
					},
					"t_bytes20": {
						"encoding": "inplace",
						"label": "bytes20",
						"numberOfBytes": "20"
					},
					"t_bytes32": {
						"encoding": "inplace",
						"label": "bytes32",
						"numberOfBytes": "32"
					},
					"t_bytes4": {
						"encoding": "inplace",
						"label": "bytes4",
						"numberOfBytes": "4"
					},
					"t_enum(options)83": {
						"encoding": "inplace",
						"label": "enum variables_modifiers.options",
						"numberOfBytes": "1"
					},
					"t_int256": {
						"encoding": "inplace",
						"label": "int256",
						"numberOfBytes": "32"
					},
					"t_int8": {
						"encoding": "inplace",
						"label": "int8",
						"numberOfBytes": "1"
					},
					"t_string_storage": {
						"encoding": "bytes",
						"label": "string",
						"numberOfBytes": "32"
					},
					"t_uint256": {
						"encoding": "inplace",
						"label": "uint256",
						"numberOfBytes": "32"
					},
					"t_uint8": {
						"encoding": "inplace",
						"label": "uint8",
						"numberOfBytes": "1"
					}
				}
			},
			"userdoc": {
				"kind": "user",
				"methods": {},
				"version": 1
			}
		}
	}
}